S01800004750494F5F454D325F736C6565705F454B2E73333723
S3150800000000100020C5030008AF1B0008AF1B00083E
S31508000010AF1B0008AF1B0008AF1B0008AF1B00088A
S31508000020AF1B0008AF1B0008AF1B0008AF1B00087A
S31508000030AF1B0008AF1B0008AF1B0008AF1B00086A
S31508000040AF1B0008AF1B0008AF1B0008AF1B00085A
S31508000050AF1B0008AF1B0008AF1B0008AF1B00084A
S31508000060AF1B0008AF1B0008AF1B0008AF1B00083A
S31508000070AF1B0008AF1B0008AF1B0008AF1B00082A
S31508000080AF1B0008AF1B0008AF1B0008AF1B00081A
S31508000090AF1B0008AF1B0008AF1B0008AF1B00080A
S315080000A0AF1B0008AF1B00087D020008AF1B000845
S315080000B0AF1B0008AF1B0008AF1B0008AF1B0008EA
S315080000C0AF1B0008AF1B0008AF1B0008AF1B0008DA
S315080000D0AF1B0008AF1B0008AF1B0008AF1B0008CA
S315080000E0AF1B0008AF1B0008AF1B0008AF1B0008BA
S315080000F0AF1B0008AF1B0008AF1B0008AF1B0008AA
S31508000100AF1B0008AF1B0008AF1B0008AF1B000899
S31508000110AF1B0008AF1B0008AF1B0008AF1B000889
S31508000120AF1B0008AF1B0008AF1B0008AF1B000879
S31508000130AF1B0008AF1B0008AF1B0008AF1B000869
S31508000140AF1B0008AF1B0008AF1B0008AF1B000859
S31508000150AF1B0008AF1B0008AF1B0008AF1B000849
S31508000160AF1B0008AF1B0008AF1B0008AF1B000839
S315080001700348044B834202D0034B03B11847704728
S31508000180201000202010002000000000064B074920
S31508000190C91A891048BF0131491003D0044B0BB165
S315080001A001481847704700BF201000202010002083
S315080001B00000000010B5064C237843B9FFF7D8FFB6
S315080001C0044B13B10448AFF300800123237010BD1C
S315080001D03C10002000000000781E000808B5054BFA
S315080001E01BB105490548AFF30080BDE80840FFF795
S315080001F0CDBF00BF0000000020100020781E0008B8
S31508000200A3F5803A704700BF174B002B08BF134B66
S315080002109D46FFF7F5FF00218B460F461348144A03
S31508000220121A01F045FD0E4B002B00D098470D4BD6
S31508000230002B00D098470020002104000D000D482F
S31508000240002802D00C48AFF3008001F049FC2000DA
S31508000250290001F06BFC01F031FC00BF000008002A
S315080002600000000000000000001000202010002000
S315080002704010002000000000000000000B4A0C4B54
S31508000280D2F82014C3F82014C9070DD5526F12F0FE
S31508000290010F4FF0100203D0A3F580531A6470477C
S315080002A001201A6401F010B9704700BF00C003505E
S315080002B000E0035007B501213A2000F061FC002157
S315080002C001230846022201F01BFB012302221846DD
S315080002D0002101F015FB0022012311461046CDE945
S315080002E0003301F09DFA4FF08062034BC3F880217A
S315080002F01A6003B05DF804FB00E100E010B5274C76
S3150800030000F08EFE01F0B6F8236F23F0070343F0E2
S315080003100303236701F083FC214B00209B6ADB0162
S315080003205EBF4FF480321F4B9A62D4F8203123F017
S31508000330070343F00203C4F82031D4F8283123F028
S31508000340070343F00203C4F82831D4F8403123F0F8
S31508000350030343F00203C4F84031D4F8603123F0B4
S31508000360030343F00203C4F86031D4F8403223F0A3
S31508000370030343F00203C4F84032D4F8003223F0F2
S31508000380070343F00203C4F80032D4F8083223F016
S31508000390070343F00203C4F8083210BD008000507A
S315080003A00040005A0060005A0348044A0449121AD9
S315080003B0921001F0FDBB00BFAC1E0008AC1E000881
S315080003C04010002008B500F02FF8FFF7EDFF124B9C
S315080003D012498B4212D30020114B12498B4218D373
S315080003E0FFF712FF186850F82240586840F8224074
S315080003F0013298688242F5D30C33EAE70022F8E71F
S315080004001C6844F8220001325C68A242F8D308331B
S31508000410E4E70022F8E700BF801E00088C1E0008EB
S315080004208C1E00088C1E000810B54FF480414FF052
S31508000430FF30114B114A9A60D3F8882042F47002B3
S31508000440C3F888200E4A91660E4901F500521066D7
S315080004500D4850660220C3F8D000BFF34F8FBFF394
S315080004606F8F01244FF440330848C0F88041D360A9
S3150800047004600B6110BD00BF00ED00E0000000083D
S315080004800090005000800044F7FF370000E100E0CC
S31508000490014B1868704700BF04100020084B1B6FFB
S315080004A003F00703022B04D0032B05D0012B05D03C
S315080004B0FEE7044B18687047034BFBE70348704791
S315080004C000800050041000200C100020002D31017F
S315080004D008B5FFF7E3FF054B1B6FC3F3033301337F
S315080004E0B0FBF3F0024B186008BD00BF0080005057
S315080004F0001000200048704700B4C404014B186877
S31508000500704700BF0C100020054B1860054B1B6F89
S3150800051003F00703032B01D1FFF7DABF704700BFCB
S315080005200C1000200080005000487047002D310153
S315080005304FF0B4439868C0F304400C280AD8DFE8A3
S3150800054000F00B0909090909072119091B1D1F00D4
S315080005500F487047002070479B6803F04073B3F15B
S31508000560807F11D0B3F1007F10D00A4A002B08BF54
S31508000570104670470848704708487047084870474B
S315080005800848704708487047084870470848704741
S31508000590405DC60000093D00C0EA210180BA8C0111
S315080005A00048E801005A62020024F40080841E0014
S315080005B040420F00014B1868704700BF0810002022
S315080005C0044BD3F88420D206FBD4D3F88400C0F3B6
S315080005D0811070470040005038B5124B0546D3F8D5
S315080005E080300C4603F00303022B0BD0032B0DD0EF
S315080005F0012B0FD1FFF752FF0E2305B1286004B176
S31508000600236038BDFFF794FF0723F6E7FFF740FF9F
S315080006100623F2E7044841F2DF1101F0DCFA002371
S315080006201846EAE700800050001D000838B51A4B46
S315080006300546D3F820010C4600F00700062821D805
S31508000640DFE800F028040C1410181C00FFF720FF40
S31508000650052305B1286004B1236038BDFFF74EFFB6
S315080006600323F6E7FFF764FF0723F2E7FFF75CFFCC
S315080006700223EEE7FFF70CFF0623EAE7FFF73EFF44
S315080006800423E6E7054841F25C2101F0A4FA0023B9
S315080006901846DEE70123DCE700800050001D00084D
S315080006A038B5194B0546D3F828310C4603F007032D
S315080006B0013B052B20D8DFE803F003131B0F0B17AC
S315080006C0FFF7E6FE052305B1286004B1236038BDAF
S315080006D0FFF7DEFE0623F6E7FFF72AFF0723F2E712
S315080006E0FFF70CFF0323EEE7FFF708FF0423EAE70B
S315080006F0FFF71AFF0223E6E7044841F2640101F016
S315080007006AFA00231846DEE700800050001D00083C
S31508000710F7B50027144B0197D3F88041064604F035
S315080007200304022C0D4614D0032C0DD0012C14D131
S31508000730394601A8FFF77AFF10240EB1019B3360F2
S3150800074005B12C6003B0F0BDFFF7F2FE0724019057
S31508000750F3E7FFF7E9FE0190EFE741F2B13103480D
S3150800076001F039FA3C46E8E700800050001D000811
S3150800077037B500230193194B0546D3F820320C46AA
S3150800078003F00703042B1FD8DFE803F025030F1433
S315080007901900002101A8FFF783FF12230DB1019A62
S315080007A02A6004B1236003B030BDFFF7C1FE0723FA
S315080007B00190F3E701F009FA0A230190EEE7FFF743
S315080007C0F9FE09230190E9E741F22301044801F003
S315080007D002FA0023E2E70123E0E700BF00800050A9
S315080007E0001D000838B5104B0546D3F840310C46B5
S315080007F003F00303022B0BD0032B0DD0012B0FD1D3
S3150800080001F0E3F90A2305B1286004B1236038BD75
S31508000810FFF7D0FE0923F6E701F0DAF90C23F2E731
S3150800082001230020EFE700BF0080005037B5002302
S315080008300193184B0546D3F860320C4603F00703BC
S31508000840013B032B1FD8DFE803F0020E1914002121
S3150800085001A8FFF7EBFE10230DB1019A2A6004B137
S31508000860236003B030BD002101A8FFF7BBFF1123A9
S31508000870F2E7FFF75DFE07230190EDE7FFF754FE69
S3150800088002230190E8E741F2C801034801F0A3F901
S315080008900023E1E700800050001D000837B500235B
S315080008A00193184B0546D3F894320C4603F0070318
S315080008B0013B032B1FD8DFE803F0020E19140021B1
S315080008C001A8FFF7B3FE10230DB1019A2A6004B1FF
S315080008D0236003B030BD002101A8FFF783FF112371
S315080008E0F2E7FFF725FE07230190EDE7FFF71CFE69
S315080008F002230190E8E741F2FB01034801F06BF996
S315080009000023E1E700800050001D000873B50024AD
S315080009100F4B0194D3F87032064603F00303012BFC
S315080009200D4607D0022B11D041F22611094801F0D5
S3150800093052F904E0214601A8FFF754FF11240EB12D
S31508000940019B336005B12C6002B070BD1524F6E733
S3150800095000800050001D000838B5164B0546D3F830
S3150800096000020C4600F00700042819D8DFE800F05A
S3150800097020030B0F130001F028F90A2305B128609C
S3150800098004B1236038BDFFF715FE0923F6E701F029
S315080009901FF90C23F2E7FFF79BFD0F23800AEDE70B
S315080009A0054841F26F4101F016F900231846E5E7BC
S315080009B00123E3E700800050001D000838B5164BF8
S315080009C00546D3F808020C4600F00700042819D893
S315080009D0DFE800F020030B0F130001F0F6F80A23F6
S315080009E005B1286004B1236038BDFFF7E3FD09238C
S315080009F0F6E701F0EDF80C23F2E7FFF769FD0F23A0
S31508000A00800AEDE7054841F2A74101F0E4F8002322
S31508000A101846E5E70123E3E700800050001D0008BB
S31508000A2038B5104B0546D3F840320C4603F003039D
S31508000A30022B0BD0032B0DD0012B0FD101F0C5F8DB
S31508000A400A2305B1286004B1236038BDFFF7B2FD5B
S31508000A500923F6E701F0BCF80C23F2E7012300208E
S31508000A60EFE700BF0080005038B5104B0546D3F8B5
S31508000A7060310C4603F00303022B0BD0032B0DD079
S31508000A80012B0FD101F0A1F80A2305B1286004B1A2
S31508000A90236038BDFFF78EFD0923F6E701F098F8C5
S31508000AA00C23F2E701230020EFE700BF0080005087
S31508000AB010B5B0F5207F2ED009D8B0F5007F24D028
S31508000AC003D868B1B0F5C07F0AD000241BE0B0F5A2
S31508000AD0607FFAD1124BD3F88040C4F3011412E0B8
S31508000AE00F4B1C6F230B13F00E0FC4F303340AD0FD
S31508000AF0072C08D00F2C06D0032C04D040F28521F1
S31508000B00084801F068F8601C10BD054BD3F8904002
S31508000B10C4F30464F7E7024B1C6FC4F38024F2E7BE
S31508000B2000800050001D000838B54FF48032104B85
S31508000B3004469A6600200D46FFF7BAFF41F6713261
S31508000B400C4B6043DC69DA635A6804F4803422F497
S31508000B5040125DB90849884294BF0020012000056B
S31508000B6002435A600CB10022DA6338BD0349F2E742
S31508000B700090005000000350005A6202002D310117
S31508000B8038B5430904460D460ED140F22F310D48BB
S31508000B9001F021F8002304F01F0485B103F5805302
S31508000BA00122A2401A6038BD012B04D0022B04D0C2
S31508000BB040F23D31EBE7044BEDE7044BEBE703F579
S31508000BC00053EDE7001D000864800050688000505F
S31508000BD030B585B0002180280446CDE9001100F023
S31508000BE09F8035D85E2846D85E2844D8DFE800F0CE
S31508000BF09E4343434343434343434343434343435C
S31508000C0043434343434343434343434343434343A6
S31508000C109EAB9EABBBBBBBBBBBABC550DB7450AB83
S31508000C20ABAB4343434343434343ABABAB7CE5AB3B
S31508000C3043434343434343434343434343BB9E9E48
S31508000C409EE05050EA8B61C04343434343939E0062
S31508000C50B0F5B06F00F0918030D8B0F5207F72D033
S31508000C600FD8B0F5C07F61D0B0F5007F61D0B0F580
S31508000C70807F00F0878040F29441554800F0ABFF32
S31508000C8051E0B0F5607F69D00DD8B0F5407FF2D15C
S31508000C90FFF71EFC04464FF42070FFF709FFB4FB6C
S31508000CA0F0F4640858E0B0F5806F5CD0B0F5A06F3A
S31508000CB0E1D100216846FFF75BFD34E0B0F5106F1F
S31508000CC076D016D8B0F5E06F77D00AD8B0F5C06FF1
S31508000CD069D0B0F5D06FCED100216846FFF73CFE4B
S31508000CE021E0B0F5F06FC6D100216846FFF7BCFEDB
S31508000CF019E0B0F5406F3BD00AD8B0F5206F61D047
S31508000D00B0F5286FB7D100216846FFF7FFFD0AE066
S31508000D10B0F5486FAFD100216846FFF7BFFD02E086
S31508000D20FFF7BCFB0090009805B030BDFFF7D0FB7D
S31508000D30F8E7FFF7B3FB05462046FFF7B9FEB5FB14
S31508000D40F0F50095EFE7FFF7C3FB04464FF4207074
S31508000D50FFF7AEFEB4FBF0F40094E4E701A8FFF752
S31508000D603BFC019DE8E700216846FFF75FFCDAE7F0
S31508000D7000216846FFF794FCD5E700216846FFF78F
S31508000D80C7FCD0E74FF0E02302911B695B0705D546
S31508000D90FFF79EFB0290029B0093C4E703A902A8F3
S31508000DA0FFF720FDF7E700216846FFF71BFDBAE7C6
S31508000DB000216846FFF702FEB5E700216846FFF7FF
S31508000DC02FFEB0E700216846FFF730FDABE700BF0E
S31508000DD0001D000808B58020FFF7FAFE034B98426D
S31508000DE09EBF4FF48032024B1A6708BD005A620252
S31508000DF000A000501FB503460020B3F5807F019080
S31508000E0000F0C28063D85D2B54D84C2B06D82D2B06
S31508000E1046D8232B2AD840F27951A4E04D3B102B13
S31508000E20F9D801A252F823F07F0F0008170E000820
S31508000E30170E0008170E0008310F0008170E0008D5
S31508000E40170E0008031000084F0F0008F50E0008DB
S31508000E50F90F0008170E0008170E0008170E0008ED
S31508000E60170E0008170E00080D100008243B092B62
S31508000E70D1D801A252F823F07F0F00087F0F00088F
S31508000E807F0F00087F0F00087F0F0008170E000865
S31508000E906F0F0008170E0008110F0008B50F00089D
S31508000EA03D2B00F082803E2BB5D1002001A9FFF72B
S31508000EB0B7FD60E0802BAED1574B1B6F03F00703DD
S31508000EC0013B032B4DD8DFE803F04A47878FB3F57C
S31508000ED0F06F6AD021D8B3F5B06F48D00FD8B3F504
S31508000EE0607F00F0858096D3B3F5806F47D0B3F561
S31508000EF0A06F90D1002001A9FFF73AFC3BE0B3F5BB
S31508000F00D06F57D0B3F5E06FCFD0B3F5C06F82D1AD
S31508000F10002001A9FFF766FC2DE0B3F5206F70D01D
S31508000F200BD8B3F5086F4AD0B3F5106F7FF473AFDB
S31508000F30002001A9FFF742FD1DE0B3F5406F5BD025
S31508000F40B3F5486F62D0B3F5286F7FF464AF00201D
S31508000F5001A9FFF7DBFC0EE0052301930BE0022352
S31508000F60FBE740F2C6412D4800F035FE03E00020BD
S31508000F7001A9FFF7CDFB019805B05DF804FB002039
S31508000F8001A9FFF753FBF6E74FF0E02302901B6930
S31508000F905B0705D5FFF79CFA0D230393039BDCE754
S31508000FA003A902A8FFF71EFCF8E7002001A9FFF72E
S31508000FB05BFDE0E7002001A9FFF7CEFCDBE7164B57
S31508000FC0D3F8003103F00303022B07D0032B09D013
S31508000FD0012B0BD1FFF792FA0323BEE7FFF7EAFAD4
S31508000FE00923BAE700F0EFFD0823B6E70123B4E7C3
S31508000FF001A9FFF7F1FABEE7002001A9FFF750FBA8
S31508001000B9E7002001A9FFF711FCB4E7002001A900
S31508001010FFF744FCAFE700BF00800050001D000842
S315080010204FF48012034B5A664FF48032024B9A6291
S31508001030704700BF009000500050005A38B503684A
S3150800104004460F2B04D940F66D317C4800F0C3FDE9
S3150800105063680F2B04D94FF43761784800F0BBFD5D
S31508001060A3680F2B04D940F67331744800F0B3FD1A
S31508001070237B0F2B04D940F67631704800F0ABFD80
S31508001080637B0F2B04D940F679316C4800F0A3FD39
S31508001090A37B3F2B04D940F67C31684800F09BFDC2
S315080010A0E37B3F2B04D940F67F31644800F093FD7B
S315080010B02369032B04D940F68231604800F08BFD82
S315080010C06369032B04D940F685315C4800F083FD3B
S315080010D0E369032B04D940F68831584800F07BFDB4
S315080010E08020FFF787FE032800F083804FF48012E4
S315080010F0534B4FF0A0615A6645F60E02514BC3F8A2
S315080011008020514A91624FF4803102F580529162F3
S315080011109A6DD203FCD4996D11F08041FBD1D4E9C4
S315080011200002120542EA0062E07B0243207B42EAA3
S315080011300042607B42EA0032A07B42EA80121A61D2
S315080011409869D4E90452120642EA856200F0004022
S315080011500243A07EE57E0243207E42EA0042607E8C
S3150800116042EA00229A611A6AE06922F00F0242EA0C
S315080011708502364D00283DD11A6294F82420996AD2
S3150800118094F82000D200294042EA40120A4394F813
S31508001190211042EA011242F480329A622C49294A05
S315080011A0936D31EA0303FBD14FF0807126488162C3
S315080011B01369A56823F4700343EA055313614FF0D6
S315080011C00043836194F822300BB9224B996294F854
S315080011D023303BB94FF480321E4B9A62194A936DFD
S315080011E05B00FCD494F825301BB1164B1A4AC3F899
S315080011F0802038BD024342F0080202281A6208D14C
S3150800120019614FF40852996114484FF47F4100F070
S31508001210E4FC0C4994F822308A6A94F820001B06EC
S315080012202A4043EA4013134394F8242043EAC203AE
S3150800123094F8232043EA02438B62D3E7001D000893
S31508001240009000500040005A0050005AC7FFFEFEAA
S31508001250030001000060005AF1A7FFFF3440005A5E
S31508001260014B93F9000070471410002010B543682D
S315080012700446072B04D940F6B3512A4800F0ABFCC4
S31508001280A368032B04D940F6B551264800F0A3FC01
S315080012902378032B04D940F6B751224800F09BFC6B
S315080012A094F90130002B04DA40F6B9511D4800F0D4
S315080012B092FC4FF400011C4A637851664FF4D151F1
S315080012C0022002F5B832516218494F2B48604FF098
S315080012D0010028BF4F2301F5805148601169C903F1
S315080012E0FCD4217843EA01235361D4E901131B0195
S315080012F043EA0123617B0B43217B43EA4103936065
S31508001300E37BA17B1B0143EA4113617C0B43217CF0
S3150800131043EA41035360A37C13B16FF4D15353627C
S3150800132010BD00BF001D00080090005000100250BC
S31508001330014B1880704700BF12100020014B18801F
S31508001340704700BF1010002038B5B0F5207F77D061
S315080013500ED8B0F5007F61D003D890B3B0F5C07F42
S315080013602FD040F21231BDE838403D4800F033BC7A
S31508001370B0F5607FF5D13B4A4C1ED2F8FC5015F00B
S3150800138080751EBFD2F8FC3023F08073C2F8FC309B
S31508001390032C04D940F2F221314800F01CFC324AF1
S315080013A0D2F8803023F0300343EA0413C2F88030C1
S315080013B035B12C4AD2F8FC3043F08073C2F8FC30C1
S315080013C038BD4C1E012C0AD9102903D8274BCB400F
S315080013D0DB0704D440F2C721214800F0FCFB00F0EB
S315080013E00BFC00F017FC4FF48031214B1E4A19679D
S315080013F0136F23F4704343EA04331367FFF768F85F
S315080014000446FFF7DDF8C0F10201204600F0FCFBB8
S3150800141000F040F8BDE83840FFF7DCBC4C1E1F2C36
S3150800142004D940F206310E4800F0D5FB0E4AD2F830
S31508001430903023F0F85343EA0463C2F89030BFE7CC
S315080014404C1E012C04D94FF44371054800F0C3FB28
S31508001450054A136F23F4806343EA84231367AFE7CF
S31508001460001D000800ED00E000800050100101009A
S315080014700090005008B50121022000F04FF800F056
S31508001480BBFB00F0C7FB4FF48032014B1A6708BD5F
S315080014900090005008B54FF4C070FFF799FBBDE8FF
S315080014A008400449884294BF012102214FF4207064
S315080014B0FFF74ABF80F0FA02024A536B0342FCD197
S315080014C0704700BF0040095010B50C4A044613691E
S315080014D043F00403136100F0BEFB00F0BDFB084BAC
S315080014E0084AC3F8202430BF00F0B8FB00F0B5FB6B
S315080014F01CB9BDE81040FEF7EBBF10BD00ED00E0DB
S3150800150000E003500000FF0F034A0179D36E23F071
S3150800151030030B43D366704700400050F8B50446C5
S31508001520244BD3F88420D006FBD4D3F88430C3F3F5
S3150800153081139C423CD0FEF7B1FF012C05460BD126
S315080015401D4B984204D940F292711C4800F043FBA7
S315080015500121284600F058FB00F076FB4FF0007298
S31508001560174B07465A66204600F079FB4FF480630E
S31508001570104E621E93403367736E9A0103D4D6F8F1
S3150800158084309B060AD5384600F062FB022C0FD140
S315080015902846BDE8F840002100F036BBD6F884306E
S315080015A09906E9D54FF4F461044800F014FBE3E723
S315080015B0F8BD00BF00400050005A62023B1D0008FB
S315080015C00060005010B50C4608B9FEF767FF074BD8
S315080015D021461B783BB1064B984204D80120BDE84A
S315080015E01040FFF79BBF0220F9E700BF3D1000201F
S315080015F0005A620238B54FF00042244B244C5A6612
S315080016004AF6CD33656C014605F00105236428BB0F
S315080016100120FFF751FF6368DB0715D51D4B58609E
S3150800162008461D4B226BD2070CD4984208D10724D2
S3150800163015B1174B194A1A6400F012FB204638BD3B
S315080016400130EFE79842F2D00024F1E70132236B2C
S3150800165013F0080305D08A42F8D1E8E700220E49BC
S31508001660F5E78A42E3D020210A4A91620121A2F5D0
S31508001670805251600649084A886A800603D4934214
S31508001680D5D00133F8E79342DDE700BF009000505C
S31508001690004009500060095040420F003254FFFFD5
S315080016A038B54FF00042164B01465A664AF6CD3316
S315080016B0144C154A656C236443780B205B0043F091
S315080016C00103D363FFF7F8FE63688A7823F4F87397
S315080016D043EA02136360CA784B7943EA0223A3609C
S315080016E00A798B7943EA022323610878FFF782FF98
S315080016F0EB0744BF054B236400F0B2FA012038BD5E
S315080017000090005000400950004000503254FFFF3E
S3150800171070B50F28044605D940F62D61124800F029
S315080017205AFA0F244FF00042104B11495D6E03F52B
S3150800173080535A664AF6CD334E6C80200B64FFF709
S31508001740BBFE0B6A23F00F0323430B62F30744BF68
S31508001750084B0B64002DA2BF4FF00042064B5A6699
S3150800176000F07EFA70BD00BF3B1D000800800050E7
S31508001770004009503254FFFF00A0005070B51F29E1
S3150800178004460D46164603D99121064800F023FA69
S315080017902EB104F580540123AB40236070BD04F5D7
S315080017A00054F8E7761D000838B5032804460D46A8
S315080017B005D8094B33F81030CB40DB0704D440F288
S315080017C02D41064800F007FA302301225C43044BFA
S315080017D0AA401A5138BD00BF2A1E0008B11D0008CC
S315080017E040D0035038B5032804460D4605D8094BA2
S315080017F033F81030CB40DB0704D440F2FE310648FC
S3150800180000F0E9F9302301225C43044BAA401A513F
S3150800181038BD00BF2A1E0008B11D000840E003506D
S315080018202DE9F84F032807460E46144698469DF8B4
S3150800183028A09DF82C9005D8274B33F81030CB40BC
S31508001840DB0703D4BF21254800F0C5F986EA04035F
S31508001850032B03D9C121214800F0BDF9072C4FF00D
S31508001860030506F0030625D84FEA840B05FA0BF59F
S3150800187029461B4807FA0BF200F0F3F929461948DE
S3150800188006FA0BF200F0EDF9424621461648FFF734
S3150800189075FF524621461548FFF770FF0123144A83
S315080018A0A340C2F8203421464A46BDE8F84F1148FD
S315080018B0FFF764BFA4F1080B4FEA8B0B05FA0BF58B
S315080018C029460D4807FA0BF200F0CBF929460B48D2
S315080018D006FA0BF2D6E700BF2A1E0008ED1D00081F
S315080018E000C4035008C4035010C4035014C4035062
S315080018F000E0035024C4035004C403500CC403502E
S315080019002DE9F041032804460D461746984605D8A2
S315080019101D4B33F81030CB40DB0704D44FF4B071BD
S315080019201A4800F058F937B129462046B8F1000F91
S3150800193020D0FFF739FF0F21072D04EB440688BF97
S31508001940A5F108034FEA0616114895BFAB009B00A0
S3150800195004360C3607FA03F29940304400F081F950
S315080019607FB929462046B8F1000F06D0BDE8F041F8
S31508001970FFF71ABFFFF736FFDDE7BDE8F041FFF7CF
S3150800198031BFBDE8F08100BF2A1E0008ED1D000822
S3150800199030C0035007B5094B18689A889B790090A0
S315080019A06846ADF804208DF80630FFF779FE0C205E
S315080019B0FFF7AEFE002003B05DF804FB321E0008F8
S315080019C013B50024064A6846536F43F0010353676C
S315080019D000948DF80440FFF797FD204602B010BD2D
S315080019E00040005030B58BB06C46174D0FCD0FC474
S315080019F00FCD0FC495E8030084E80300134BD3F812
S31508001A004C2112031CD5A3F5FE431C884FF6FF7321
S31508001A109C4208BF64248DF81940FFF721FC204436
S31508001A2080F308008DF818000948FEF76DFD684632
S31508001A30FFF704FB3220FFF781FC00200BB030BD16
S31508001A40D3F85041E4B2E6E73C1E00080080E00FF8
S31508001A50C017530230B587B0084D01AC0FCD0FC47F
S31508001A602B6801A8236025238DF80530FFF7FEFBB8
S31508001A703220FFF75DFC002007B030BD641E000869
S31508001A8010B56FF0040350210A480B4C13F0800F71
S31508001A9003F1010207D123444C2A83F800131346A5
S31508001AA0F4D1002010BD03F00F03043B034419765C
S31508001AB01346EBE700ED00E000E100E008B5064B51
S31508001AC0044613B10021AFF30080044B1B6803B131
S31508001AD09847204600F080F80000000038100020E3
S31508001AE070B50D4D00260D4C641BA410A64209D1F5
S31508001AF00B4D00260B4C00F0E3F8641BA410A6421D
S31508001B0005D170BD55F8043B01369847EEE755F800
S31508001B10043B01369847F2E71810002018100020F9
S31508001B20181000201C1000207047704708B500F0F8
S31508001B30A7F8FFF7F9FF0422012311460020FFF753
S31508001B40DFFEFEF7B7FB0120FFF7BEFC00F0A5F8A5
S31508001B50FFF7EBFFF7E7704708B5FFF791FF00F0CF
S31508001B6022F8FFF717FFFFF775FFFFF73BFFFEF7B2
S31508001B70C5FBFFF725FFBDE8084000F00BB8704726
S31508001B8000F006B87047704770477047704770474F
S31508001B900F20704708B501213A20FEF7F1FFBDE88E
S31508001BA00840FFF7D8BF01213A20FEF7E9BFFEE754
S31508001BB010B53AB1002350F8234041F823400133C9
S31508001BC09A42F8D110BD002070474FF40040704784
S31508001BD04FF47A707047FEE7FEE770B5054614467F
S31508001BE00E4600F031F82B685C4034405C402C60AF
S31508001BF0BDE8704000F02CB808B5FEF77BFCBDE8E0
S31508001C0008400021FEF790BF0029CCBF0121002122
S31508001C10FEF78ABF02214FF42070FFF795BB10B577
S31508001C20FEF756FC0446FEF7CBFCC0F1020120463F
S31508001C30FFF7EAFF01210020FFF7C4FCFFF72AFCA3
S31508001C40BDE81040FFF7C6B8EFF3108072B67047CC
S31508001C5000B962B67047704770477047704770475B
S31508001C60704770B5054614460E46FFF7EDFF2B681C
S31508001C705C4034405C402C60BDE87040FFF7E8BF2C
S31508001C8008B5FFF769FFFFF77AFFFFF779FFFFF758
S31508001C9079FFBDE80840FFF776BF08B5FFF774FF80
S31508001CA0FFF773FFFFF772FFBDE80840FFF76FBF46
S31508001CB002440346934200D1704703F8011BF9E733
S31508001CC0F8B500BFF8BC08BC9E467047F8B500BF1B
S31508001CD0F8BC08BC9E4670470000000000000000E3
S31508001CE000000000000000000000000000000000E6
S31508001CF000000000000000000000000000000000D6
S31508001D00453A2F53696C69636F6E4C6162732F5342
S31508001D10444B73322F6765636B6F5F73646B2F7009
S31508001D206C6174666F726D2F656D6C69622F737264
S31508001D30632F656D5F636D752E6300453A2F536992
S31508001D406C69636F6E4C6162732F53444B73322F09
S31508001D506765636B6F5F73646B2F706C6174666F16
S31508001D60726D2F656D6C69622F7372632F656D5F77
S31508001D70656D752E6300653A5C73696C69636F6E91
S31508001D806C6162735C73646B73325C6765636B6FFB
S31508001D905F73646B5C706C6174666F726D5C656DA5
S31508001DA06C69625C696E635C656D5F6275732E68EB
S31508001DB000653A5C73696C69636F6E6C6162735C2B
S31508001DC073646B73325C6765636B6F5F73646B5CBC
S31508001DD0706C6174666F726D5C656D6C69625C6966
S31508001DE06E635C656D5F6770696F2E6800453A2F94
S31508001DF053696C69636F6E4C6162732F53444B73FE
S31508001E00322F6765636B6F5F73646B2F706C6174D9
S31508001E10666F726D2F656D6C69622F7372632F65BD
S31508001E206D5F6770696F2E630000FF033F00FF0355
S31508001E303F00010310010109030000000B00000028
S31508001E400C00000003000000000020200000000035
S31508001E50030000003C3C3C000000000000000000BD
S31508001E600000000001260000040000000000000039
S30D08001E7000010000000000005B
S30D08001E7888E3FF7F010000006A
S31108001E808C1E000800100020080000005E
S31508001E8CC0EA2101C0EA210100800000C0175302F4
S31508001E9CFFFFFFFF28000000DD010008B501000860
S705080003C52A
