S02B000042524434313836435F45465233324D4732345F696164635F73696E676C655F696E746572727570742E
S3150800000000000420CD080008110900080F0900089F
S31508000010110900081109000811090008110900084A
S31508000020110900081109000811090008110900083A
S31508000030110900081109000811090008110900082A
S31508000040110900081109000811090008110900081A
S31508000050110900081109000811090008110900080A
S3150800006011090008110900081109000811090008FA
S3150800007011090008110900081109000811090008EA
S3150800008011090008110900081109000811090008DA
S3150800009011090008110900081109000811090008CA
S315080000A011090008110900081109000811090008BA
S315080000B011090008110900081109000811090008AA
S315080000C0110900081109000811090008110900089A
S315080000D0110900081109000811090008110900088A
S315080000E0110900081109000811090008110900087A
S315080000F0110900081109000811090008110900086A
S3150800010011090008113E0008110900081109000824
S315080001101109000811090008110900081109000849
S315080001201109000811090008110900081109000839
S315080001301109000811090008110900081109000829
S315080001401109000811090008110900081109000819
S315080007C00348044B834202D0034B03B118477047D2
S315080007D0180000201800002000000000064B0749FA
S315080007E0C91A891048BF0131491003D0044B0BB10F
S315080007F001481847704700BF18000020180000205D
S315080008000000000010B5064C237843B9FFF7D8FF5F
S31508000810044B13B10448AFF300800123237010BDC5
S3150800082018000020000000003856000808B5054BDF
S315080008301BB105490548AFF30080BDE80840FFF73E
S31508000840CDBF00BF000000001C000020385600087D
S31508000850A3F5803A704700BF174B002B08BF134B10
S315080008609D46FFF7F5FF00218B460F461348144AAD
S31508000870121A04F07BFE0E4B002B00D098470D4B46
S31508000880002B00D098470020002104000D000D48D9
S31508000890002802D00C48AFF3008004F06FFE200059
S315080008A0290003F0F3FA04F04FFE00BF0000080029
S315080008B000000000000000000000042018000020CE
S315080008C04C000020000000000000000000F066F860
S315080008D0104C114DAC420ADA21686268A3689B0085
S315080008E0043BA2BFC858D050FAE70C34F2E70B4BCA
S315080008F00B4CA34209DA19685A6892000020043A98
S31508000900A4BF8850FBE70833F3E7FFF7A5FFFEE728
S31508000910FEE70000D4560008E0560008E056000836
S31508000920E856000880B483B000AF0346FB7197F918
S315080009300730002B0BDBFB7903F01F02074997F9F9
S3150800094007305B09012000FA02F241F8232000BFB4
S315080009500C37BD465DF8047B704700BF00E100E038
S3150800096080B483B000AF0346FB7197F90730002BBC
S315080009700CDBFB7903F01F02074997F907305B097F
S31508000980012000FA02F2603341F8232000BF0C3739
S31508000990BD465DF8047B704700E100E080B500AF16
S315080009A01D4B1E4A9A601C4BD3F888301A4A43F4EA
S315080009B07003C2F888301A4B03F580531A464FF471
S315080009C080439366174B03F500531A464FF0FF33DF
S315080009D01366144B03F500531A46134B5366134B11
S315080009E002221A60BFF34F8F00BFBFF36F8F00BF9D
S315080009F00020FFF7B5FF0B4B03F500531A464FF4DB
S31508000A004033D3600020FFF78DFF064B4FF440328A
S31508000A101A6100BF80BD00BF00ED00E000000008BD
S31508000A200080005000800044F7FF3700D0ED00E05A
S31508000A3080B400AF034B1B681846BD465DF8047BBF
S31508000A40704700BF0800002080B582B000AF0023C1
S31508000A507B600F4B1B6F03F00703032B09D0032B97
S31508000A600FD8012B09D0022B0BD1FFF7E1FF7860D5
S31508000A7008E0084B1B687B6004E0074B7B6001E0DD
S31508000A80FFE7FDE77B6818460837BD4680BD00BF0F
S31508000A900080005000000020002D310180B582B092
S31508000AA000AFFFF7D1FF7860094B1B6F1B0B03F0F4
S31508000AB00F033B603B6801337A68B2FBF3F37B6054
S31508000AC0044A7B6813607B6818460837BD4680BDB4
S31508000AD0008000500C00002080B400AF024B18467E
S31508000AE0BD465DF8047B704700B4C40480B400AF0B
S31508000AF0034B1B681846BD465DF8047B704700BF6C
S31508000B000000002080B400AF024B1846BD465DF8D1
S31508000B10047B7047002D310180B483B000AF0023F9
S31508000B207B604FF0B4439B681B0C03F01F030C2B30
S31508000B304CD801A252F823F06D0B0008CD0B000823
S31508000B40CD0B0008CD0B0008CD0B0008CD0B000817
S31508000B50A90B0008AF0B0008B50B0008CD0B000861
S31508000B60BB0B0008C10B0008C70B00084FF0B443C5
S31508000B709B6803F04073B3F1007F0ED0B3F1007F9A
S31508000B800ED8002B03D0B3F1807F03D008E0134BB7
S31508000B907B6008E0124B7B6005E0124B7B6002E04D
S31508000BA000237B6000BF12E00F4B7B600FE00F4B0A
S31508000BB07B600CE00E4B7B6009E00E4B7B6006E029
S31508000BC00D4B7B6003E00D4B7B6000E000BF7B684C
S31508000BD018460C37BD465DF8047B704700093D0092
S31508000BE080841E0040420F00405DC6000024F400C9
S31508000BF0C0EA210180BA8C010048E801005A620265
S31508000C0080B400AF4FF400431846BD465DF8047B38
S31508000C10704780B400AF4FF47A731846BD465DF846
S31508000C20047B704780B400AF034B1B681846BD466B
S31508000C305DF8047B704700BF0400002080B500AF54
S31508000C40FFF72CFF0346184680BD80B487B000AF77
S31508000C50F860B9607A607B68002B04D0FB6803F5FE
S31508000C6080537B6103E0FB6803F500537B617B6976
S31508000C700121BA6801FA02F21A6000BF1C37BD46A4
S31508000C805DF8047B704780B483B000AF7860396044
S31508000C907B681A683B6822FA03F303F001031846D7
S31508000CA00C37BD465DF8047B7047000080B500AF81
S31508000CB000BF04210448FFF7E6FF0346002BF8D1DE
S31508000CC000BF00BF80BD00BF8440005080B500AFA4
S31508000CD0FFF7ECFF044BD3F884309B0903F00303BA
S31508000CE0DBB2184680BD00BF0040005080B400AF9C
S31508000CF0054B5B6A044A43F00103536200BFBD46D5
S31508000D005DF8047B704700BF00C0075080B400AF91
S31508000D10054B5B6A044A23F00103536200BFBD46D4
S31508000D205DF8047B704700BF00C0075080B400AF71
S31508000D30064BDB6903F48033002B14BF0123002321
S31508000D40DBB21846BD465DF8047B704700000350C9
S31508000D5080B400AF034B0022DA6300BFBD465DF8DE
S31508000D60047B70470000035080B400AF044B41F683
S31508000D707132DA6300BFBD465DF8047B704700BF79
S31508000D800000035080B400AF034B5B681846BD46AD
S31508000D905DF8047B704700BF0000035080B483B041
S31508000DA000AF7860044A7B68536000BF0C37BD46C5
S31508000DB05DF8047B704700BF0000035080B485B01F
S31508000DC000AF78600023FB607B68B3F5607F21D0B5
S31508000DD07B68B3F5607F34D87B68B3F5207F29D06C
S31508000DE07B68B3F5207F2CD87B68B3F5007F19D0D4
S31508000DF07B68B3F5007F24D87B68002B03D07B681B
S31508000E00B3F5C07F1DD1134B1B6F1B0B03F00F03EC
S31508000E10FB6017E00F4BD3F880301B0903F0030380
S31508000E20FB600FE00B4BD3F890301B0E03F01F034B
S31508000E30FB6007E0074B1B6F9B0A03F00103FB608F
S31508000E4000E000BFFB68013318461437BD465DF85D
S31508000E50047B70470080005090B585B000AF78607D
S31508000E6039607B68B3F5607F4ED07B68B3F5607FE9
S31508000E7000F29F807B68B3F5207F00F08A807B684C
S31508000E80B3F5207F00F295807B68B3F5007F6ED0BE
S31508000E907B68B3F5007F00F28C807B68002B04D05A
S31508000EA07B68B3F5C07F40F084803B68012B0AD08D
S31508000EB03B68022B07D03B68042B04D03B68082B01
S31508000EC001D03B68102B01F04BFD01F0E1FC01F06D
S31508000ED0F3FA3B4B1B6F23F470423B68013B1B0341
S31508000EE0374913430B67FFF7A9FE0446FFF7EEFEE3
S31508000EF00346C3F102031946204601F049F901F0F9
S31508000F00D1FC01F0E9FA57E02E4BDB6803F0807359
S31508000F10002B14BF01230023FB73FB7B002B05D09A
S31508000F20284BDB68274A23F08073D3603B68012B84
S31508000F3007D03B68022B04D03B68032B01D03B68E3
S31508000F40042B1F4BD3F8803023F030023B68013B5B
S31508000F501B011B491343C1F88030FB7B002B2AD0A9
S31508000F60184BDB68174A43F08073D36023E03B686D
S31508000F70002B01D03B68202B114BD3F8903023F07F
S31508000F80F8523B68013B1B060D491343C1F89030E4
S31508000F9012E03B68012B01D03B68022B084B1B6F04
S31508000FA023F480623B68013B9B02054913430B67A8
S31508000FB002E000BF00E000BF00BF1437BD4690BD89
S31508000FC000800050F0ED00E080B584B000AF786096
S31508000FD00B46FB700023FB607B685B09002B0CD07B
S31508000FE07B685B09012B02D10B4BFB6005E07B6834
S31508000FF05B09022B01D1094BFB607B6803F01F03D9
S31508001000BB60FB781A46B968F868FFF71EFE00BF92
S315080010101037BD4680BD00BF648000506880005010
S3150800102090B585B000AF78600023FB600023BB60F5
S315080010307B68B3F5486F00F035837B68B3F5486F76
S3150800104000F245837B68B3F5406F00F0F3827B6856
S31508001050B3F5406F00F23B837B68B3F5286F00F069
S3150800106028837B68B3F5286F00F231837B68B3F574
S31508001070206F00F010837B68B3F5206F00F227839A
S315080010807B68B3F5106F00F0F8827B68B3F5106FD4
S3150800109000F21D837B68B3F5F06F00F011837B685F
S315080010A0B3F5F06F00F213837B68B3F5E06F00F0D9
S315080010B0EB827B68B3F5E06F00F209837B68B3F5D2
S315080010C0D06F00F0D3827B68B3F5D06F00F2FF8251
S315080010D07B68B3F5C06F00F0C2827B68B3F5C06F5A
S315080010E000F2F5827B68B3F5B06F00F0AA827B68E0
S315080010F0B3F5B06F00F2EB827B68B3F5A06F00F032
S3150800110092827B68B3F5A06F00F2E1827B68B3F543
S31508001110806F00F081827B68B3F5806F00F2D7821A
S315080011207B68B3F5607F00F067827B68B3F5607F04
S3150800113000F2CD827B68B3F5407F00F050827B6871
S31508001140B3F5407F00F2C3827B68B3F5207F00F0D9
S315080011503A827B68B3F5207F00F2B9827B68B3F5E3
S31508001160007F00F024827B68B3F5007F00F2AF822F
S315080011707B68B3F5807F00F20B827B68B3F5807FCE
S3150800118000F2A58201A252F823F000BFA5150008B7
S31508001190CF160008CF160008CF160008CF1600088D
S315080011A0CF160008CF160008CF160008CF1600087D
S315080011B0CF160008CF160008CF160008CF1600086D
S315080011C0CF160008CF160008CF160008CF1600085D
S315080011D0CF160008CF160008CF160008CF1600084D
S315080011E0CF160008CF160008CF160008CF1600083D
S315080011F0CF160008CF160008CF160008CF1600082D
S31508001200CF160008CF160008CF160008A515000847
S31508001210C7150008A5150008C715000819160008FF
S3150800122019160008191600081916000819160008D4
S31508001230C715000843160008DF1500085F160008E2
S315080012406D160008DF150008C7150008C715000841
S31508001250C7150008CF160008CF160008CF160008D5
S31508001260CF160008CF160008CF160008CF160008BC
S31508001270CF160008C7150008C7150008C7150008C7
S31508001280C116000889160008C7150008CF160008F9
S31508001290CF160008CF160008CF160008CF1600088C
S315080012A0CF160008CF160008CF160008CF1600087C
S315080012B0CF160008CF160008CF160008CF1600086C
S315080012C019160008A5150008A5150008A515000893
S315080012D07B160008DF150008DF15000897160008BA
S315080012E0B31600082716000835160008CF1600089A
S315080012F0CF160008CF160008CF160008CF1600082C
S31508001300A5160008A5150008CF160008CF16000870
S31508001310CF160008CF160008CF160008CF1600080B
S31508001320CF160008CF160008CF160008CF160008FB
S31508001330CF160008CF160008CF160008CF160008EB
S31508001340CF160008CF160008CF160008CF160008DB
S31508001350CF160008CF160008CF160008CF160008CB
S31508001360CF160008CF160008CF160008CF160008BB
S31508001370CF160008CF160008CF160008CF160008AB
S31508001380CF160008CF160008CF1600089B150008D0
S31508001390CF160008CF160008CF160008CF1600088B
S315080013A0CF160008CF160008CF160008CF1600087B
S315080013B0CF160008CF160008CF160008CF1600086B
S315080013C0CF160008CF160008CF160008CF1600085B
S315080013D0CF160008CF160008CF160008CF1600084B
S315080013E0CF160008CF160008CF160008CF1600083B
S315080013F0CF160008CF160008CF160008CF1600082B
S31508001400CF160008CF160008CF160008CF1600081A
S31508001410CF160008CF160008CF160008CF1600080A
S31508001420CF160008CF160008CF160008CF160008FA
S31508001430CF160008CF160008CF160008CF160008EA
S31508001440CF160008CF160008CF160008CF160008DA
S31508001450CF160008CF160008CF160008CF160008CA
S31508001460CF160008CF160008CF160008CF160008BA
S31508001470CF160008CF160008CF160008CF160008AA
S31508001480CF160008CF160008CF160008CF1600089A
S31508001490CF160008CF160008CF160008CF1600088A
S315080014A0CF160008CF160008CF160008CF1600087A
S315080014B0CF160008CF160008CF160008CF1600086A
S315080014C0CF160008CF160008CF160008CF1600085A
S315080014D0CF160008CF160008CF160008CF1600084A
S315080014E0CF160008CF160008CF160008CF1600083A
S315080014F0CF160008CF160008CF160008CF1600082A
S31508001500CF160008CF160008CF160008CF16000819
S31508001510CF160008CF160008CF160008CF16000809
S31508001520CF160008CF160008CF160008CF160008F9
S31508001530CF160008CF160008CF160008CF160008E9
S31508001540CF160008CF160008CF160008CF160008D9
S31508001550CF160008CF160008CF160008CF160008C9
S31508001560CF160008CF160008CF160008CF160008B9
S31508001570CF160008CF160008CF160008CF160008A9
S31508001580CF160008CF160008CF1600085116000817
S315080015907B68B3F5C07F05D099E0FFF755FA034697
S315080015A0FB6095E0FFF77AFA0346FB6090E0FFF7E9
S315080015B04BFA04464FF40070FFF700FC0346B4FBF1
S315080015C0F3F3FB6084E0FFF769FA04464FF42070F2
S315080015D0FFF7F4FB0346B4FBF3F3FB6078E0FFF791
S315080015E05DFA04464FF42070FFF7E8FB0346B4FBA8
S315080015F0F3F35B08FB606BE007F10803002118466C
S3150800160000F080FFBC684FF46070FFF7D7FB034615
S31508001610B4FBF3F3FB605BE007F10C03002118460B
S3150800162000F0ACFF54E007F10C030021184600F067
S31508001630C5FD4DE007F10C030021184600F010FE29
S3150800164046E007F10C030021184601F0DFF83FE0F9
S3150800165007F10C030021184601F02AFA38E007F1D1
S315080016600C030021184600F0E5FF31E007F10C03F2
S315080016700021184601F080F92AE007F10C03002141
S31508001680184601F0C7F923E007F10C0300211846B4
S3150800169001F022F91CE007F10C030021184600F0BE
S315080016A037FE15E007F10C030021184600F080FE0E
S315080016B00EE007F10C030021184600F0C9FE07E00A
S315080016C007F10C030021184600F0F8FF00E000BF00
S315080016D0FB6818461437BD4690BD00BF90B585B067
S315080016E000AF786039600023FB600023FB7200239B
S315080016F0BB727B68B3F5486F00F0E6847B68B3F588
S31508001700486F00F239857B68B3F5406F00F02F8487
S315080017107B68B3F5406F00F22F857B68B3F5286FB9
S3150800172000F012857B68B3F5286F00F225857B6883
S31508001730B3F5206F00F088847B68B3F5206F00F25C
S315080017401B857B68B3F5106F00F01B837B68B3F5C8
S31508001750106F00F211857B68B3F5086F00F05183AE
S315080017607B68B3F5086F00F207857B68B3F5F06F01
S3150800177000F088827B68B3F5F06F00F2FD847B6821
S31508001780B3F5E06F00F028847B68B3F5E06F00F2EC
S31508001790F3847B68B3F5D06F00F0B2827B68B3F54B
S315080017A0D06F00F2E9847B68B3F5C06F00F032822F
S315080017B07B68B3F5C06F00F2DF847B68B3F5B06F62
S315080017C000F06F817B68B3F5B06F00F2D5847B6853
S315080017D0B3F5A06F00F084837B68B3F5A06F00F2C1
S315080017E0CB847B68B3F5806F00F07D817B68B3F5A9
S315080017F0806F00F2C1847B68B3F5607F00F03283A6
S315080018007B68B3F5607F00F2B7847B68802B00F2B3
S31508001810C7807B68242BC0F0AF847B68243B5C2B95
S3150800182000F2AA8401A252F823F000BFE71A0008C2
S31508001830E71A0008E71A0008E71A0008E71A000876
S3150800184079210008A31A000879210008151C000848
S31508001850011D00087921000879210008792100086E
S3150800186079210008792100087921000879210008E2
S3150800187079210008792100087921000879210008D2
S3150800188079210008792100087921000879210008C2
S31508001890851C0008D91F000879210008792100084D
S315080018A079210008792100087921000879210008A2
S315080018B07921000879210008792100087921000892
S315080018C07921000879210008792100087921000882
S315080018D0E71A00087921000879210008792100080B
S315080018E0831D00087921000879210008492000088D
S315080018F049210008E11E00086F1F00087921000829
S315080019007921000879210008792100087921000841
S31508001910C9200008792100087921000879210008E2
S315080019207921000879210008792100087921000821
S315080019307921000879210008792100087921000811
S315080019407921000879210008792100087921000801
S3150800195079210008792100087921000879210008F1
S3150800196079210008792100087921000879210008E1
S3150800197079210008792100087921000879210008D1
S3150800198079210008792100087921000879210008C1
S31508001990792100087921000879210008AD19000885
S315080019A07B68B3F5807F00F0D480E5E33B68023BB3
S315080019B0062B34D801A252F823F000BF191A0008E2
S315080019C0DF1900081F1A0008D91900081F1A00088D
S315080019D01F1A0008131A00080223FB6020E00323DD
S315080019E0FB60B84B03F580531A464FF480135366D1
S315080019F0B54B9B6A03F08073002B14BF01230023A9
S31508001A00FB72B14B03F580531A464FF48033936249
S31508001A1006E00423FB6003E00123FB6000E000BF4F
S31508001A200121022001F06CF900F09AFF00F030FF66
S31508001A3000F042FDA34B1B6F23F00702A149FB6888
S31508001A4013430B67FFF7FAF80446FFF73FF9034617
S31508001A50C3F102031946204600F09AFB0121002033
S31508001A6001F022F900F01EFF00F036FDFB7A83F044
S31508001A700103DBB2002B00F081833B68032B0ED1F8
S31508001A80914B03F500531A464FF48033936200BF17
S31508001A908D4B9B6D03F08043002BF9D100E000BF0E
S31508001AA06CE33B68102B09D03B68102B0FD83B68BA
S31508001AB0022B09D03B68072B03D008E00123FB6003
S31508001AC006E00323FB6003E00223FB6000E000BF9F
S31508001AD07C4BD3F8803123F003027A49FB68134321
S31508001AE0C1F880314DE33B68013B062B25D801A29E
S31508001AF052F823F0291B0008231B0008171B0008AF
S31508001B00351B0008111B00082F1B00081D1B0008A9
S31508001B100123FB6012E00223FB600FE00423FB6055
S31508001B200CE00323FB6009E00023FB6006E00523C5
S31508001B30FB6003E00623FB6000E000BF614BD3F8BF
S31508001B40203123F007025F49FB681343C1F82031AF
S31508001B5017E33B68093B082B5AD801A252F823F031
S31508001B60851B0008851B0008111C0008851B00083A
S31508001B70CB1B0008111C0008111C0008111C0008CA
S31508001B80851B00084F4B5B6E03F48033002B0CBF9C
S31508001B9001230023BB724B4B03F580531A464FF4BF
S31508001BA080335366FFF7A2F8BB7A002B06D0454B65
S31508001BB003F500531A464FF480335366434B1B68AC
S31508001BC0424A23F00403136023E03E4B5B6E03F4A2
S31508001BD08033002B0CBF01230023BB72394B03F55E
S31508001BE080531A464FF480335366FFF78FF8BB7A53
S31508001BF0002B06D0334B03F500531A464FF48033B7
S31508001C005366324B1B68314A43F00403136000E005
S31508001C1000BFB6E23B68013B0B2B27D801A252F85E
S31508001C2023F000BF671C00086D1C00086D1C000827
S31508001C306D1C00086D1C00086D1C00086D1C000852
S31508001C406D1C00085B1C0008551C0008551C000884
S31508001C50611C00080123FB6009E00223FB6006E023
S31508001C600323FB6003E00023FB6000E000BF154B85
S31508001C70D3F8403123F003021249FB681343C1F835
S31508001C8040317EE23B68013B0B2B2DD801A252F86E
S31508001C9023F000BFE31C0008E91C0008E91C000843
S31508001CA0E91C0008E91C0008E91C0008E91C0008F2
S31508001CB0E91C0008D71C0008D11C0008D11C000824
S31508001CC0DD1C0008008000500040005A10E000E0CB
S31508001CD00123FB6009E00223FB6006E00323FB60A7
S31508001CE003E00023FB6000E000BFB34BD3F860318C
S31508001CF023F00302B049FB681343C1F8603140E2A0
S31508001D003B68013B0E2B30D801A252F823F000BFE6
S31508001D10651D00086B1D00086B1D00086B1D00087B
S31508001D206B1D00086B1D00086B1D00086B1D000865
S31508001D30531D00084D1D00084D1D0008591D0008BB
S31508001D406B1D00086B1D00085F1D00080123FB6062
S31508001D500CE00223FB6009E00323FB6006E0042392
S31508001D60FB6003E00023FB6000E000BF924BD3F862
S31508001D70003223F007029049FB681343C1F800328A
S31508001D80FFE13B68013B0E2B2FD801A252F823F046
S31508001D90E51D0008EB1D0008EB1D0008EB1D0008FB
S31508001DA0EB1D0008EB1D0008EB1D0008EB1D0008E5
S31508001DB0D31D0008CD1D0008CD1D0008D91D00083B
S31508001DC0EB1D0008EB1D0008DF1D00080123FB6062
S31508001DD00CE00223FB6009E00323FB6006E0042312
S31508001DE0FB6003E00023FB6000E000BF724BD3F802
S31508001DF0083223F007027049FB681343C1F808321A
S31508001E00BFE13B68013B082B20D801A252F823F01A
S31508001E10471E00084D1E0008351E00084D1E000806
S31508001E204D1E00084D1E00084D1E0008411E0008E4
S31508001E303B1E00080123FB6009E00223FB6006E065
S31508001E400323FB6003E00023FB6000E000BF5A4B5E
S31508001E50D3F8003123F003025749FB681343C1F84E
S31508001E6000318EE1554BDB6803F08073002B14BFFD
S31508001E70012300237B727B7A002B05D04F4BDB684E
S31508001E804E4A23F08073D3603B680E2B09D03B681B
S31508001E900E2B0FD83B68062B06D03B68072B06D0BF
S31508001EA008E00123FB6006E00323FB6003E002234E
S31508001EB0FB6000E000BF404BD3F8803023F00302FC
S31508001EC03D49FB681343C1F880307B7A002B00F04C
S31508001ED057813A4BDB68394A43F08073D3604FE148
S31508001EE03B68013B112B36D801A252F823F000BFFC
S31508001EF0511F0008571F0008571F0008571F0008E2
S31508001F00571F0008571F00083F1F0008571F0008E3
S31508001F104B1F0008451F0008451F0008571F0008EB
S31508001F20571F0008571F0008571F0008571F0008AB
S31508001F30571F0008391F00080123FB600CE0022325
S31508001F40FB6009E00323FB6006E00423FB6003E073
S31508001F500023FB6000E000BF174BD3F8203223F0C4
S31508001F6007021549FB681343C1F8203209E13B68AB
S31508001F70023B052B24D801A252F823F0A71F00081C
S31508001F80AD1F0008B31F0008951F00089B1F000817
S31508001F90A11F00080123FB6013E00523FB6010E086
S31508001FA00423FB600DE00323FB600AE00223FB60C9
S31508001FB007E00623FB6004E000800050F0ED00E037
S31508001FC000BF724BD3F8283123F007026F49FB682C
S31508001FD01343C1F82831D4E03B68013B0B2B27D8C3
S31508001FE001A252F823F000BF2B2000083120000878
S31508001FF0312000083120000831200008312000086F
S3150800200031200008312000081F2000081920000888
S3150800201019200008252000080123FB6009E0022397
S31508002020FB6006E00323FB6003E00023FB6000E09F
S3150800203000BF564BD3F8403223F003025349FB68DE
S315080020401343C1F840329CE03B68023B0F2B2FD864
S3150800205001A252F823F000BF99200008B120000819
S31508002060B1200008B1200008B12000089F20000810
S31508002070B1200008B1200008B1200008B1200008EE
S31508002080B1200008B1200008B1200008B1200008DE
S31508002090A5200008AB2000080323FB6009E0042301
S315080020A0FB6006E00123FB6003E00223FB6000E01F
S315080020B000BF364BD3F8603223F007023349FB687A
S315080020C01343C1F860325CE03B68023B0F2B2FD804
S315080020D001A252F823F000BF192100083121000897
S315080020E03121000831210008312100081F2100088C
S315080020F0312100083121000831210008312100086A
S315080021003121000831210008312100083121000859
S31508002110252100082B2100080323FB6009E004237E
S31508002120FB6006E00123FB6003E00223FB6000E09E
S3150800213000BF164BD3F8943223F007021349FB6805
S315080021401343C1F894321CE03B68112B03D03B685B
S31508002150152B03D005E00123FB6002E00223FB6098
S3150800216000BF0A4BD3F8703223F003020749FB6815
S315080021701343C1F8703204E000BF02E000BF00E07C
S3150800218000BF00BF1437BD4690BD00BF0080005099
S3150800219080B582B000AF786039603B68002B04DDFB
S315080021A00121786800F0FCFA03E00021786800F065
S315080021B0F7FA00BF0837BD4680BD000080B584B079
S315080021C000AF786039600023BB60244BD3F8203217
S315080021D003F00703042B2ED801A252F823F000BF00
S315080021E031220008F52100080722000815220008F8
S315080021F02322000807F108030021184600F030F8EA
S315080022001223FB601AE0FEF787FC0346BB60072330
S31508002210FB6013E0FEF7F4FC0346BB600A23FB6091
S315080022200CE0FEF7FFFC0346BB600923FB6005E0F4
S315080022300123FB6002E00023FB6000BF7B68002BE4
S3150800224002D0BA687B681A603B68002B02D03B68EC
S31508002250FA681A6000BF1037BD4680BD008000507E
S3150800226080B584B000AF786039600023FB60274BE7
S31508002270D3F8283103F00703013B052B32D801A216
S3150800228052F823F09D220008C1220008D92200082E
S31508002290B5220008A9220008CD220008FEF7C8FBCF
S315080022A0F8600523BB6020E0FEF7C2FBF860062352
S315080022B0BB601AE0FEF730FCF8600723BB6014E049
S315080022C0FEF714FCF8600323BB600EE0FEF70EFC75
S315080022D0F8600423BB6008E0FEF714FCF8600223EC
S315080022E0BB6002E00023BB6000BF7B68002B02D006
S315080022F07B68FA681A603B68002B02D03B68BA68AC
S315080023001A6000BF1037BD4680BD00BF0080005070
S3150800231080B584B000AF786039600023BB60234B7A
S31508002320D3F8603203F00703013B032B2AD801A236
S3150800233052F823F04523000857230008772300089E
S315080023406923000807F108030021184600F016F96A
S315080023501023FB6019E007F108030021184600F076
S3150800236069F91123FB6010E0FEF7D6FB0346BB6054
S315080023700723FB6009E0FEF7C5FB0346BB600223A3
S31508002380FB6002E00023FB6000BF7B68002B02D0E5
S31508002390BA687B681A603B68002B02D03B68FA680B
S315080023A01A6000BF1037BD4680BD00BF00800050D0
S315080023B080B584B000AF786039600023BB60234BDA
S315080023C0D3F8943203F00703013B032B2AD801A262
S315080023D052F823F0E5230008F7230008172400081D
S315080023E00924000807F108030021184600F0C6F87A
S315080023F01023FB6019E007F108030021184600F0D6
S3150800240019F91123FB6010E0FEF786FB0346BB6053
S315080024100723FB6009E0FEF775FB0346BB60022352
S31508002420FB6002E00023FB6000BF7B68002B02D044
S31508002430BA687B681A603B68002B02D03B68FA686A
S315080024401A6000BF1037BD4680BD00BF008000502F
S3150800245080B584B000AF786039600023BB60154B47
S31508002460D3F8703203F00303012B02D0022B09D0F4
S315080024700DE007F108030021184600F0DBF81123E8
S31508002480FB6007E00023BB601523FB6002E0002326
S31508002490FB6000BF7B68002B02D0BA687B681A60B5
S315080024A03B68002B02D03B68FA681A6000BF1037F9
S315080024B0BD4680BD0080005080B400AF054B03F5D3
S315080024C080531A464FF48033136700BFBD465DF844
S315080024D0047B70470080005080B500AF8020FEF76F
S315080024E09FFD0346054A934206D8054B03F500535C
S315080024F01A464FF48033136700BF80BD005A620244
S315080025000080005080B584B000AF78603960002341
S31508002510FB60194BD3F8803003F00303032B12D06A
S31508002520032B16D8012B02D0022B06D011E0FEF79A
S315080025308BFAF8600E23BB600EE0FEF7EDFAF86042
S315080025400723BB6008E0FEF773FAF8600623BB6052
S3150800255002E00023BB6000BF7B68002B02D07B68CB
S31508002560FA681A603B68002B02D03B68BA681A60A2
S3150800257000BF1037BD4680BD0080005080B584B0CE
S3150800258000AF786039600023FB60294BD3F820310F
S3150800259003F00703062B38D801A252F823F000BF30
S315080025A0ED250008BD250008C9250008E125000815
S315080025B0D5250008F3250008FF250008FEF738FA98
S315080025C0F8600523BB6023E0FEF790FAF860032362
S315080025D0BB601DE0FEF7A0FAF8600723BB6017E0B2
S315080025E0FEF790FAF8600223BB6011E00123BB6096
S315080025F00EE0FEF71DFAF8600623BB6008E0FEF75A
S3150800260075FAF8600423BB6002E00023BB6000BFD4
S315080026107B68002B02D07B68FA681A603B68002B3F
S3150800262002D03B68BA681A6000BF1037BD4680BD45
S315080026300080005080B584B000AF78603960002310
S31508002640FB601D4BD3F8403103F00303032B20D85E
S3150800265001A252F823F000BF8D260008692600085B
S315080026607526000881260008FEF7CAFAF8600A23CC
S31508002670BB6011E0FEF7D6FAF8600923BB600BE0F1
S31508002680FEF7C7FAF8600C23BB6005E00123BB60C0
S3150800269002E00023BB6000BF7B68002B02D07B688A
S315080026A0FA681A603B68002B02D03B68BA681A6061
S315080026B000BF1037BD4680BD0080005080B584B08D
S315080026C000AF786039600023FB601D4BD3F860319A
S315080026D003F00303032B20D801A252F823F000BF0E
S315080026E015270008F1260008FD2600080927000816
S315080026F0FEF786FAF8600A23BB6011E0FEF792FA45
S31508002700F8600923BB600BE0FEF783FAF8600C2338
S31508002710BB6005E00123BB6002E00023BB6000BF8D
S315080027207B68002B02D07B68FA681A603B68002B2E
S3150800273002D03B68BA681A6000BF1037BD4680BD34
S315080027400080005080B485B000AF786039604FF4DF
S315080027504013FB603B68002B0AD17B680E4A934204
S3150800276003D94FF48013FB600FE00023FB600CE0F5
S315080027703B68002B09DD7B68084A934203D94FF46E
S315080027808013FB6001E00023FB60FB6818461437E2
S31508002790BD465DF8047B7047005A6202002D310180
S315080027A080B584B000AF78603960174B03F5805365
S315080027B01A464FF4803393660020FEF7FFFA024666
S315080027C07B6802FB03F37B60FEF7B0FA0346FB73F4
S315080027D0FEF7CAFAFEF7D6FA034623F44013BB609F
S315080027E039687868FFF7AEFF0246BB681343BB60DB
S315080027F0B868FEF7D3FAFB7B002B01D0FEF7A8FAE0
S3150800280000BF1037BD4680BD0080005080B584B03B
S3150800281000AF786039600023BB601C4BD3F8803169
S3150800282003F00303032B0FD0032B1BD8012B02D075
S31508002830022B10D016E007F1080300211846FFF70F
S315080028409DFE1023FB6010E0FEF766F90346BB60A9
S315080028500723FB6009E0FEF755F90346BB60022330
S31508002860FB6002E00023FB6000BF7B68002B02D000
S31508002870BA687B681A603B68002B02D03B68FA6826
S315080028801A6000BF1037BD4680BD00BF00800050EB
S3150800289080B500AF02214FF42070FEF7DDFA00BFC5
S315080028A080BD000080B582B000AF02237B604FF484
S315080028B0C070FEF7B5FB0346064A934201D80123CA
S315080028C07B6079684FF42070FEF7C6FA00BF0837B8
S315080028D0BD4680BD80F0FA0280B584B000AF78604E
S315080028E039600023FB601D4BD3F8403203F0030325
S315080028F0032B20D801A252F823F000BF3129000883
S315080029000D2900081929000825290008FEF778F975
S31508002910F8600A23BB6011E0FEF784F9F860092322
S31508002920BB600BE0FEF775F9F8600C23BB6005E0A9
S315080029300123BB6002E00023BB6000BF7B68002B5D
S3150800294002D07B68FA681A603B68002B02D03B68A5
S31508002950BA681A6000BF1037BD4680BD00800050B7
S3150800296080B500AFFEF7B8F8034600211846FFF712
S3150800297017FF00BF80BD000080B584B000AF786047
S3150800298039600023FB60224BD3F8003203F00703BB
S31508002990042B2AD801A252F823F000BFE529000823
S315080029A0B1290008BD290008C9290008D529000849
S315080029B0FEF726F9F8600A23BB6019E0FEF732F93C
S315080029C0F8600923BB6013E0FEF723F9F8600C23CF
S315080029D0BB600DE0FEF762F803469B0AFB600F2317
S315080029E0BB6005E00123BB6002E00023BB6000BFBB
S315080029F07B68002B02D07B68FA681A603B68002B5C
S31508002A0002D03B68BA681A6000BF1037BD4680BD61
S31508002A100080005080B584B000AF7860396000232C
S31508002A20FB60224BD3F8083203F00703042B2AD89D
S31508002A3001A252F823F000BF812A00084D2A000897
S31508002A40592A0008652A0008712A0008FEF7D8F8EE
S31508002A50F8600A23BB6019E0FEF7E4F8F86009237A
S31508002A60BB6013E0FEF7D5F8F8600C23BB600DE0F9
S31508002A70FEF714F803469B0AFB600F23BB6005E0CC
S31508002A800123BB6002E00023BB6000BF7B68002B0C
S31508002A9002D07B68FA681A603B68002B02D03B6854
S31508002AA0BA681A6000BF1037BD4680BD0080005066
S31508002AB080B584B000AF786039600023FB60124BA4
S31508002AC01B6803F00403002B06D0FDF7E7FF034657
S31508002AD0FB600D23BB6007E007F1080207F10C0352
S31508002AE011461846FFF7A6FD7B68002B02D0FA6848
S31508002AF07B681A603B68002B02D0BA683B681A608C
S31508002B0000BF1037BD4680BD10E000E080B483B03A
S31508002B1000AFEFF310833B603B687B6072B600BF83
S31508002B207B6818460C37BD465DF8047B704780B451
S31508002B3083B000AF78607B68002B01D162B600BF16
S31508002B4000BF0C37BD465DF8047B704780B500AF03
S31508002B50FDF7A4FF00BF80BD80B483B000AF7860E6
S31508002B6039607B681A683B6822FA03F303F00103AD
S31508002B7018460C37BD465DF8047B704780B500AF34
S31508002B8000BF04210448FFF7E7FF0346002BF8D1EE
S31508002B9000BF00BF80BD00BF8440005080B500AFB5
S31508002BA0FFF7ECFF044BD3F884309B0903F00303CB
S31508002BB0DBB2184680BD00BF0040005080B483B029
S31508002BC000AF7860064B03F500531A467B68C2F8D7
S31508002BD0203400BF0C37BD465DF8047B704700BF44
S31508002BE000C0035080B483B000AF0346FB71FB7985
S31508002BF0013B4FF4806202FA03F318460C37BD46D0
S31508002C005DF8047B704780B400AF00BFBD465DF831
S31508002C10047B704780B400AF00BFBD465DF8047BF7
S31508002C20704780B400AF00BFBD465DF8047B7047AF
S31508002C3080B400AF00BFBD465DF8047B7047000056
S31508002C4080B582B000AF0346FB710F4B1B690E4A75
S31508002C5043F004031361FFF7D6FFFFF7DBFF0B48CA
S31508002C60FFF7ACFF30BFFFF7E3FFFFF7DAFFFB79AB
S31508002C7083F00103DBB2002B01D0FFF767FF00BF2B
S31508002C800837BD4680BD00BF00ED00E00000FF0F1D
S31508002C9080B483B000AF0346FB7100BF0C37BD4656
S31508002CA05DF8047B7047000080B584B000AF78609B
S31508002CB00B46FB707B68002B03D1FDF7C5FEF86059
S31508002CC001E07B68FB600C4B1B78002B09D0FB6886
S31508002CD00A4A934205D8FB781946012000F010F8F5
S31508002CE005E0FB781946022000F00AF800BF00BF8D
S31508002CF01037BD4680BD00BF34000020005A62026E
S31508002D0090B587B000AF03460A46FB711346BB7100
S31508002D10FFF744FF03461A46FB7993423CD0FDF77A
S31508002D2093FE78617B693B61FB79012B03D1012115
S31508002D307869FFF72DFAFFF7E9FEF860184B03F5F7
S31508002D4000531A464FF000735366FB791846FFF78F
S31508002D509FFF134CFB791846FFF744FF034623678A
S31508002D6002E00F4BD3F884300D4B5B6E03F0007313
S31508002D70002B06D10A4BD3F8843003F02003002B2E
S31508002D80EFD0F868FFF7D3FEFB79022B05D10021B7
S31508002D907869FFF7FDF900E000BF1C37BD4690BD16
S31508002DA00040005080B483B000AF786039607B681B
S31508002DB03A68DA6000BF0C37BD465DF8047B704799
S31508002DC080B483B000AF786000BF7B685B6903F0AE
S31508002DD08073002BF9D17B6803F500531A4601234B
S31508002DE0536000BF064B5B6803F00203002BF9D162
S31508002DF000BF00BF0C37BD465DF8047B704700BFB7
S31508002E000040005980B483B000AF78607B6803F552
S31508002E1080531A460123536000BF0C37BD465DF840
S31508002E20047B704780B487B000AFF860B96013467A
S31508002E30FB71FB79022B02DC002B04DA1EE0033B54
S31508002E40022B1BD812E0BB6823F07F43BA6802F452
S31508002E500002002A02D04FF07F4200E0002213430E
S31508002E603B61BB681B0EDBB23B7508E0BB6823F011
S31508002E70FF033B61BB68DBB23B7500E000BFFB6844
S31508002E801A4607F1100393E8030082E80300F8687E
S31508002E901C37BD465DF8047B70470000B0B5A4B08A
S31508002EA002AFF860B9607A604FF00003BB66BD4BAD
S31508002EB007F114041D460FCD0FC495E8030084E8F6
S31508002EC003000022B849F86800F09CFD034687F81D
S31508002ED07F30BB685B79A7F8663097F87F309BB27E
S31508002EE0B7F866209A4203D3B7F8663087F87F307A
S31508002EF0F868FFF765FFBB681B7987F87E3097F897
S31508002F007E30002B14D12A20FEF78AF878677B6F6B
S31508002F10A54A934205D397F87F307A6FB2FBF3F34D
S31508002F207B67796FF86800F027FD034687F87E30DF
S31508002F30BB68DB781B0103F0300297F87E301B0470
S31508002F4003F4FE031A4397F87F301B0703F0E043A8
S31508002F501343C7F88430BB681B78002B05D0D7F815
S31508002F60843043F00203C7F88430BB685B78002BD3
S31508002F7005D0D7F8843043F00403C7F88430BB681B
S31508002F809B78002B05D0D7F8843043F00803C7F8A0
S31508002F908430FB68D7F884209A60BB68DB881A46B9
S31508002FA0FB681A61BB681B891B04BA6852891A43F5
S31508002FB0FB681A620023C7F8803000F02DBC7968D8
S31508002FC0D7F8802013469B0013449B000B441B78BC
S31508002FD087F865307968D7F8802013469B00134434
S31508002FE09B000B4408331B68A7F8663097F86530D2
S31508002FF0002B07D097F86530012B01D16B4902E009
S315080030006B4900E06B4997F8652097F87F30009385
S3150800301013460022F86800F027FD38663B6EFB650C
S31508003020B7F86630A7F85A30B7F85A20FB6D9342BE
S3150800303038BF13463B66FA68D7F880301B0113443D
S3150800304048331A685C4B1340C7F8843097F86530E4
S3150800305003F00302D7F8843042EA03017868D7F808
S31508003060802013469B0013449B00034401331B78BE
S315080030709B0003F01C0319437868D7F88020134691
S315080030809B0013449B00034402331B785B01DBB2AD
S3150800309019437868D7F8802013469B0013449B0091
S315080030A0034403331B781B0303F4E043194378688E
S315080030B0D7F8802013469B0013449B00034404332F
S315080030C01B781B0403F4E02319437868D7F880209B
S315080030D013469B0013449B00034410331B785B057F
S315080030E003F4600319437868D7F8802013469B00D9
S315080030F013449B00034405331B781B0703F0405316
S3150800310041EA0302F968D7F880301B010B444833BB
S315080031101A60FA68D7F880301B01134448331B68D5
S315080031201B0B03F007037B657B6D013B042B27D83C
S3150800313001A252F823F000BF4D3100084D310008B6
S315080031405931000867310008733100081B4BD3F862
S315080031508031A7F87C3019E0184BD3F880311B0C66
S31508003160A7F87C3012E0154BD3F88431A7F87C30E9
S315080031700CE0124BD3F884311B0CA7F87C3005E021
S315080031800E4BD3F88031A7F87C3000BF97F865302E
S31508003190012B02DC002B13DA2EE3022B00F0CB8185
S315080031A02AE300BFF8550008005A6202002D3101D3
S315080031B0404B4C0080969800008F18CF0080E00F97
S315080031C04FF000033B677B6D032B1BD197F86530E7
S315080031D0002B0BD1CA4BD3F88C311B0C1BB207EE54
S315080031E0903AF8EEE77AC7ED1C7A52E0C44BD3F86A
S315080031F094311B0C1BB207EE903AF8EEE77AC7ED4E
S315080032001C7A46E07B6D042B1DD197F86530002BA0
S315080032100CD1BB4BD3F88C311B0C1BB25B0007EEF1
S31508003220903AF8EEE77AC7ED1C7A32E0B44BD3F859
S3150800323094311B0C1BB25B0007EE903AF8EEE77A66
S31508003240C7ED1C7A25E07B6D052B22D197F86530F2
S31508003250002B0FD1AA4BD3F88C311B0C1BB21A4684
S3150800326013465B00134407EE903AF8EEE77AC7ED8B
S315080032701C7A0EE0A24BD3F894311B0C1BB21A46EB
S3150800328013465B00134407EE903AF8EEE77AC7ED6B
S315080032901C7AB7F87C2049F6FF731340C7F88430C8
S315080032A0D7F884309B04FB66D7F8843003F40043D0
S315080032B0002B03D0FB6E43F00043FB66FA68D7F891
S315080032C080301B01134448331B689B0803F007032F
S315080032D00133012202FA03F33B633B6B022B21D134
S315080032E097F86530002B0ED1854BD3F88C311BB27D
S315080032F007EE903AF8EEE77A97ED1C7A77EE277A9A
S31508003300C7ED1C7A50E07E4BD3F894311BB207EE1A
S31508003310903AF8EEE77A97ED1C7A77EE277AC7EDBA
S315080033201C7A41E097F86530002B0ED1744BD3F820
S3150800333090311BB207EE903AB8EEE77AD7ED1C7AD1
S3150800334077EE677AC7ED1C7A11E06D4BD3F89831A2
S315080033501BB207EE903AB8EEE77AD7ED1C7A77EE0D
S31508003360677A97ED1C7A77EE277AC7ED1C7A3B6B5E
S3150800337007EE903AF8EEE77AF0EE006A87EEA67A5C
S31508003380D7ED1C6AC6EE877AC7ED1C7A5C4BD3F874
S3150800339088311BB207EE903AF8EEE77A97ED1C7A79
S315080033A077EE277AC7ED1C7A7968D7F88020134616
S315080033B09B0013449B000B4404331B78002B1FD13E
S315080033C07968D7F8802013469B0013449B000B446A
S315080033D004331B78184600F0B5FB07EE900AF8EEA2
S315080033E0677ADFED4C6A87EEA67AF7EE046AC6EED0
S315080033F0877A97ED1C7A67EE277AC7ED1C7A1BE069
S315080034007968D7F8802013469B0013449B000B4429
S315080034100C331B6807EE903AF8EE677ADFED3D6AE3
S3150800342087EEA67AF7EE046AC6EE877A97ED1C7AD7
S3150800343067EE277AC7ED1C7AD7ED1C7AB1EE007ACB
S3150800344027EE877A3B6B07EE903AF8EEE76A9FED30
S315080034502D6AC6EE267ADFED2C6A67EEA67A77EE37
S31508003460277AC7ED1C7AFB6EB3F1004F17D0B7F871
S315080034707C3007EE903AF8EEE77ADFED246A87EEBD
S31508003480A67AD7ED1C7ADFED226A77EEA67A67EE82
S31508003490277A9FED1F7A77EEC77AC7ED1C7AD7EDA4
S315080034A01C7AF5EEC07AF1EE10FA0ADDD7ED1C7A31
S315080034B0F1EE677AB6EE007A77EEC77AFDEEE77A2E
S315080034C007E0B6EE007AD7ED1C7A77EE677AFDEE5E
S315080034D0E77AC7ED0B7AFB6AB3F5003F06DBFB6EAE
S315080034E06FEA53436FEA4343FB661BE0FB6A13F537
S315080034F0003F11DAFB6E43F40033FB6612E000BFAF
S315080035000080E00F000080430000204400000047D0
S315080035100000004900007A44FB6AC3F31103FA6EFF
S315080035201343FB66FA68D7F8803005331B0113444A
S31508003530FA6E1A6060E17968D7F8802013469B0016
S3150800354013449B000B4404331B78184600F0FAFA20
S3150800355007EE900AB8EE677A5FED126AC7EE267A2A
S31508003560C7ED1A7AFA68D7F880301B011344483336
S315080035701B685B09DBB203F0070387F8533097F83B
S3150800358053309B0088333B44743BD3ED007AFCEE02
S31508003590E77A17EE903A5C2B02D1A94BBB6717E086
S315080035A097F853309B0088333B44743BD3ED006A4D
S315080035B097F853309B0088333B44743BD3ED007A2D
S315080035C0B7EE007A37EE877AC6EE877AC7ED1E7AA7
S315080035D0B7F87C3007EE903AB8EE677ADFED996A6D
S315080035E0C7EE267A97ED1E7A67EE277AC7ED137A25
S315080035F0D7ED137A9FED937A67EE877AF5EEC07A60
S31508003600F1EE10FA0CD5D7ED137A9FED8E7A67EEA8
S31508003610877AB6EE007A77EEC77AFDEEE77A0BE0A0
S31508003620D7ED137A9FED877A67EE877AB6EE007A3A
S3150800363077EE877AFDEEE77AC7ED127A824AD7F8EF
S31508003640803005331B0113441B687F4AD7F8803046
S3150800365005331B01134400221A60BB6C03F40043B4
S31508003660002B10D0784AD7F8803005331B01134455
S315080036701B68754943F00042D7F8803005331B01B3
S315080036800B441A600DE0704A6F49D7F8803005334D
S315080036901B0113441A68D7F8803005331B010B4405
S315080036A01A60694AD7F8803005331B0113441A6833
S315080036B0BB6C9904654B0B4063491A43D7F88030B5
S315080036C005331B010B441A60614BD3F8883100237C
S315080036D07B645F4BD3F888311BB207EE903AF8EE5D
S315080036E0E77AC7ED107A97F85330012202FA03F306
S315080036F07A6C92FBF3F307EE903AF8EEE77A97EDD9
S31508003700107A77EE277AC7ED0F7AF7EE046A97ED07
S315080037101A7AC6EE877A97ED0F7A67EE277AC7ED9B
S315080037200F7A97F853309B0088333B44743BD3EDAC
S31508003730007A9FED487AC7EE276A97F853309B00C0
S3150800374088333B44743BD3ED007AB7EE007A77EEC4
S31508003750877A86EEA77AD7ED0F7AF1EE006A67EEDA
S31508003760A67A77EE277A9FED3C7A77EE877AC7EDC9
S315080037700E7AB7F87C3007EE903AB8EEE77ADFEDC6
S31508003780316AC7EE267AB1EE677AD7ED0E7A67EE1A
S31508003790277A9FED317A77EE877AC7ED0E7AD7EDDD
S315080037A00E7AF5EEC07AF1EE10FA08D5D7ED0E7A54
S315080037B0B6EE007A77EEC77AFDEEE77A07E0D7ED40
S315080037C00E7AB6EE007A77EE877AFDEEE77AC7EDDF
S315080037D00D7A1D4AD7F8803005331B0113441A6841
S315080037E07B6BC3F3110318491A43D7F880300533A6
S315080037F01B010B441A6000BF3B6EC3F30902F9684C
S31508003800D7F8803005331B010B4404331A60D7F808
S3150800381080300133C7F88030FB680B4A934201D1E8
S31508003820022200E00022D7F880309A423FF6C7AB62
S31508003830F868FFF7E7FA00BF8837BD46B0BD00BF96
S31508003840E71B753F00000047004000590000FC7F59
S315080038500080E00F000080480000004980B584B071
S3150800386000AFF860B9607A60F868FFF7A9FABB6834
S315080038701B7803F00703BA685278002A01D0082299
S3150800388000E000221A43BB689B781B0103F0700313
S315080038901343BA68D278002A02D04FF4807200E047
S315080038A000221A43FB681A67FB68DB6A23F48B332A
S315080038B023F48073BA681279120202F4E0621A439A
S315080038C0BB685B791B0303F480531343BA68927988
S315080038D0002A02D04FF4803200E000221A43FB6827
S315080038E0DA627968F86800F00FF8F868FFF78AFA7C
S315080038F0BB68DB79002B03D00121F868FFF752FA81
S3150800390000BF1037BD4680BD80B584B000AF786073
S3150800391039607B685B6803F00103002B14BF012341
S315080039200023FB737868FFF76DFA3B681B781A4625
S315080039303B685B781B029BB21A433B689B781B0467
S3150800394003F4803313433A68D278002A02D04FF43E
S31508003950003200E000221A437B68C3F89820FB7BFC
S3150800396083F00103DBB2002B02D07868FFF728FA50
S3150800397000BF1037BD4680BD80B586B000AF786001
S3150800398039603B68002B18D12A20FDF749FB3860BF
S315080039903B68002B01D101233B603B68164A9342E2
S315080039A00BD9164B9B681B0F03F007037B617B69DA
S315080039B001333A68B2FBF3F33B603B6803F57423C3
S315080039C003F23F233B603B680D4AA2FB03239B0C93
S315080039D03B603B68013B3B603B683B617F23FB6088
S315080039E0FA683B69934228BF13463B603B68DBB2E3
S315080039F018461837BD4680BD005A62020040005975
S31508003A0083DE1B4380B588B000AFF860B9607A6082
S31508003A10BB68BB61134B7B617A69BB69934228BF5C
S31508003A201346BB607B68002B03D12A20FDF7F8FA02
S31508003A3078607A68BB6813445A1EBB68B2FBF3F316
S31508003A40FB61FB69002B02D0FB69013BFB61FB694B
S31508003A50032B01D90323FB61FB69DBB21846203728
S31508003A60BD4680BD005A620280B588B000AFF860D6
S31508003A70B9607A60FB70FB78002B06D0FB78012BC7
S31508003A8001D1224B02E0224B00E0224BBA68934256
S31508003A900BD2FB78002B06D0FB78012B01D11B4BF0
S31508003AA002E01B4B00E01B4BBB607B68002B04D17C
S31508003AB02A20FDF7B5FAB86101E07B68BB6197F883
S31508003AC028300133BA69B2FBF3F3BB61BA69BB6844
S31508003AD013445A1EBB68B2FBF3F3FB61FB69002B68
S31508003AE002D0FB69013BFB61FB697B6140F2FF3356
S31508003AF03B613A697B69934228BF1346FB61FB69C0
S31508003B009BB218462037BD4680BD00BF002D310147
S31508003B10404B4C008096980080B584B000AF786022
S31508003B2039603B681B6F03F00703FB603B68596FFE
S31508003B30FB68DAB27B681846FFF774F978681037BD
S31508003B40BD4680BD80B584B000AF0346FB71002337
S31508003B50FB6007F10803184600F036F8FB79042BDA
S31508003B6020D801A252F823F07D3B0008853B0008C7
S31508003B708D3B0008953B00089D3B000840F2BA4380
S31508003B80FB6010E040F2E243FB600CE040F6C41331
S31508003B90FB6008E040F6B833FB6004E04FF41663B8
S31508003BA0FB6000E000BFFB6818461037BD4680BDC5
S31508003BB080B400AF034B9B691846BD465DF8047B8D
S31508003BC0704700BF00C0075080B584B000AF78606A
S31508003BD0104B03F580531A464FF480335366FFF7AC
S31508003BE0E7FFF860FB689B09DBB203F03F03DAB234
S31508003BF07B689A70FB68DBB203F03F03DAB27B6836
S31508003C005A70FB681B0BDAB27B681A7000BF103754
S31508003C10BD4680BD0080005080B483B000AF034627
S31508003C20FB7197F90730002B0BDBFB7903F01F02BA
S31508003C30074997F907305B09012000FA02F241F8B3
S31508003C40232000BF0C37BD465DF8047B704700BFD4
S31508003C5000E100E080B483B000AF0346FB7197F93A
S31508003C600730002B0CDBFB7903F01F02074997F995
S31508003C7007305B09012000FA02F2603341F823207D
S31508003C8000BF0C37BD465DF8047B704700E100E0D5
S31508003C9080B400AF00BFBD465DF8047B704780B4B2
S31508003CA083B000AF786039607B6803F500531A4625
S31508003CB03B68536200BF0C37BD465DF8047B70470E
S31508003CC080B483B000AF786039607B689A6A3B68D5
S31508003CD01A437B689A6200BF0C37BD465DF8047BC1
S31508003CE0704780B483B000AF786039607B683A6803
S31508003CF0DA6000BF0C37BD465DF8047B70470000EC
S31508003D00B0B592B002AF07F1340300221A605A60C8
S31508003D109A60394B07F10C041D460FCD0FC40FCD21
S31508003D200FC495E8030084E803003B1D00221A60CF
S31508003D305A600323BB7101233B7000237B70002369
S31508003D40BB700023FB7001212A20FDF73DF90121F4
S31508003D503A20FDF739F902214FF4B060FDF7BEFCB1
S31508003D60002226492648FFF74DFE034687F83930D4
S31508003D70002387F8373000233B7440F2BA43BB610F
S31508003D8000237B730123FB7397F8393000930023D4
S31508003D9000221C491A48FFF767FE03467B61802309
S31508003DA07B7001233B70184BD3F82033164A43F433
S31508003DB08033C2F8203307F10C0207F134031946A1
S31508003DC00F48FFF76BF83A463B1D19460C48FFF7B4
S31508003DD045FD0E490A48FFF762FF4FF4007108488F
S31508003DE0FFF76EFF3120FFF735FF3120FFF714FF8D
S31508003DF000BF4037BD46B0BD10560008002D310142
S31508003E00004000598096980000C003508F330F80F9
S31508003E1090B583B000AF1A4C3B461A491846FFF7CF
S31508003E207BFE22463B4693E8030082E80300144BD8
S31508003E301B68184600F08CF90DA3D3E9002300F09F
S31508003E4001FA02460B46104619460BA3D3E900238E
S31508003E5000F022FB02460B460B49C1E900234FF44A
S31508003E6000710848FFF71BFF00BF0C37BD4690BD21
S31508003E705C8FC2F5285C03400000000000FEAF40DE
S31508003E8038000020004000594000002080B500AFEF
S31508003E90FFF7FEFEFFF734FF074B03F580531A467C
S31508003EA00123536701210548FFF71BFF0120FEF791
S31508003EB0C7FE00BFF6E700BF0040005000400059AB
S31508003EC080B483B000AF786000BFFDE781F00041A1
S31508003ED002E000BF83F0004330B54FEA41044FEAE1
S31508003EE0430594EA050F08BF90EA020F1FBF54EA7C
S31508003EF0000C55EA020C7FEA645C7FEA655C00F018
S31508003F00E2804FEA5454D4EB5555B8BF6D420CDDE8
S31508003F102C4480EA020281EA030382EA000083EA6B
S31508003F20010180EA020281EA0303362D88BF30BD0B
S31508003F3011F0004F4FEA01314FF4801C4CEA113161
S31508003F4002D0404261EB410113F0004F4FEA0333C0
S31508003F504CEA133302D0524263EB430394EA050F4B
S31508003F6000F0A780A4F10104D5F1200E0DDB02FABA
S31508003F700EFC22FA05F2801841F1000103FA0EF24E
S31508003F80801843FA05F359410EE0A5F120050EF114
S31508003F90200E012A03FA0EFC28BF4CF0020C43FA45
S31508003FA005F3C01851EBE37101F0004507D54FF052
S31508003FB0000EDCF1000C7EEB00006EEB0101B1F5A2
S31508003FC0801F1BD3B1F5001F0CD349085FEA3000E8
S31508003FD04FEA3C0C04F101044FEA445212F5800FF3
S31508003FE080F09A80BCF1004F08BF5FEA500C50F190
S31508003FF0000041EB045141EA050130BD5FEA4C0C73
S31508004000404141EB0101013C28BFB1F5801FE9D2CF
S3150800401091F0000F04BF01460020B1FA81F308BFF2
S315080040202033A3F10B03B3F120020CDA0C3208DDBE
S3150800403002F1140CC2F10C0201FA0CF021FA02F199
S315080040400CE002F11402D8BFC2F1200C01FA02F109
S3150800405020FA0CFCDCBF41EA0C019040E41AA2BF2E
S3150800406001EB0451294330BD6FEA04041F3C1CDAF6
S315080040700C340EDC04F11404C4F1200220FA04F016
S3150800408001FA02F340EA030021FA04F345EA0301C0
S3150800409030BDC4F10C04C4F1200220FA02F001FA82
S315080040A004F340EA0300294630BD21FA04F0294604
S315080040B030BD94F0000F83F4801306BF81F480119D
S315080040C00134013D4EE77FEA645C18BF7FEA655C10
S315080040D029D094EA050F08BF90EA020F05D054EAE2
S315080040E0000C04BF1946104630BD91EA030F1EBFE7
S315080040F00021002030BD5FEA545C05D140004941EB
S3150800410028BF41F0004130BD14F580043CBF01F5DD
S31508004110801130BD01F0004545F0FE4141F47001C3
S315080041204FF0000030BD7FEA645C1ABF194610469E
S315080041307FEA655C1CBF0B46024650EA013406BF9F
S3150800414052EA033591EA030F41F4002130BD00BF5E
S3150800415090F0000F04BF0021704730B54FF480641B
S3150800416004F132044FF000054FF0000150E700BF9C
S3150800417090F0000F04BF0021704730B54FF48064FB
S3150800418004F1320410F0004548BF40424FF00001E8
S315080041903EE700BF42004FEAE2014FEA31014FEA2B
S315080041A002701FBF12F07F4393F07F4F81F060517A
S315080041B0704732F07F4208BF704793F07F4F04BFC5
S315080041C041F40021704730B54FF4607401F00045A2
S315080041D021F000411CE700BF50EA010208BF704702
S315080041E030B54FF000050AE050EA010208BF7047F3
S315080041F030B511F0004502D5404261EB41014FF45C
S31508004200806404F132045FEA915C3FF4D8AE4FF063
S3150800421003025FEADC0C18BF03325FEADC0C18BF46
S31508004220033202EBDC02C2F1200300FA03FC20FA97
S3150800423002F001FA03FE40EA0E0021FA02F11444E4
S31508004240BDE600BF70B54FF0FF0C4CF4E06C1CEAFD
S3150800425011541DBF1CEA135594EA0C0F95EA0C0F6E
S3150800426000F0DEF82C4481EA030621EA4C5123EAE1
S315080042704C5350EA013518BF52EA033541F4801110
S3150800428043F4801338D0A0FB02CE4FF00005E1FBC3
S3150800429002E506F00042E0FB03E54FF00006E1FB0D
S315080042A003569CF0000F18BF4EF0010EA4F1FF0450
S315080042B0B6F5007F64F5407404D25FEA4E0E6D4190
S315080042C046EB060642EAC62141EA55514FEAC520A1
S315080042D040EA5E504FEACE2EB4F1FD0C88BFBCF51D
S315080042E0E06F1ED8BEF1004F08BF5FEA500E50F1CE
S315080042F0000041EB045170BD06F0004646EA010194
S3150800430040EA020081EA0301B4EB5C04C2BFD4EBC5
S315080043100C0541EA045170BD41F480114FF0000EBE
S31508004320013C00F3AB8014F1360FDEBF002001F02C
S31508004330004170BDC4F10004203C35DA0C341BDCA6
S3150800434004F11404C4F1200500FA05F320FA04F078
S3150800435001FA05F240EA020001F0004221F00041AC
S3150800436010EBD37021FA04F642EB06015EEA430E1F
S3150800437008BF20EAD37070BDC4F10C04C4F120054F
S3150800438000FA04F320FA05F001FA04F240EA020002
S3150800439001F0004110EBD37041F100015EEA430ED3
S315080043A008BF20EAD37070BDC4F1200500FA05F2F3
S315080043B04EEA020E20FA04F301FA05F243EA020372
S315080043C021FA04F001F0004121FA04F220EA020081
S315080043D000EBD3705EEA430E08BF20EAD37070BDC7
S315080043E094F0000F0FD101F00046400041EB0101A7
S315080043F011F4801F08BF013CF7D041EA060195F089
S31508004400000F18BF704703F00046520043EB030342
S3150800441013F4801F08BF013DF7D043EA060370472F
S3150800442094EA0C0F0CEA135518BF95EA0C0F0CD03A
S3150800443050EA410618BF52EA4306D1D181EA030180
S3150800444001F000414FF0000070BD50EA410606BF7A
S315080044501046194652EA430619D094EA0C0F02D1BF
S3150800446050EA013613D195EA0C0F05D152EA033604
S315080044701CBF104619460AD181EA030101F0004122
S3150800448041F0FE4141F470014FF0000070BD41F06B
S31508004490FE4141F4780170BD70B54FF0FF0C4CF445
S315080044A0E06C1CEA11541DBF1CEA135594EA0C0F64
S315080044B095EA0C0F00F0A7F8A4EB050481EA030EB1
S315080044C052EA03354FEA013100F088804FEA033398
S315080044D04FF0805545EA131343EA12634FEA022266
S315080044E045EA111545EA10654FEA00260EF0004127
S315080044F09D4208BF964244F1FD0404F5407402D279
S315080045005B084FEA3202B61A65EB03055B084FEA09
S3150800451032024FF480104FF4002CB6EB020E75EB06
S31508004520030E22BFB61A754640EA0C005B084FEA2E
S315080045303202B6EB020E75EB030E22BFB61A7546AB
S3150800454040EA5C005B084FEA3202B6EB020E75EBF6
S31508004550030E22BFB61A754640EA9C005B084FEA6E
S315080045603202B6EB020E75EB030E22BFB61A75467B
S3150800457040EADC0055EA060E18D04FEA051545EA6A
S3150800458016754FEA06164FEAC30343EA52734FEA13
S31508004590C2025FEA1C1CC0D111F4801F0BD141EA8C
S315080045A000014FF000004FF0004CB6E711F4801FF1
S315080045B004BF01430020B4F1FD0C88BFBCF5E06FD1
S315080045C03FF6AFAEB5EB030C04BFB6EB020C5FEAE1
S315080045D0500C50F1000041EB045170BD0EF0004E36
S315080045E04EEA113114EB5C04C2BFD4EB0C0541EA68
S315080045F0045170BD41F480114FF0000E013C90E665
S3150800460045EA060E8DE60CEA135594EA0C0F08BF28
S3150800461095EA0C0F3FF43BAF94EA0C0F0AD150EA27
S3150800462001347FF434AF95EA0C0F7FF425AF1046BA
S3150800463019462CE795EA0C0F06D152EA03353FF4E2
S31508004640FDAE1046194622E750EA410618BF52EA5F
S3150800465043067FF4C5AE50EA41047FF40DAF52EA33
S3150800466043057FF4EBAE12E703685A004CBF43F0EC
S31508004670004323F000431844704700BF2DE9F04774
S3150800468029B301F1FF3A8046914600255646A919F5
S3150800469048BF0131491008EBC107CC003846FFF77F
S315080046A0E3FF8A450DD00834484508EB04000AD8CC
S315080046B0FFF7DAFF01384D1C4845E8D33846BDE810
S315080046C0F0874845FAD98D4201F1FF36DFD1002738
S315080046D03846BDE8F08700BF012807D0022807D072
S315080046E00028044B14BF002018467047024870473C
S315080046F002487047B94D0008C14D0008C94D000869
S31508004700204B30B5044683B08D1E1BB301A928463D
S31508004710AFF3008080B301992A46FFF7AFFF014641
S3150800472050B3FFF7A1FF4B68A064012B27D0002BDD
S3150800473001F104001EDBFFF797FF002323650368DA
S31508004740E064002B0CDBFFF78FFF03460020236194
S3150800475003B030BD0C480D49091AC9100191DBE7B1
S31508004760C3F30360FFF7B8FF034628B100202361AF
S3150800477003B030BD0123E1E700230920E7E7002362
S315080047800520E4E7000000003C560008D45600085F
S315080047900368DA0710B5044606D49B0700F14800FB
S315080047A009D500F085FC2368590709D51A070ED5DF
S315080047B0DB0613D510BD00F073FC23685907F5D442
S315080047C004F1D00000F07CFC23681A07F0D404F545
S315080047D0A87000F07DFC2368DB06EBD404F5E870CE
S315080047E0BDE8104000F0B8BC0346006800B11844A4
S315080047F0704700BF704700BF70B504460E46316C5F
S315080048002046FFF77DFF054698B9D6F840C03246E0
S31508004810236921460120C4F814C098470828EED019
S31508004820072806D12846316CFFF7E4FF301D00F053
S315080048302BFCFFDE2DE9F04701F1040CADF5747D84
S31508004840C7680646D0F8188014460DF1140E04AD54
S315080048504FF00009BCE80F00AEE80F00BCE80F00F7
S31508004860AEE80F00BCE80F00AEE80F009CE80F00AA
S315080048708EE80F00C5F8009023E02B6C4FF4F07219
S3150800488029467CA8736100F09DFE7CAA31463369EF
S31508004890504698478A9B2146814603933246039C95
S315080048A0334601206C64CDE90058B847044628BB56
S315080048B04FF4F0727CA9284600F084FEB9F1080F7F
S315080048C019D10934296C3046FFF71AFF81465FFA79
S315080048D084FA0028D1D0AC6B334632464AF0100130
S315080048E06C640120CDE90058B84738B948460DF53B
S315080048F0747DBDE8F087B9F1070F06D04FF00909B6
S3150800490048460DF5747DBDE8F0872046296CFFF70B
S3150800491071FF05A800F0B8FBF0B5CB6BF9B001F153
S31508004920040C0E460B6401AC05464FF0FF37BCE895
S315080049300F000FC4BCE80F000FC4BCE80F000FC47B
S315080049409CE80F0084E80F00009706E02B696A468A
S31508004950294698470828044608D110992846FFF79B
S31508004960CFFE0028F2D0092079B0F0BD6846FFF7DF
S315080049700FFF062CF7D131462846FFF73DFF00BF4B
S3150800498010B4DC6BC1601946826100221C6410BC3D
S31508004990FFF750BF70B54369C6680B64AEB90369C3
S315080049A00A4604460D46014602209847072805D0C0
S315080049B008280ED129462046FFF71EFF3046296CE7
S315080049C0FFF718FF281D00F05FFB0122FFF732FFF3
S315080049D0FFDEFFDEC26832B1D1F83CC00022C1F862
S315080049E040C0FFF727BFFFF797BF00BF012913D0C5
S315080049F00CD89BB90F2A94BF0021012171B900EB8D
S31508004A00820208465368009A1360704703390129E1
S31508004A108CBF022001207047084670470220704765
S31508004A2010B584B000230A4603AC19460094FFF774
S31508004A30DDFF039804B010BD012913D00CD89BB92B
S31508004A400F2A94BF0021012171B9009B00EB820255
S31508004A5008461B6853607047033901298CBF02203A
S31508004A6001207047084670470220704710B584B089
S31508004A70002303AC03920A4619460094FFF7DCFFAD
S31508004A8004B010BDF0B5D36BADF50F7D141D064609
S31508004A9013640DF15C0C0D464FF0FF370FCCACE8F4
S31508004AA00F000FCCACE80F000FCCACE80F0094E871
S31508004AB00F008CE80F00169710E0FFF7D7FF29467E
S31508004AC016A8B047034616AA6946082083B9049B68
S31508004AD09847052804460CD009280AD0269968461E
S31508004AE0FFF70EFE03466A460C2116A8002BE4D0F3
S31508004AF0092416A8FFF74CFE20460DF50F7DF0BDDC
S31508004B002DE9F04F9346CA6C89B00D4652F8041B3E
S31508004B1000F0030C0692002B00F081800C0C0904AF
S31508004B208DF81D40E4B20591022102EB8402BCF126
S31508004B30020F2F6D8DF81C1008BFAA6B17F001071E
S31508004B4019D005A9584600F093FB80B9082009B08A
S31508004B50BDE8F08F730009F0010903F0020646EA82
S31508004B600906012E00F08980022E5ED09EB3092028
S31508004B7009B0BDE8F08F1668002EE2D000F00801F3
S31508004B80B14664469A4601910297BAF1020F42D09D
S31508004B90B2F8009002F10408568826F00103AA6CC0
S31508004BA00F2158469F18FFF73BFF8742D2D8760059
S31508004BB009F0010229F0010906F00206B944164374
S31508004BC0012E5ED0022E00F0A180002ECFD114B1A6
S31508004BD0814500F2CB8008F10402D2F80090B9F1C1
S31508004BE0000FD2D105A95846029F00F041FB0028C4
S31508004BF0BDD1002FAAD00F215846FFF711FF0E216D
S31508004C0002465846FFF732FF6A4A0F215846FFF711
S31508004C102DFF0720ACE7566802F10808BDE7090230
S31508004C208DF81D300591032181E7D8F8006026F03C
S31508004C3000433CB9002E01DA08F10408013308EBF9
S31508004C408302CAE70D2158460393FFF7E9FE2A6A4D
S31508004C50039B8242EED1AA6A9045EBD10027042233
S31508004C60AB62C5E90B7242446A63D8F80020BA42BF
S31508004C70C0F29C8001220292E0E71CB908F1080202
S31508004C80ABE7BCB10D215846FFF7CAFE2B6A834233
S31508004C90F4D1AB6A9845F1D14046FFF7E5FC0F2100
S31508004CA002465846FFF7E2FE2A4600215846FFF715
S31508004CB0DDFEAEE78145E1D9D8F80430D8F8002002
S31508004CC0991C4FEAD2723FF452AF05F158010133ED
S31508004CD0049163D008F10400FFF786FD04AB014692
S31508004CE02846AFF300800028C8D004460D21584650
S31508004CF0DDF81090FFF794FE022C286254D12B465B
S31508004D0043F82C9F0620C5E9093831E7D8F8006032
S31508004D1026F00043002C95D181458BD9019A0AB11A
S31508004D20002B87D1039408F10409002605F15807DA
S31508004D301C460CE0484604970022FFF755FD04ABD5
S31508004D400146284609F10409AFF3008008BBA642CC
S31508004D5006F10106EED10D215846FFF761FE049BC8
S31508004D60024606202A62C5E9093801E74046FFF7E8
S31508004D707BFC08F1040304462846AB63AFF30080C6
S31508004D8000283FF4F4AE22460F215846FFF76EFE80
S31508004D903FE72346D8F80060039C4BE78946584608
S31508004DA00D21FFF73DFE28624B46ABE7581C08EB82
S31508004DB0800072E7000000000023FFF7A1BE00BFD5
S31508004DC00123FFF79DBE00BF0223FFF799BE00BF70
S31508004DD02DE9F0430646C3B015461C46042965D896
S31508004DE0DFE801F0684F64270300002C5ED1102A23
S31508004DF05CD80368D80600F1C38020AF384600F0B7
S31508004E00B5F9B46B394600234FF0010C0CFA03F2DE
S31508004E10204601332A4203D050F8042B04460A6080
S31508004E20042B01F10401F1D13846B46300F094F97A
S31508004E3059E0032C3AD11FFA82F8140C08EB1245F4
S31508004E40102D33D803681D0700F1B98020AF384606
S31508004E5000F060F9B56B07EBC401B8F1000F0BD091
S31508004E600B4601EBC8014FEAC808E81A1A5843F876
S31508004E70042B8B42FAD145443846B56300F028F92D
S31508004E8031E004F0FB034FEA124895B2012B0DD12D
S31508004E90012C08EB05092AD0B9F1200F06D8B8F17C
S31508004EA00F0F40F29480052C72D0E5B1022043B072
S31508004EB0BDE8F083002CF9D123461FFA82FC806BEB
S31508004EC00124371D04FA03F2014612EA0C0F04D036
S31508004ED051F8042B084647F823200133102BF1D14B
S31508004EE0AC0400D4B063002043B0BDE8F083B9F148
S31508004EF0100FDBD8B8F1100FD8D00368D90705D53D
S31508004F0023F0030340F8483B00F0CEF820AF3846BC
S31508004F1000F0CAF8B36B002D7FD06A00002507EBB6
S31508004F20C801013A0132043903EB820253F8040B33
S31508004F309A4241F8040FF9D1002D74D041466B000E
S31508004F406F46102903F1FF3338BF1021103907EBDC
S31508004F50C1010133043902EB830352F8040B9A4268
S31508004F6041F8040FF9D1012C56D0B8F10F0FB263EE
S31508004F7002D820A800F09CF8384600F0A1F8B2E75D
S31508004F8023F0100306F5E870336000F0EFF834E715
S31508004F90002DA8D00368590705D523F0040340F867
S31508004FA0D03B00F091F86F46384600F08DF8A8F12E
S31508004FB010016B00B26B07EBC101013BC9E723F097
S31508004FC0080300F5A870336000F0A4F83EE7B9F1CD
S31508004FD0100F33D9052C7FF469AF0368DF0708D5AE
S31508004FE023F0010343F0020340F8483B00F064F85D
S31508004FF033685A0738D420AFA9F11005384600F0AF
S315080050005BF8684600F060F8C8F11002B36B07EB6E
S31508005010C8015200013A85E720AF04333846B36326
S3150800502000F03EF85FE7012CF7D0B8F10F0FB26336
S315080050303FF659AF384600F03BF854E70368DA07FD
S3150800504009D5052C18D123F0010343F0020340F8D3
S31508005050483B00F031F820AF384600F02DF8B36B26
S31508005060002D7FF45AAFE5E723F00403304640F8F5
S31508005070D03B00F029F8BEE723F0030340F8483B8D
S3150800508000F012F8E7E700BF00F1340191E83800B4
S315080050909C46A6464CF8045D90E8FF0FE54600BD21
S315080050A090EC210B704700BF80EC210B704700BFC6
S315080050B090EC200B704700BF80EC200B704700BFB8
S315080050C0D0EC200B704700BFC0EC200B704700BF28
S315080050D0F0EC0201F0EC0211F0EC0221F0EC0231E6
S315080050E0F0EC0241F0EC0251F0EC0261F0EC0271D6
S315080050F0F0EC0281F0EC0291F0EC02A1F0EC02B1C6
S31508005100F0EC02C1F0EC02D1F0EC02E1F0EC02F1B5
S31508005110704700BFE0EC0201E0EC0211E0EC02216E
S31508005120E0EC0231E0EC0241E0EC0251E0EC026115
S31508005130E0EC0271E0EC0281E0EC0291E0EC02A105
S31508005140E0EC02B1E0EC02C1E0EC02D1E0EC02E1F5
S31508005150E0EC02F1704700BFB0FC0181B0FC0191A0
S31508005160B0FC01A1B0FC01B1704700BFA0FC0181F1
S31508005170A0FC0191A0FC01A1A0FC01B1704700BFF1
S31508005180EC4600B52DE900502DE9FF1F4FF000034E
S315080051902DE90C0001A9FFF7BFFBDDF840E012B0CE
S315080051A0704700BFEC4600B52DE900502DE9FF1FFA
S315080051B04FF000032DE90C0001A9FFF7EBFBDDF822
S315080051C040E012B0704700BFEC4600B52DE900502C
S315080051D02DE9FF1F4FF000032DE90C0001A9FFF789
S315080051E0F9FBDDF840E012B0704700BFEC4600B5A9
S315080051F02DE900502DE9FF1F4FF000032DE90C00A3
S3150800520001ABFFF7BDFBDDF840E012B0704700BF09
S31508005210EC4600B52DE900502DE9FF1F4FF00003BD
S315080052202DE90C0001AAFFF72DFCDDF840E012B0CD
S31508005230704700BF027A03468AB9427AB2B141681A
S31508005240013A4FF0030C10B442720C1D086883F83B
S3150800525008C002025C60000E10BC1A607047006845
S31508005260013A1A720202000E1A607047B02070479F
S315080052702DE9F0434FF0000885B006460D4628464E
S31508005280FFF7D8FFB028044600F0DD80070648D5AA
S3150800529000F0F003802B61D0B02B00F088801CD87A
S315080052A0902B00F09D80A02B13D1C3434FF47F624F
S315080052B0010703F0070342FA03F202F47F6201D5FD
S315080052C042F48042002330461946FFF781FD002844
S315080052D0D5D0092005B0BDE8F083C02B55D1C62826
S315080052E000F09480C72800F0B38000F0F803C02BC4
S315080052F000F0D380C82800F0EE80C928E9D12846F6
S31508005300FFF798FF020300F00F0002F47022013045
S315080053100243012105233046FFF75AFD0028AED087
S31508005320D7E783000DF10C090D223046DBB2CDF824
S3150800533000901F1D00231946FFF758FB039B6006C4
S315080053404FF00D023046CDF800904CBFDF1BFF181A
S31508005350002303971946FFF76FFB90E724022846B8
S31508005360FFF768FF2043B0F5004FB2D004010023D1
S315080053703046A2B21946FFF72BFD0028A9D114F42E
S31508005380004F18BF4FF0010879E700F0F803D02B5B
S315080053909FD100F00702052301213046013242F46D
S315080053A00022FFF715FD00283FF469AF91E7B12801
S315080053B03FD0B22800F09B80B3285BD000F0FC03F6
S315080053C0B42B86D000F00702012330461A4419464A
S315080053D042F40022FFF7FCFC00283FF450AF78E7C0
S315080053E000F00D030D2B3FF474AF03AF002300F05C
S315080053F00F02304619460097FFF7F8FA00230D22E8
S31508005400304619460097FFF717FB38E72846FFF797
S3150800541011FF0323020300F00F001946013002F4BE
S31508005420702202433046FFF7D3FC00283FF427AF2B
S315080054304FE72846FFF7FEFE431E0246DBB20E2B59
S315080054407FF640AF45E7B8F1000F34D0002041E7BA
S315080054502846FFF7EFFE431E0246DBB20E2B3FF649
S3150800546038AF002304213046FFF7B2FC00283FF48A
S3150800547006AF2EE72846FFF7DDFE0123020300F0FC
S315080054800F001946013002F4702202433046FFF736
S315080054909FFC00283FF4F3AE1BE700F00F0203233E
S315080054A030460132194642F42022FFF791FC0028C3
S315080054B03FF4E5AE0DE703AC434641460E223046BF
S315080054C00094FFF793FA43460F224146304600946C
S315080054D0FFF7B2FABAE72846FFF7ACFE00F0F0028B
S315080054E000F00F031032013343EA023211E70023BA
S315080054F00DF10C090D2230461946CDF80090FFF73C
S3150800550075FA2846FFF796FE0206039C4FF0020737
S315080055100AD500F07F00B8400737044428460394AC
S31508005520FFF788FE0306F4D400FA07F204F50174BF
S31508005530002330462244CDF80090194603920D22E6
S31508005540FFF77AFA9BE600BF08B5064B044613B187
S315080055500021AFF30080044B1B6803B1984720462F
S31508005560FEF7AEFC00000000480000200244034697
S31508005570934200D1704703F8011BF9E770B50D4D4A
S3150800558000260D4C641BA410A64209D10B4D00261B
S315080055900B4C00F025F8641BA410A64205D170BD7B
S315080055A055F8043B01369847EEE755F8043B0136B3
S315080055B09847F2E710000020100000201000002095
S315080055C0140000200A44431E914200D1704710B5CA
S315080055D011F8014B914203F8014FF9D110BD0000B3
S315080055E0F8B500BFF8BC08BC9E467047F8B500BFC2
S315080055F0F8BC08BC9E467047000080410000004287
S31508005600000080420000B8420000004300008043CA
S31508005610000003020000000000000000BA040000B9
S315080056200000000000000302000000000000000067
S31108005630BA0400000000000000000000A2
S3150800563C14B2FF7F0100000088B2FF7FB0B0B080C3
S3150800564CD8B2FF7F01000000ACF0FF7FB0A9028042
S3150800565C34F1FF7FB0B0A88084F1FF7F0100000011
S3150800566C8CF1FF7FB0B0AA80C0F1FF7FAE73B28019
S3150800567C9CF2FF7FAB3F3880FCF2FF7F01000000F5
S3150800568C08F3FF7FB0B0AA8040F3FF7F010000004B
S3150800569CE8F3FF7FAB0EB2805CF4FF7FB0AF0880F7
S315080056AC0CF7FF7F010000001CF7FF7FAD3F02805F
S315080056BCCCF9FF7F01000000ACFBFF7FB0AD048086
S30D080056CC7CFEFF7F01000000CF
S311080056D4E856000800000020180000003E
S30D080056E0180000203400000048
S315080056E8C017530200800000C0EA2101C0EA210160
S30D080056F82D080008050800084A
S705080008CD1D
