:020000040800F2
:100000000810002071010008052300083B240008A7
:100010000523000805230008052300080523000820
:100020000523000805230008142B000805230008F9
:1000300005230008C42A000805230008052300083A
:1000400005230008052300080523000805230008F0
:1000500005230008052300080523000805230008E0
:1000600005230008052300080523000805230008D0
:1000700005230008052300080523000805230008C0
:1000800005230008052300080523000805230008B0
:1000900005230008052300080523000805230008A0
:1000A0000523000805230008052300080523000890
:1000B0000523000805230008052300080523000880
:1000C0000523000805230008052300080523000870
:1000D0000523000805230008052300080523000860
:1000E0000523000805230008052300080523000850
:1000F0000523000805230008052300080523000840
:10010000052300080523000805230008052300082F
:10011000052300080523000805230008052300081F
:10012000052300080523000805230008052300080F
:1001300005230008052300080523000805230008FF
:1001400005230008052300080523000805230008EF
:1001500005230008052300080523000805230008DF
:1001600005230008052300080523000805230008CF
:1001700008B50D4B83F30A880C4B09A1D1E90001A6
:10018000C3E9000100F090F800F084FC00F07EF874
:1001900000F056F800F068F802F053F9AFF3008071
:1001A000A5EDF5FEA5EDF5FE0800002008100020E5
:1001B0000348044B834202D0034B03B118477047F6
:1001C000701000207010002000000000064B07494E
:1001D000C91A891048BF0131491003D0044B0BB133
:1001E00001481847704700BF7010002070100020B1
:1001F0000000000010B5064C237843B9FFF7D8FF84
:10020000044B13B10448AFF300800123237010BDE9
:10021000BE10002000000000602C000808B5054B4F
:100220001BB105490548AFF30080BDE80840FFF762
:10023000CDBF00BF0000000070100020602C00083F
:10024000064B0748DA1C121AC11E22F0030299421B
:1002500088BF0022034902F090BB00BF701000204D
:10026000101000206C2C0008064B0748DA1C121AEC
:10027000C11E22F00302994288BF0022002102F031
:1002800074BB00BF44130020701000200348044AD0
:100290000449121A921002F036B800BFCC2C0008A4
:1002A000CC2C000844130020044B054A9A60D3F874
:1002B000882042F47002C3F88820704700ED00E007
:1002C000000000080023024A1370024A13707047AE
:1002D000C0100020BF10002038B503780446042B5E
:1002E0000D463FD009D8012B0BD0032B4FF018033C
:1002F0003CD040F603102B7038BD182B36D0432B62
:10030000F4E7224B4278197801BB012A03D0152368
:1003100040F60410EFE71A70A3781344FF2BF6D1D0
:1003200000228021E01C02F0EBF994F88320C0F356
:100330000F239A4221D194F88430C0B2834220D155
:10034000134B627800201A700623D4E7104B1B78F9
:1003500093420ED00133DBB29342DDD0152340F639
:100360000510C8E7062340F60710C4E740F608105A
:10037000C1E7062340F60610BDE7152340F602103C
:10038000B9E7152340F60110B5E700BFBF10002004
:10039000C01000200149024800F03AB8E0290008E6
:1003A0008810002010B592B047221849684602F024
:1003B000E4FA02F01FF80A22C0F30363092B8CBF92
:1003C000373330338DF81430C0F30343B3FBF2F10D
:1003D00002FB113300F00F0030338DF81730B0FB03
:1003E000F2F302FB130001F13004303003F130016D
:1003F0008DF819108DF81A000122472168468DF8F2
:10040000164000F039FD002012B010BDF0290008A0
:100410002DE9F04F0024ADF5257D4FF4947206468A
:1004200088465AA821468DF80B4002F09EFA2146D4
:10043000682204A802F099FA214668221EA802F058
:1004400094FA3C2700F0F2FB01254FF0FF34DFF86F
:100450002093DFF820A3DFF820B36B1E052B09D80B
:10046000DFE813F00C001E0041005B005401C000E7
:100470000425F2E7FFF796FF0125EEE74FF47A71C6
:1004800003A802F082F838B99DF80C30312B05D062
:10049000322B0CBF052500253C27DEE70225FBE7B4
:1004A00001221121AE4800F0E7FC2C220021304649
:1004B00002F05BFA20231EAA04A95AA800F0DEFE6F
:1004C0000025FF23012105207370758000F0D4FB07
:1004D00000F01EFD18B10121284600F08FFDFFF746
:1004E000F1FE0325B9E7432001F01DFF00214FF481
:1004F0007A7000F0C1FB00F00BFD18B900F0E2FBD0
:100500000028F8D000F004FD0028B1D1013FA4D1AB
:10051000182001F008FF00259FE7002185220DF13A
:10052000E10002F022FA002140F6B83000F0A4FB0E
:1005300000F0EEFC88B34FF47A730093012303AA12
:1005400019460DF1E10000F007FD9DF8E130012BA7
:100550000DD140F6B832842100920DF1E20003AAD9
:1005600000F0FAFC039B0446842B1AD1D8B90DF194
:100570000B010DF1E100FFF7AFFE40F607139842C3
:1005800004461AD1B378A3B1F37893B106259DF848
:100590000B00182808BF062508E000F093FB002890
:1005A000C6D040F2047415208DF80B0001F0BBFE9C
:1005B00053E718238DF80B30E8E70028E7D19DF8C2
:1005C000E130012BE3D180233146CDF8008039AAF8
:1005D0005AA800F08DFE04460028D8D018238DF8C4
:1005E0000B30D4E70121002000F008FD01210A2092
:1005F00000F042FB9DF80B300122062B08D140F69B
:1006000007139C4204D11B21564800F035FC82E7B9
:100610001A21504600F030FCA4F51063B3F5E06FEA
:100620004FF0010213D211214F4800F025FC40F693
:1006300006139C4213DCB4F5106F10D0A4F602131D
:10064000042B4FD8DFE803F050484C5254001021DF
:10065000584600F011FC40F606139C421ADC9DF847
:100660000B309F2B4FEA13108CBF3730303000F027
:100670003BFC9DF80B0000F00F0009288CBF3730C1
:10068000303000F031FC0D2000F02EFC0A2000F08C
:100690002BFC40E7A4F58053013B092BDFD8A4F5E0
:1006A0008053013B092BDAD801A252F823F000BF96
:1006B000050700085F0600085F0600080907000834
:1006C000F90600080107000805070008FD060008F4
:1006D000F50600080507000821238DF80B30BEE75A
:1006E0002223FAE72323F8E72423F6E72523F4E778
:1006F0002723F2E74123F0E74323EEE74423ECE727
:100700004523EAE74F23E8E75023E6E7B37813B33E
:10071000F37803B333785A0709D5B06A01F06FFE56
:1007200000283FF4F8AE114800F044F9F3E69B07C7
:100730000CD5756801F05EFE854203D9716A0B48DD
:1007400000F0EEF80122132148465EE740F2012056
:1007500000F00CFAF6E740F2032000F007FADAE6C0
:10076000A02A0008852A00085A2A000800800008EC
:10077000372A00086B2A00084A2A000837B500F11A
:10078000006303F500430193104B0D469842144655
:100790001AD8019A0E4B9A4216D2019A9B1AA3427A
:1007A00012D348B94FF000639B6A0A4A59699142D3
:1007B00002D9186900F004FA22462946019803B0CC
:1007C000BDE8304001F0C9BD03B030BDFF7FFFF789
:1007D00000E01708008000087FB56FF0006200F1AC
:1007E00078419142034619D26D460D4A02F1100636
:1007F0002C4610685168083203C4B2422546F7D12E
:100800005A1E04A90F3311F8014D12F8010F84424A
:1008100004D19A42F7D1012004B070BD0020FBE75B
:10082000B12A0008F0B50368044603F16043B3F54C
:10083000802F9FB033D84FF000639B6A42681E69D7
:1008400096422CD8344B9A4229D8456B06F1400287
:10085000AA425ED89D425CD82846FFF7BDFF00281B
:1008600057D0284601F0ACFD80B16B6973B1022B03
:100870000ED1AB69C4F1040119444FF0FF32204698
:1008800001F086F8254BC31A584258411FB0F0BDFD
:1008900040F2046328460293FFF79EFF08B9002048
:1008A000F4E74FF000635F6B3846FFF795FF0028D1
:1008B000F5D0A6F150039F42F1D8284603A901F0D4
:1008C00086FD0028EBD0039DAE42E8D8AC42E6D8C6
:1008D000114B9D42E3D804A801F01EF921462A1BC2
:1008E00004A801F02BFF04A801F02AFF01F024F96D
:1008F000044601F03FF923460090294605F1200205
:1009000004A801F089F802900298B0FA80F040093A
:10091000BCE70120BAE700BF00001808E320BBDEF7
:1009200070B54FF0FF3290B005460C4601F030F83C
:100930001C4B984232D14FF480621B4B00219A66C7
:1009400001A81C2202F011F8184B29466846043C05
:10095000009301F03FFF2146684601F03BFF6846E7
:1009600001F041FF01F0F0FC0646B8B940F2022068
:1009700000F0F0F81C22314609A801F0F6FF0C4BFC
:10098000294608A8089301F025FF08A8214601F090
:1009900021FF08A801F027FF01F0D6FC002010B0CD
:1009A00070BD00BFE320BBDE0090004001000543A6
:1009B000010006434FF4806230B50446154B91B0F8
:1009C0009A6600211C2201A801F0CFFF124B21469C
:1009D0006846009301F0FEFE684601F004FF01F056
:1009E000B3FC054698B940F2022000F0B3F81C228F
:1009F000294609A801F0B9FF084B08A82146089329
:100A000001F0E8FE08A801F0EEFE01F09DFC0020D8
:100A100011B030BD009000400000024300000343CD
:100A20004FF4806210B50F4B8CB004469A660021DB
:100A30001C2205A801F099FF0B4B0194049301239C
:100A400002930A4B01A904A8039301F0B9FE04A87C
:100A500001F0C9FE01F078FCB0FA80F040090CB05A
:100A600010BD00BF009000400000084304000020BB
:100A7000004870470080000840B139B100230B6086
:100A8000034B03600B6843F400230B60704700BF07
:100A90000C120008012307B58DF806308DF80730D9
:100AA0004FF04023D3F894305A060AD500F072F87C
:100AB000A0F2022080B2072803D8C923C340DB0775
:100AC00002D400F003FB20B100238DF806308DF82E
:100AD0000730134B5B68013308D14FF4027000F00C
:100AE00039F800238DF806308DF807309DF807306F
:100AF0005BB10B48FFF796FE8DF806009DF80630B7
:100B00001BB94FF4027000F025F89DF8063023B1B0
:100B10000348044B986001F086FC03B05DF804FBC9
:100B20000060000800ED00E04CF23C32014B5A80BE
:100B3000704700BF000000204AF6C030044B5B88BD
:100B400023F00F039BB21B1A58425841704700BF55
:100B500000000020044A08B51080FFF7EDFF10B92F
:100B60004FF20F03538008BD0000002008B5FFF7C7
:100B7000F1FFBFF34F8F0549054BCA6802F4E062ED
:100B80001343CB60BFF34F8F00BFFDE700ED00E0E4
:100B90000400FA054FF20F01084B5A888A4201D12E
:100BA000188870473AB91B8840F20220012B18BF01
:100BB0004FF4007070474FF4007070470000002041
:100BC0004FF4803208B5044B9A6601F077F9B0FA19
:100BD00080F0400908BD00BF00900040072BF8B529
:100BE00006460F4614461D4601D90020F8BD0121D6
:100BF000202001F0DFF80121212001F0DBF88CB189
:100C000044EA06039B07F0D14FF48032064B31468D
:100C10009A66284623463A4601F078F9B0FA80F001
:100C20004009E3E70120E1E7009000401FB51022F2
:100C30000E4B5A6600F000FA4FF47A23B0FBF3F043
:100C40000B4B0F22186000210DF1010001F08DFE09
:100C500001238DF8003040F2FF3369460548ADF8B6
:100C6000023001F0E4FD05B05DF804FB00900040A7
:100C7000B41000200080044030B50D4D0D4A2D68A1
:100C8000536A15FB00F515FA83F09CB280B2A042BE
:100C90002CBF00240124084B1880084B1C7011B194
:100CA000536A8342FCD1012305494B61936130BDF6
:100CB000B410002000800440BC100020C1100020AF
:100CC00000A00440094B0A4A5869127800F001005C
:100CD0000AB108B9704738B9586A064B1B88984260
:100CE00034BF00200120704701207047008004407D
:100CF000C1100020BC1000202DE9F047DFF844911E
:100D0000494BD9F80020494F02F13C01996002F1AA
:100D100024037B627B604FF08063DFF82CA1012508
:100D20000AF58058C8F864304FF40073C8F864308E
:100D300002F580535D6040F6AA630024536141F2DE
:100D400005033B4E3B4802F500519460D465D360E7
:100D50001461D461D4648864C6F82047C6F8384763
:100D6000C6F83047C6F82847C6F82C47D3609368C2
:100D7000936000F061F9DAF870300821C3F3802342
:100D80002B44B0FBF3F24FF4E11302F5E1425201C0
:100D9000B2FBF3F2284B203A03EAC203D9F8002051
:100DA0002046D3612B46042201F01EF82B462A462A
:100DB0000921204601F018F81423C6F820374FF413
:100DC0000023C6F838374FF4102304222146284662
:100DD000C6F830372B4601F007F80522D9F8003065
:100DE0004FF0F0515A6103234FF48020134AC8F8A2
:100DF0006430556091601249546294631464546580
:100E0000486002301466D46517678860A1F5005108
:100E1000C2F89040C2F88C404B630223956402F5FF
:100E200080521361BDE8F0875010002010100020A0
:100E300000C00340FFFF0100F8FF7F0000000440F6
:100E4000004004406010002000800040084B586BB8
:100E500010F0020006D002229A6203F5005301202E
:100E60005A637047DB6A9B07FBD40222014BF6E70B
:100E700000000440002004407F2938B50446154690
:100E800024D8FFF7E3FF20B32046134B62189042AB
:100E90000DD1124B01391A8861F30E121A80104AD3
:100EA000C2F8A0300223936435B9002038BD10F891
:100EB000014B03F8014BEAE7FFF7C8FF0028FBD01E
:100EC000084B1A6893699B06FCD5EEE741F20310C4
:100ED000ECE741F20620E9E7C210002050100020A4
:100EE0000000044060100020014608B5FFF7AEFF87
:100EF0000028FBD0054B1B689A695006FCD5D963C6
:100F00009A699206FCD5002008BD00BF6010002041
:100F10000E4A0F4B106840F20112DB6E934205D16E
:100F200090B10023C0F500701844704740F20222CF
:100F300093420EBF4FF48073064A9B1A984202D028
:100F4000F0D2181A70470020704700BFB810002078
:100F500000000440421100202DE9F843089D04469A
:100F60000E461746F3B9FFF7D3FFB04228BF30460D
:100F700000214FF001084FF002091D4A054604EB1D
:100F8000000C1368DFF870E01A4864451CD101B109
:100F9000136007B13D6041F20420AE4298BF0020CB
:100FA000BDE8F8832DB1FFF741FE00212846FFF789
:100FB00063FEFFF7ADFFB042D5D2002DF9D0FFF7A9
:100FC00081FE0028F5D0CEE71EF803100133B3F5FB
:100FD000007F04F8011B04D10023C0F81090012108
:100FE000D3E7B3F5807F08BFC0F81080F7E700BFF4
:100FF000B8100020001004404211002010B102225D
:10100000094B9A6271B101220020074B07499A628D
:101010004A6307491967074908609A64022203F581
:1010200080531A61002070470000044000200440F3
:1010300010100020B810002030B51C4B87B001AA5A
:1010400003F11005144618685968083303C4AB420D
:101050002246F7D11B782370154B1B6F03F0070353
:10106000032B1FD04FF48022124B5A66124A93680A
:10107000C3F30443102B17D818336B440F4913F8EC
:10108000143C4B430E498B4203D19268C2F3016278
:10109000D340074A106FC0F303300130B3FBF0F0C8
:1010A00007B030BD074BF4E7074BF2E75C2B0008B5
:1010B00000800040009000400000014040420F00CE
:1010C00000093D0000F04902C0EA21014FF08062B2
:1010D000164B13B55A66012304221946184600F030
:1010E00083FE00230093009B632B19DD0123022262
:1010F0001946184600F078FE00230193019BB3F5D2
:10110000FA7F10DB0A4B00225C6F01231846194658
:1011100000F06AFE6FEA540000F0010002B010BD5A
:10112000009B0133DEE7019B0133E6E700900040BE
:1011300000C0034030B5024600230C25054905FBDD
:1011400003F460180C59944203D001330C2BF6D1F0
:10115000002030BD702B0008F0B50023082787B0B1
:10116000CDE9013315463B46009704AA044601F039
:1011700037FA41F203039842064623D194F84330EC
:1011800053B13A46E06C04A901F0D8FA04AA3B46F0
:101190001146A06C01F0C1FA059A049B6A6094F8AC
:1011A00043202B6052B9094A934207D0084A934220
:1011B00004D00822E06C04A901F0C0FA6B68236532
:1011C00000236365304607B0F0BD00BFF70A0AF799
:1011D000FC0404FC2DE9F04799465B6804460F4681
:1011E0009046002B3FD08B0740D14FF000639B6AA5
:1011F000006E1B6981181D1DA9421BD31C33984228
:1012000018D2A842024638BF2A46994294BFC2EB80
:10121000010AC2EB030A101A3E18C5F16800104417
:1012200031465246204401F0A8FB5246FF21304689
:1012300001F09BFB226E0F4B9A420BD80E4902EB3A
:101240000800884206D39B1AFA58C4F880204FF051
:10125000FF32FA50D9E9003542463946206EA84798
:10126000236E434423660020BDE8F08741F202006C
:10127000FAE700BF04800008088000082DE9F0416B
:1012800000254FF0FF3704468846164603F020033A
:1012900080F842301822FF21C0E91855A0F84050CC
:1012A00080F84350A0F8445080F84650C0F8887049
:1012B000683001F05AFB88222946C4E91286C4F836
:1012C0008070C4F8847004F1900001F04EFB074B6D
:1012D000C4F82071C4E9463584F8245116B130466B
:1012E00000F01AFC0020BDE8F08100BF0001010100
:1012F0002DE9F04FA5B09946CDE91123002304460E
:101300000E464FF001082E9D1393139978E094F840
:1013100046300C2B70D8062B4BD908FA03F212F486
:10132000286F40F00F8212F4885F40F0BA810A2BD8
:1013300066D1DFF8BCA3636D072B00F228814FF064
:10134000080B382316AA2046CDE90188CDF800B055
:1013500011A901F045F941F203030A900A9A9A4251
:1013600000F03F810A9B5BE0A3F10E02052A00F228
:101370009482DFE812F006030600F500360236021A
:1013800004030027636D0F2B00F28A80102314AA38
:10139000009320464023CDE9018711A901F020F9EF
:1013A00041F203030890089A9A4200F0CB80089B10
:1013B00036E0013B052B27D8DFE813F074006E0000
:1013C0000600C401DC007B010127636D072B00F2DE
:1013D000DE80082314AA009320464023CDE901773C
:1013E00011A901F0FDF841F203030B900B9A9A4208
:1013F00000F021810B9B13E0A3F10D02062AB3D963
:10140000494584D3002065E014AA204611A9FFF7BE
:10141000A3FE41F203020590059B934208D0059B71
:10142000049341F20303049A9A423FF46EAF50E0F2
:10143000159A1499226500226265AB4A914240F0E8
:101440000781022284F84620EAE7082314AA0093C1
:1014500020464023CDE9018711A901F0C1F841F2EE
:1014600003030690069A9A4201D0069BD8E7149B84
:1014700003F07F43B3F1407F05D0132384F8463057
:1014800041F20903CCE7159BD90706D594F8423001
:1014900043F0010384F842300027636D072BD4D951
:1014A000012303E1204614AA11A9FFF755FE41F2DA
:1014B00003030790079F9F420FD0079F41F203034A
:1014C0000497049A9A423FF420AF049B0BB1002387
:1014D000F370049825B0BDE8F08F1498FFF72AFE4A
:1014E00028B9132341F2080784F84630E6E7437928
:1014F00094F824219A4205D9132341F20E0784F867
:101500004630DBE7026879498A4205D00289D20772
:1015100048BF013384F8243194F84230D9070DD5FF
:10152000028994F84330920706D53BB1132341F268
:10153000010784F84630C1E7002BF7D0037984F81F
:101540004630BBE7D4F848A000F032FB80230221EC
:10155000CDE9000315AA0123504600F031FA11E746
:10156000226D0123A265002284F84330E26584F8ED
:101570004630CAE600213C2215A81491012701F04B
:10158000F4F9D4E91432934204D884F8467041F255
:10159000030345E7009314AA40232046CDE90177D1
:1015A00011A901F01DF841F203030990099A9A422A
:1015B00001D0099B34E70DF1500C06F108030DF141
:1015C000680E624603CA724518605960944603F17A
:1015D0000803F6D110681860337843F001033370C4
:1015E000CFE7337843F004033370179BB36273780B
:1015F0005F071CD50020236DCDF850A0C4F88430BF
:1016000094F84530606643F0020384F84530EF6893
:101610006FB104222B6814A9B847606E2B685A4634
:10162000EF6816A90830B847636E103363660B2362
:1016300084F846307FE6337843F002033370149B1E
:101640007360236D083B7362159BB3F1006F05D087
:10165000132384F8463041F20103E1E6042384F8C1
:10166000463094F8453043F0010384F845300023B8
:101670006366AAE6042314AA009320464023CDE91A
:10168000017711A900F0ACFF41F203030C900C9A12
:101690009A4201D00C9BC3E6226D149B042A01D907
:1016A00023660127636D032BE4D9092384F84630B0
:1016B0006DE700236366072359E79F4252D89F4294
:1016C00028BF1F46402314AA2046CDE90188009771
:1016D00011A900F085FF41F203030D900D9A9A4283
:1016E00011D00D9B9CE600BFEB17A603F90707F985
:1016F000EB17A65E402F28BF40279F4228BF1F46FA
:1017000027F00307DEE794F846B0BBF1070F2FD0B0
:10171000042FC7F1040A88BF4FF0000A14AB5246E9
:10172000FF21D81901F021F9BBF1090FBA442DD1DD
:101730002B465246204614A9FFF74CFD0D900D9BF9
:10174000002BCED1D4E914739F427FF6A9AEFF1AC5
:10175000DDE912329B1A94F84020032F1344ACD9D0
:10176000032BC7D8204611A900F019FF002357E624
:10177000D5F808A0BAF1000FCAD02B683A46606EBF
:1017800014A9D047636E3B446366DBE7BBF1040FEB
:101790001DD173789807D5D5EB68002BD2D0626E37
:1017A000042A0BD80AEB0203062B07D915AB9B1AA8
:1017B0001A68C4F884204FF0FF321A60EF682B6873
:1017C0005246606E14A9B847636E5344DCE7BBF120
:1017D0000B0FB7D173785907B4D5EF68002FEED14E
:1017E000B0E74FF000618A6A496B1269503A914242
:1017F0003FF631AF112B0FD194F81831002B7FF445
:101800004FAE41F206030E930E9A9A4202D1132371
:1018100084F846300E9B03E694F84430002B7FF4A6
:101820003FAECDE90133402314AA0093204611A90D
:1018300000F0D6FE41F203030E900E9A9A42E9D1CF
:10184000E06C00F07DFF94F81831A3B104F1B4030B
:101850000093E06C04F194031CAA14A900F0DCF8D6
:101860000E900E9BA3B10023F370132384F846302F
:1018700041F20603D4E5D4F84CA000F05DF9074628
:1018800000F078F93B4600901CAA504614A9E5E701
:101890000123F37084F8443002E600234FF004087B
:1018A000CDE9013314AA40232046CDF8008011A9C8
:1018B00000F096FE41F203030F900F9A9A4202D075
:1018C0000F9B049305E6D4F888202F4B9A4205D04D
:1018D000132384F8463041F20503F2E70123F37045
:1018E00094F84530DA0707D5EF682FB142464046F5
:1018F0002B6804F18401B84794F845309B0707D55D
:10190000EF682FB104222B68104604F18401B84718
:10191000236E6BB36F685FB34FF0FF3304F1800841
:101920000422414610A8109301F00FF820B10422C0
:1019300041462B681548B84704F168090422494616
:1019400010A801F002F898B14FF000639B6A1422CE
:10195000D3F8108004F16C0108F10800D5E90037D4
:10196000B847D5E900370422494608EB0200B847DA
:101970000123B3700E2384F846300023A1E700232F
:10198000F37041F20700A5E5E320BBDE0480000808
:1019900030B50824094B00255C66012403F5FE23BD
:1019A0005C6001449D601A61DC60884201D1586A24
:1019B00030BD10F8012B1A62F7E700BF009000401D
:1019C0002DE9F04116464FF480621D46114B00F19F
:1019D000200804469A6640460F4600F097FFDDE96E
:1019E0000612404600F096FF002384F858706364A6
:1019F0003368C4F859307368C4F85D30B368C4F80C
:101A000061302B0C6DBA84F86530A4F86650BDE8DF
:101A1000F08100BF009000402DE9F04315464FF4DF
:101A200080621C46364B99B0DDF880900E46074622
:101A30009A66002861D000295FD0002D5DD0002C6F
:101A400058D0304B304AB9F1000F14BF9846904639
:101A50001C22002111A800F088FF2C4B414610A841
:101A6000109300F0B7FE202110A800F0B3FE012271
:101A7000274B019402920393CDF8109005920693A0
:101A800054B1B9F1000F07D001A910A800F08EFEE3
:101A900004A910A800F08AFE079701271C4C07A98B
:101AA00010A80897099400F081FE0AA910A80A96C8
:101AB0000B970C940D950E970F9400F077FE0DA9DF
:101AC00010A800F073FE10A800F08DFE114B0093DB
:101AD0004FF098435A6CD202FCD55B6D40F2046023
:101AE00003F470230093009B002B08BF002019B063
:101AF000BDE8F083DFF81080AAE740F20160F6E766
:101B0000009000401F2400801F24FC840000010678
:101B100020000020785634124FF4806210B504463D
:101B2000044B9A6600F00FFE2046BDE810400021ED
:101B300000F00DBE009000404FF4806200B50B4BEA
:101B400099B09A6600212022684600F00EFF4023DB
:101B50000021684608AA00F079FA20F01000012858
:101B6000034818BF002019B05DF804FB0090004046
:101B70004CE317084FF4806200B50B4B99B09A669E
:101B800000212022684600F0F0FE40230021684634
:101B900008AA00F05BFA20F010000128034818BFE3
:101BA000002019B05DF804FB009000406CE31708BA
:101BB0000048704786E217082DE9F3471446DDE92F
:101BC0000A920D461F4600284DD14CB313683F2B97
:101BD0002AD8516851B32549002F14BFB84688460A
:101BE00003F03F061B19136022BF53680133536093
:101BF000FEB93F2C0ED9A3092A46009341463B4625
:101C0000002000F083F824F03F031D4404F03F045B
:101C100034B100262246294609EB060000F0ADFE4D
:101C2000002002B0BDE8F087B846D9E7DFF83C8075
:101C3000D6E7C6F1400A5445ECD32946524609EB93
:101C4000060000F09AFE0123264400934A463B46D4
:101C500041460020A6F1400400F058F83F2C5544BE
:101C6000D6D9B846C7E70248DBE700BF402C0008DA
:101C700080AFFFFF2DE9F0411746146886B01E467D
:101C8000E3008DF80F3063098DF80E30630B8DF88B
:101C90000D30630D8DF80C3053680546DA0002EB09
:101CA00054728DF80B2004F03F045A09372C8DF83C
:101CB0000A204FEA53324FEA53538DF809208846E1
:101CC00094BFC4F13802C4F17802CDE900178DF851
:101CD00008300D4903460020FFF76EFF08222B460F
:101CE0000020CDE900870DEB0201FFF765FF2846D4
:101CF00005F1200350F8042B984246F8042BF9D143
:101D0000002006B0BDE8F081002C0008F0B51746B1
:101D10004FF480621D46254B93B00E469A660446EA
:101D2000202200210AA800F020FE01204FF00052DE
:101D300001970290039204960590069207950890E9
:101D40000992002C2FD1189C194BA40121460AA8F6
:101D50000A9300F03FFD039B04A91C430394069BD8
:101D60000AA843F020030693099B43F0200309933C
:101D700000F01CFD01A90AA800F018FD07A90AA897
:101D800000F01EFD0AA800F02EFD4FF098435A6C9B
:101D9000D202FCD55B6D13F4702F14BF6FF06F008F
:101DA000002013B0F0BD6FF07100FAE70090004022
:101DB00000040103430905D0012B0CD0022B084B72
:101DC00018BF002300F01F0039B103F58053012232
:101DD00082401A607047034BF4E703F50053F6E7BF
:101DE00068800040648000402DE9F04105460F46C0
:101DF0001E4690464AB101233022194C8B4002FB0B
:101E0000004436B304F5825423600F21072F05EBFD
:101E1000450388BFA7F108044FEA0313114895BF93
:101E2000BC00A40004330C3308FA04F2A1401844A7
:101E300000F0ADFCB8F1000F09D101233021084AB0
:101E4000BB4001FB05223EB102F582521360BDE8A2
:101E5000F08104F50154D7E702F50152F6E700BF1F
:101E600000C0034030C00340F0B5114A114C124E7F
:101E700000F00105E3695F0713D40DB9334213D1B4
:101E800003EA00078F4207D10B4A1A40002A0CBF11
:101E900000206FF00100F0BD013AEBD16FF00200BD
:101EA000F9E74FF0FF30F6E76FF00100F3E700BF0E
:101EB0008096980000000340020001004FF4803239
:101EC00038B50E4B0E4C9A66E56941F671331540F4
:101ED0000122E3630B4B0021DA60022360612120C1
:101EE0002361FFF7C1FF10B92120FFF7BDFF0122D9
:101EF000054BDA600DB10023E36338BD009000406C
:101F00000000034000100340002003402DE9F04F83
:101F100001274FF4302530268400DFF8C0C004F1DB
:101F2000402404F58024CCF80470656000244FF44C
:101F30008035DFF8ACE0DFF8AC9006FB00E6F46536
:101F400034663467234CDFF8A0A0A56641F67135EE
:101F500004F51C34D4F81C80E563E56807FA00F04A
:101F60003D43E5604BB9E26818F4803F22F001027E
:101F7000E26029D10020BDE8F08F01F5005505EAA7
:101F800009056D1A9D4228BF1D466161D4F81CB039
:101F9000AF081BF0040F19D1013F3F0147F0605714
:101FA0007766B266C6F86CA0CCF82400DEF8347010
:101FB0003842FBD0084F294478630427CCF8280026
:101FC0002A4427615B1BCDE7E363D3E74FF0FF3083
:101FD000D1E700BF00900040002004400010044002
:101FE0000000044000E0FFFF180003404FF480624F
:101FF000014B00209A667047009000404FF48062C9
:10200000014B00209A66704700A0004008B5B0B1AF
:102010004FF480620B4B9A6600F0E5FB4FF098435B
:102020005A6CD202FCD54FF48062586D064B10F406
:1020300070209A6604D0BDE8084000F039BC212029
:1020400008BD00BF0090004000A000401FB504463E
:1020500060B35AB3402B29D1930727D1042925D83F
:10206000DFE801F0031A24221E004FF480731049A8
:102070000B4323600023C4E90133E3610123019290
:1020800002930C4B204601A9039300F099FB2046D4
:10209000FFF7BCFF04B010BD4FF400730449E7E73D
:1020A00005494FF48063E3E70149FAE72120F1E7AE
:1020B000010008FF40000020000008FF2DE9F0416A
:1020C000012905460E4690461F4692B04AD804683C
:1020D00024F04003802B02D0B4F5807F45D11C2230
:1020E00000210BA800F041FC234A244B0121012EC2
:1020F00008BF13460A932B1D0193E408204B44F0BC
:10210000005402910AA80394CDF81080059106931B
:102110000797089101A9099300F048FB04A90AA8B0
:1021200000F044FB07A90AA800F04AFB29680AA8A6
:10213000C90800F04FFB10210AA800F04BFBFFF785
:1021400055FFA8B90AA800F04EFB4FF098435A6C0F
:10215000D202FCD55C6DFFF751FF04F4702012B081
:10216000BDE8F0816FF02000F9E76FF07100F6E74D
:102170004FF0FF30F3E700BF00010004000101044D
:10218000100000202DE9F04F074689469846164674
:1021900099B082B115683B6823F04002802A03D0D1
:1021A000B3F5807F40F0A68000244C4505D306B1EE
:1021B000356000207BE01546EDE75DB1239B229A58
:1021C0001B5D525D01355340249A05F00F051355F0
:1021D0000134EAE7A9EB040ABAF10F0F0BD8239BED
:1021E00003EB040A249B1C44239B03EB090BDA45F5
:1021F00060D14C46D9E71C22294611A800F0B5FB56
:102200003E4B3A6810933B1D01930123D20842F0E4
:102210000052029303923A4ACDF810800593069239
:10222000CDF81C8008930992239A249922442AF01D
:102230000F0A0A9221444AF000520B9310A80C9204
:102240000D9101A90E930F9200F0B0FA04A910A805
:1022500000F0ACFA0AA910A800F0A8FA0DA910A87D
:1022600000F0AEFA07A910A800F0AAFA396810A881
:10227000C90800F0AFFA514610A800F0ABFAFFF71A
:10228000B5FE90B910A800F0AEFA4FF098435A6C22
:10229000D202FCD5586D544400F4702BFFF7AEFE0B
:1022A000BBF1000F9BD0584601E04FF0FF3019B052
:1022B000BDE8F08F55B1229A1AF8013B525D013505
:1022C000534004F8013B05F00F0590E74246012119
:1022D0003846229BFFF7F2FE0028E8D108F11002F1
:1022E00012F8013D0133DBB21370002BE3D19045AE
:1022F000F6D1E0E76FF01F00D9E700BF0303000449
:1023000010000020FEE710B53AB1002350F823403A
:1023100041F8234001339A42F8D110BD00F012B8C1
:10232000FEF740B8704710B50446FEF7DDFD182CE7
:1023300007D12046FEF7D8FD2046BDE81040FEF745
:10234000D3BD10BDFEF7D8BC4FF098435A6CD202F3
:10235000FCD5586D00F470207047C0F30C032DE9D4
:10236000F04105460F4616460BB9FEF729FC05F568
:10237000005424F4FF5424F01F0405EB0608A04584
:1023800007D8324639462846BDE8F0410223FEF719
:1023900025BC2046FEF714FC04F50054EFE770B4AA
:1023A0004FF00065AD6A03462E69864206D86C6917
:1023B00013449C4202D370BCFFF7CFBF70BC704780
:1023C000036913F0FE0F0CBF01200020704738B5E1
:1023D00004460D46FEF700FA38B16369012B07D1B8
:1023E0002046FFF7EDFF10B1A46901202C6038BD35
:1023F0000020FCE74FF000639B6A986870474FF03D
:10240000FF3313B5044601A80193FEF709FB20B181
:10241000019BA3422CBF0020012002B010BD002070
:1024200070470020704703461846016881F308880A
:1024300081F3098840688746FEE74FF40170FEF794
:1024400095BB4FF04023D3F8842010B5110606D475
:102450004FF400621A67D3F88420D206FBD4FFF74A
:10246000DEFFFEF761FBFFF759FFFFF759FF18B1D9
:102470004FF40170FEF77AFBFDF78CFF0446FFF77F
:1024800051FF34B940F20120FEF770FB4FF40170A8
:1024900009E040F203739C42F4D0A4F20574012CCD
:1024A000F4D840F20320FEF761FB002010BDB1F527
:1024B0000D7F10B504460FD34FF40D72002100F0CC
:1024C00054FA04F5DE7204F5AA7104F12C0000231D
:1024D000BDE81040FEF7D2BE40F2052010BD13B596
:1024E0000446009101462C30FEF702FFC4F830028A
:1024F00018B141F20703984204D1A37823B1E078E0
:1025000000F2022002B010BD40F20120FAE72DE9EE
:10251000F04387B00DF1080904460E461746002126
:10252000102248461D46DDF8388000F01EFA0021D2
:102530001C22C8F80010284600F017FA32463B4625
:102540002146CDF8009004F12C00FEF7D1FE23784F
:102550009A0744BF6268C8F80020DB0709D504F178
:10256000080304F1240253F8041B934245F8041BAA
:10257000F9D1237840F20640002B18BF002007B0A5
:10258000BDE8F0834FF40D707047012307B50022BA
:1025900000911946FEF7E0FC03B05DF804FB70B54E
:1025A000D1E90152AA4205D290F840302B449B1A3F
:1025B000402B10D9002012E00A6890F84040D65C09
:1025C00090F841200133224402F03F020134865446
:1025D0008B6080F840408B689D42EDD8012070BD33
:1025E0002DE9F84390F840C017469E46D1E90123F3
:1025F000089DD21A6244954204460E469DF82490E6
:102600009DF828800AD9FFF7CAFF002867D1132355
:1026100041F2020084F84630BDE8F883754555D88C
:10262000002394F840200AB19D4235D1D6E901211A
:10263000914201D29D4241D89D424DD12946384612
:10264000D4F88820FFF7A4F9C4F88800B9F1000F86
:1026500004D02A463946E06C00F070F894F8433014
:10266000B8F1000F06D08BB12B463A463946A06C24
:1026700000F053F894F8433043B1E36DA26D2B445E
:102680009342E36524BF002384F84330636D41F235
:1026900003002B446365BFE794F84120A25CFA5421
:1026A00094F841200133013202F03F0284F84120C6
:1026B00094F84020013A84F84020B2E73268525C36
:1026C000FA54B26801330132B260AFE741F201005F
:1026D000132384F846309FE741F20200F8E7002018
:1026E0009AE749BA89B24840C0F30312424013B294
:1026F00083EA0233580100F4FF509BB25840704700
:1027000038B5044645181046AC4200D138BD0146E4
:1027100014F8010BFFF7E5FFF6E71FB50C46194665
:1027200000F14803CDE90142009300F1440200F1B9
:1027300058032030FFF726FD04B010BD00F00CB8A0
:10274000014600F016B86822002100F00EB90346D9
:102750000020C3E90000704707B500F1280301908D
:10276000009300F108030020FFF726FA03B05DF89C
:1027700004FB02460B4600F128010830FFF77ABA45
:10278000EFF3108072B6704700B962B6704770B54B
:10279000054614460E46FFF7F3FF2B685C403440B5
:1027A0005C402C60BDE87040FFF7EEBF436813B992
:1027B000416070475B685A68012AFBD159607047D5
:1027C000836813B9816070475B685A68012AFBD13E
:1027D00059607047C369032B9FBF00EB830201332D
:1027E000D160C3617047C369042B14D84FF098427D
:1027F000116CC902FCD504339B0013650168103BC2
:1028000011604168116050F8081F11604FF0984244
:102810000344984200D1704750F8041F1160F8E754
:10282000036BDA0702D503695B06F9D4704710B56C
:10283000FFF7F6FF0122044600F500531A63236BED
:102840009B07FCD40B794A881B0243EA82438A7AAD
:1028500013434A7843EA8213CA7A43EAC2130A7BD3
:1028600043EA42134A7B43EA02138A7B43EAC203E8
:10287000CA7B43EAC2238A7943EA0243CA7943EA1C
:1028800042430122636004F580531A630A780AB94F
:102890000223E360002363624B79087A1B01497AC3
:1028A00043EA80030B43A3600AB10123E36010BD38
:1028B000B0F5802F22D010D8B0F5003F20D007D837
:1028C00018B3B0F5803F08BF482018BF01207047FB
:1028D000B0F5403F08BF2C20F7E7B0F5302F11D0FE
:1028E00007D8B0F5E02F0FD0B0F5202F08BF10208B
:1028F000EBE7B0F57F0F08BF0620E6E74B207047F7
:102900002A2070471120704721207047242200217F
:1029100000F02BB870B515460E462422002104465F
:1029200000F023F825F04003802B02D0B5F5807F1E
:1029300008D12046314640F8045BEA0800F01DF853
:10294000002070BD6FF01F00FBE70139024410B595
:10295000904201D1002005E0037811F8014FA34215
:1029600001D0181B10BD0130F2E702440346934228
:1029700000D1704703F8011BF9E70A44431E914256
:1029800000D1704710B511F8014B914203F8014F87
:10299000F9D110BD000000000000000000000000A0
:1029A000F8B500BFF8BC08BC9E467047F8B500BF3C
:1029B000F8BC08BC9E467047000000000000000004
:1029C0000000000000000000000000000000000007
:1029D00000000000000000000000000000000000F7
:1029E000000000009F230008000000007D07000891
:1029F0000D0A4765636B6F20426F6F746C6F616483
:102A000065722076582E59592E5A5A0D0A312E20A9
:102A100075706C6F61642067626C0D0A322E2072D3
:102A2000756E0D0A332E2065626C20696E666F0D1F
:102A30000A424C203E20000D0A4661696C65642004
:102A4000746F20626F6F740D0A000D0A66696C6501
:102A5000206572726F72203078000D0A626C6F63AD
:102A60006B206572726F72203078000D0A536572A8
:102A700069616C2075706C6F61642061626F727443
:102A800065640D0A000D0A53657269616C207570EA
:102A90006C6F616420636F6D706C6574650D0A0006
:102AA0000D0A626567696E2075706C6F61640D0A4E
:102AB00000B814B6F1E0CFF3ADB7DD25C9FA79B7A8
:102AC0001300000013B779FAC925DDB7ADF3CFE0E5
:102AD000F1B614B80102000000000000CC2C000088
:102AE000400000000300040200000000000000009D
:102AF00000000000000000000000000000000000D6
:102B000000000000000000000000000000000000C5
:102B10000000000007B0CD5E0200000003000402C8
:102B2000D02C00000060000800001808F00410001D
:102B30001F2400082324000825080008AF240008EB
:102B4000DF240008000000000F250008852500088C
:102B500000000000790A0008710A0008040000075C
:102B600000000D1013001A202630384050000000DD
:102B7000EB17A6030201000003000000FA0606FAA4
:102B80000F04000003000000F40A0AF40505000029
:102B900001000000EB17A65E0A060000010000001D
:102BA000F50909F50307000001000000F60808F622
:102BB0000608000000000000FE0101FE08080000F9
:102BC00000000000FD0303FD0C08000000000000F1
:102BD000F90707F91009000002000000F30B0BF3DE
:102BE000110A000003000000F70A0AF7120B0000A8
:102BF00003000000FC0404FC0D0C000003000000B6
:102C00008000000000000000000000000000000044
:102C100000000000000000000000000000000000B4
:102C200000000000000000000000000000000000A4
:102C30000000000000000000000000000000000094
:102C40006A09E667BB67AE853C6EF372A54FF53A3D
:102C5000510E527F9B05688C1F83D9AB5BE0CD1969
:0C2C60006C2C0008101000201800000070
:102C6C00F00F1003000000004211002013000000C0
:102C7C000900000000010000020200001300000027
:102C8C00F00F10030000000042120020130000009F
:102C9C00090000000002000001010000D3FFFFFF4B
:102CAC00F07F1030C2100020000000000000000077
:102CBC0000C00540290000001D020008F5010008B5
:04000005080001717D
:00000001FF
