:020000040800F2
:100000000810002071010008B1200008B12100088B
:10001000B1200008B1200008B1200008B12000087C
:10002000B1200008B120000824280008B1200008F1
:10003000B1200008D4270008B1200008B120000832
:10004000B1200008B1200008B1200008B12000084C
:10005000B1200008B1200008B1200008B12000083C
:10006000B1200008B1200008B1200008B12000082C
:10007000B1200008B1200008B1200008B12000081C
:10008000B1200008B1200008B1200008B12000080C
:10009000B1200008B1200008B1200008B1200008FC
:1000A000B1200008B1200008B1200008B1200008EC
:1000B000B1200008B1200008B1200008B1200008DC
:1000C000B1200008B1200008B1200008B1200008CC
:1000D000B1200008B1200008B1200008B1200008BC
:1000E000B1200008B1200008B1200008B1200008AC
:1000F000B1200008B1200008B1200008B12000089C
:10010000B1200008B1200008B1200008B12000088B
:10011000B1200008B1200008B1200008B12000087B
:10012000B1200008B1200008B1200008B12000086B
:10013000B1200008B1200008B1200008B12000085B
:10014000B1200008B1200008B1200008B12000084B
:10015000B1200008B1200008B1200008B12000083B
:10016000B1200008B1200008B1200008B12000082B
:1001700008B50D4B83F30A880C4B09A1D1E90001A6
:10018000C3E9000100F090F800F07AFA00F07EF880
:1001900000F056F800F068F800F02AFAAFF300809B
:1001A000A5EDF5FEA5EDF5FE0800002008100020E5
:1001B0000348044B834202D0034B03B118477047F6
:1001C000181000201810002000000000064B0749FE
:1001D000C91A891048BF0131491003D0044B0BB133
:1001E00001481847704700BF181000201810002061
:1001F0000000000010B5064C237843B9FFF7D8FF84
:10020000044B13B10448AFF300800123237010BDE9
:100210003010002000000000D029000808B5054B70
:100220001BB105490548AFF30080BDE80840FFF762
:10023000CDBF00BF0000000018100020D02900082A
:10024000064B0748DA1C121AC11E22F0030299421B
:1002500088BF0022034902F078BA00BF18100020BE
:1002600010100020DC290008064B0748DA1C121A7F
:10027000C11E22F00302994288BF0022002102F031
:100280005CBA00BF34100020181000200348044A54
:100290000449121A921001F00CBF00BFE4290008B3
:1002A000E429000834100020044B054A9A60D3F872
:1002B000882042F47002C3F88820704700ED00E007
:1002C0000000000837B500F1006303F50043019317
:1002D000104B0D46984214461AD8019A0E4B9A427A
:1002E00016D2019A9B1AA34212D348B94FF0006369
:1002F0009B6A0A4A5969914202D9186900F086FA44
:1003000022462946019803B0BDE8304001F0E5BE21
:1003100003B030BDFF7FFFF700E017080080000842
:100320007FB56FF0006200F178419142034619D227
:100330006D460D4A02F110062C46106851680832CD
:1003400003C4B2422546F7D15A1E04A90F3311F84F
:10035000014D12F8010F844204D19A42F7D10120D5
:1003600004B070BD0020FBE7C0270008F0B50368AB
:10037000044603F16043B3F5802F9FB033D84FF0AC
:1003800000639B6A42681E6996422CD8344B9A429D
:1003900029D8456B06F14002AA425ED89D425CD83E
:1003A0002846FFF7BDFF002857D0284601F0C8FEB9
:1003B00080B16B6973B1022B0ED1AB69C4F104013A
:1003C00019444FF0FF32204600F09AFE254BC31A25
:1003D000584258411FB0F0BD40F2046328460293D2
:1003E000FFF79EFF08B90020F4E74FF000635F6B52
:1003F0003846FFF795FF0028F5D0A6F150039F423D
:10040000F1D8284603A901F0A2FE0028EBD0039DF5
:10041000AE42E8D8AC42E6D8114B9D42E3D804A8DE
:1004200000F032FF21462A1B04A801F0E6FF04A8D1
:1004300001F0E5FF00F038FF044600F053FF2346CB
:100440000090294605F1200204A800F09DFE0290CC
:100450000298B0FA80F04009BCE70120BAE700BF7B
:1004600000001808E320BBDE70B54FF0FF3290B0FB
:1004700005460C4600F044FE1C4B984232D14FF426
:1004800080621B4B00219A6601A81C2202F055F9DC
:10049000184B29466846043C009302F0CBF82146ED
:1004A000684602F0C7F8684602F0CDF801F00CFE8D
:1004B0000646B8B940F2022000F054F91C22314639
:1004C00009A802F03AF90C4B294608A8089302F053
:1004D000B1F808A8214602F0ADF808A802F0B3F878
:1004E00001F0F2FD002010B070BD00BFE320BBDEC4
:1004F0000090004001000543010006434FF4806274
:1005000030B50446154B91B09A6600211C2201A813
:1005100002F013F9124B21466846009302F08AF864
:10052000684602F090F801F0CFFD054698B940F218
:10053000022000F017F91C22294609A802F0FDF854
:10054000084B08A82146089302F074F808A802F0A6
:100550007AF801F0B9FD002011B030BD00900040E4
:1005600000000243000003434FF4806210B50F4BBC
:100570008CB004469A6600211C2205A802F0DDF822
:100580000B4B01940493012302930A4B01A904A885
:10059000039302F045F804A802F055F801F094FD29
:1005A000B0FA80F040090CB010BD00BF00900040D0
:1005B0000000084304000020004870470080000845
:1005C00038B50C46054680B179B100230B60074B66
:1005D000036001F0F9FF01301EBF2B6843F4C043F4
:1005E0002B60236843F40023236038BD0C120008FD
:1005F0004FF04023D3F8842013B5110606D44FF4EE
:1006000000621A67D3F88420D206FBD401F0C2FD41
:1006100000F09AF808B900F07FF801F043FF0446B3
:1006200058B900F091F808B100F086F840F20120C6
:1006300000F0C2F84FF4017018E000F085F808B936
:1006400000F072F800F09AF8012802D900F064F87E
:10065000FEE700F09FF8094B0193019B002B0ADC99
:1006600040F205439C42E5D140F2032000F0A4F89B
:10067000002002B010BD019B013BEDE700350C00EE
:10068000012307B58DF806308DF807304FF0402371
:10069000D3F894305A060FD500F0A2F8A0F2022049
:1006A00080B2072808D8C923C340DB0742BF002314
:1006B0008DF806308DF80730154B5B68013308D193
:1006C0004FF4027000F04EF800238DF806308DF8DC
:1006D00007309DF807305BB10D48FFF747FE8DF8F6
:1006E00006009DF806301BB94FF4027000F03AF88E
:1006F0009DF806304BB100F027F808B100F01CF867
:100700000348044B986001F049FD03B05DF804FB19
:100710000060000800ED00E04CF23C32014B5A80D2
:10072000704700BF000000204AF6C032014B5A80DB
:10073000704700BF000000204FF20F02014B5A80AB
:10074000704700BF000000204AF6C030044B5B88B1
:1007500023F00F039BB21B1A58425841704700BF49
:1007600000000020044A08B51080FFF7EDFF10B923
:100770004FF20F03538008BD0000002008B5FFF7BB
:10078000E3FF18B1024B588800F00F0008BD00BF0E
:100790000000002008B5FFF7D7FF48B1054A53888D
:1007A00003F00F010F2914BF013323F00F0353800F
:1007B00008BD00BF0000002008B5FFF7D3FFBFF35E
:1007C0004F8F0549054BCA6802F4E0621343CB60C2
:1007D000BFF34F8F00BFFDE700ED00E00400FA0516
:1007E0004FF20F01084B5A888A4201D1188870478E
:1007F0003AB91B8840F20220012B18BF4FF4007059
:1008000070474FF400707047000000204FF48032B2
:1008100008B5044B9A6601F0EBF9B0FA80F0400994
:1008200008BD00BF00900040072BF8B506460F46F4
:1008300014461D4601D90020F8BD0121202001F0F9
:1008400069F90121212001F065F98CB144EA060320
:100850009B07F0D14FF48032064B31469A6628460A
:1008600023463A4601F028FAB0FA80F04009E3E75F
:100870000120E1E700900040134610B562B1034348
:100880009B070BD14FF48034054B9C6601F0D8F9DF
:10089000B0FA80F0400910BD0120FCE70020FAE723
:1008A0000090004030B5024600230C25054905FBA9
:1008B00003F460180C59944203D001330C2BF6D189
:1008C000002030BD6C280008F0B50023082787B051
:1008D000CDE9013315463B46009704AA044601F0D2
:1008E000FAFC41F203039842064623D194F84330C0
:1008F00053B13A46E06C04A901F07FFD04AA3B46DF
:100900001146A06C01F068FD059A049B6A6094F89A
:1009100043202B6052B9094A934207D0084A9342B8
:1009200004D00822E06C04A901F067FD6B68236520
:1009300000236365304607B0F0BD00BFF70A0AF731
:10094000FC0404FC2DE9F04799465B6804460F4619
:100950009046002B3FD08B0740D14FF000639B6A3D
:10096000006E1B6981181D1DA9421BD31C339842C0
:1009700018D2A842024638BF2A46994294BFC2EB19
:10098000010AC2EB030A101A3E18C5F168001044B0
:1009900031465246204401F0D8FE5246FF213046EF
:1009A00001F0CBFE226E0F4B9A420BD80E4902EBA0
:1009B0000800884206D39B1AFA58C4F880204FF0EA
:1009C000FF32FA50D9E9003542463946206EA84731
:1009D000236E434423660020BDE8F08741F2020005
:1009E000FAE700BF04800008088000082DE9F04104
:1009F00000254FF0FF3704468846164603F02003D3
:100A000080F842301822FF21C0E91855A0F8405064
:100A100080F84350A0F8445080F84650C0F88870E1
:100A2000683001F08AFE88222946C4E91286C4F89B
:100A30008070C4F8847004F1900001F07EFE074BD2
:100A4000C4F82071C4E9463584F8245116B1304603
:100A500000F01AFC0020BDE8F08100BF0001010198
:100A60002DE9F04FA5B09946CDE9112300230446A6
:100A70000E464FF001082E9D1393139978E094F8D9
:100A800046300C2B70D8062B4BD908FA03F212F41F
:100A9000286F40F00F8212F4885F40F0BA810A2B71
:100AA00066D1DFF8BCA3636D072B00F228814FF0FD
:100AB000080B382316AA2046CDE90188CDF800B0EE
:100AC00011A901F008FC41F203030A900A9A9A4224
:100AD00000F03F810A9B5BE0A3F10E02052A00F2C1
:100AE0009482DFE812F006030600F50036023602B3
:100AF00004030027636D0F2B00F28A80102314AAD1
:100B0000009320464023CDE9018711A901F0E3FBC2
:100B100041F203030890089A9A4200F0CB80089BA8
:100B200036E0013B052B27D8DFE813F074006E0098
:100B30000600C401DC007B010127636D072B00F276
:100B4000DE80082314AA009320464023CDE90177D4
:100B500011A901F0C0FB41F203030B900B9A9A42DA
:100B600000F021810B9B13E0A3F10D02062AB3D9FB
:100B7000494584D3002065E014AA204611A9FFF757
:100B8000A3FE41F203020590059B934208D0059B0A
:100B9000049341F20303049A9A423FF46EAF50E08B
:100BA000159A1499226500226265AB4A914240F081
:100BB0000781022284F84620EAE7082314AA00935A
:100BC00020464023CDE9018711A901F084FB41F2C1
:100BD00003030690069A9A4201D0069BD8E7149B1D
:100BE00003F07F43B3F1407F05D0132384F84630F0
:100BF00041F20903CCE7159BD90706D594F842309A
:100C000043F0010384F842300027636D072BD4D9E9
:100C1000012303E1204614AA11A9FFF755FE41F272
:100C200003030790079F9F420FD0079F41F20303E2
:100C30000497049A9A423FF420AF049B0BB100231F
:100C4000F370049825B0BDE8F08F1498FFF72AFEE2
:100C500028B9132341F2080784F84630E6E74379C0
:100C600094F824219A4205D9132341F20E0784F8FF
:100C70004630DBE7026879498A4205D00289D2070B
:100C800048BF013384F8243194F84230D9070DD598
:100C9000028994F84330920706D53BB1132341F201
:100CA000010784F84630C1E7002BF7D0037984F8B8
:100CB0004630BBE7D4F848A000F032FB8023022185
:100CC000CDE9000315AA0123504600F031FA11E7DF
:100CD000226D0123A265002284F84330E26584F886
:100CE0004630CAE600213C2215A81491012701F0E4
:100CF00024FDD4E91432934204D884F8467041F2BA
:100D0000030345E7009314AA40232046CDE9017769
:100D100011A901F0E0FA41F203030990099A9A42FD
:100D200001D0099B34E70DF1500C06F108030DF1D9
:100D3000680E624603CA724518605960944603F112
:100D40000803F6D110681860337843F0010333705C
:100D5000CFE7337843F004033370179BB3627378A3
:100D60005F071CD50020236DCDF850A0C4F8843057
:100D700094F84530606643F0020384F84530EF682C
:100D80006FB104222B6814A9B847606E2B685A46CD
:100D9000EF6816A90830B847636E103363660B23FB
:100DA00084F846307FE6337843F002033370149BB7
:100DB0007360236D083B7362159BB3F1006F05D020
:100DC000132384F8463041F20103E1E6042384F85A
:100DD000463094F8453043F0010384F84530002351
:100DE0006366AAE6042314AA009320464023CDE9B3
:100DF000017711A901F06FFA41F203030C900C9AEC
:100E00009A4201D00C9BC3E6226D149B042A01D99F
:100E100023660127636D032BE4D9092384F8463048
:100E20006DE700236366072359E79F4252D89F422C
:100E300028BF1F46402314AA2046CDE90188009709
:100E400011A901F048FA41F203030D900D9A9A425C
:100E500011D00D9B9CE600BFEB17A603F90707F91D
:100E6000EB17A65E402F28BF40279F4228BF1F4692
:100E700027F00307DEE794F846B0BBF1070F2FD049
:100E8000042FC7F1040A88BF4FF0000A14AB524682
:100E9000FF21D81901F051FCBBF1090FBA442DD143
:100EA0002B465246204614A9FFF74CFD0D900D9B92
:100EB000002BCED1D4E914739F427FF6A9AEFF1A5E
:100EC000DDE912329B1A94F84020032F1344ACD969
:100ED000032BC7D8204611A901F0DCF9002357E6FF
:100EE000D5F808A0BAF1000FCAD02B683A46606E58
:100EF00014A9D047636E3B446366DBE7BBF1040F84
:100F00001DD173789807D5D5EB68002BD2D0626ECF
:100F1000042A0BD80AEB0203062B07D915AB9B1A40
:100F20001A68C4F884204FF0FF321A60EF682B680B
:100F30005246606E14A9B847636E5344DCE7BBF1B8
:100F40000B0FB7D173785907B4D5EF68002FEED1E6
:100F5000B0E74FF000618A6A496B1269503A9142DA
:100F60003FF631AF112B0FD194F81831002B7FF4DD
:100F70004FAE41F206030E930E9A9A4202D113230A
:100F800084F846300E9B03E694F84430002B7FF43F
:100F90003FAECDE90133402314AA0093204611A9A6
:100FA00001F099F941F203030E900E9A9A42E9D1A9
:100FB000E06C01F024FA94F81831A3B104F1B40301
:100FC0000093E06C04F194031CAA14A900F0DCF86F
:100FD0000E900E9BA3B10023F370132384F84630C8
:100FE00041F20603D4E5D4F84CA000F05DF90746C1
:100FF00000F078F93B4600901CAA504614A9E5E79A
:101000000123F37084F8443002E600234FF0040813
:10101000CDE9013314AA40232046CDF8008011A960
:1010200001F059F941F203030F900F9A9A4202D04E
:101030000F9B049305E6D4F888202F4B9A4205D0E5
:10104000132384F8463041F20503F2E70123F370DD
:1010500094F84530DA0707D5EF682FB1424640468D
:101060002B6804F18401B84794F845309B0707D5F5
:10107000EF682FB104222B68104604F18401B847B1
:10108000236E6BB36F685FB34FF0FF3304F18008DA
:101090000422414610A8109301F03FFB20B1042226
:1010A00041462B681548B84704F1680904224946AF
:1010B00010A801F032FB98B14FF000639B6A142234
:1010C000D3F8108004F16C0108F10800D5E900376D
:1010D000B847D5E900370422494608EB0200B84773
:1010E0000123B3700E2384F846300023A1E70023C8
:1010F000F37041F20700A5E5E320BBDE04800008A1
:1011000030B50824094B00255C66012403F5FE2355
:101110005C6001449D601A61DC60884201D1586ABC
:1011200030BD10F8012B1A62F7E700BF00900040B5
:101130002DE9F04116464FF480621D46114B00F137
:10114000200804469A6640460F4601F0C7FADDE9DA
:101150000612404601F0C6FA002384F85870636412
:101160003368C4F859307368C4F85D30B368C4F8A4
:1011700061302B0C6DBA84F86530A4F86650BDE878
:10118000F08100BF009000402DE9F04315464FF478
:1011900080621C46364B99B0DDF880900E460746BB
:1011A0009A66002861D000295FD0002D5DD0002C08
:1011B00058D0304B304AB9F1000F14BF98469046D2
:1011C0001C22002111A801F0B8FA2C4B414610A8AE
:1011D000109301F02FFA202110A801F02BFA012220
:1011E000274B019402920393CDF810900592069339
:1011F00054B1B9F1000F07D001A910A801F006FA07
:1012000004A910A801F002FA079701271C4C07A9AE
:1012100010A80897099401F0F9F90AA910A80A96EC
:101220000B970C940D950E970F9401F0EFF90DA903
:1012300010A801F0EBF910A801F005FA114B00938A
:101240004FF098435A6CD202FCD55B6D40F20460BB
:1012500003F470230093009B002B08BF002019B0FB
:10126000BDE8F083DFF81080AAE740F20160F6E7FE
:10127000009000401F2400801F24FC840000010611
:1012800020000020785634124FF4806210B50446D6
:10129000044B9A6601F0B6F82046BDE810400021E4
:1012A00001F0B4B8009000404FF4806200B50B4BE1
:1012B00099B09A6600212022684601F03EFA402348
:1012C0000021684608AA00F097FD20F010000128D0
:1012D000034818BF002019B05DF804FB00900040DF
:1012E0004CE317084FF4806200B50B4B99B09A6637
:1012F00000212022684601F020FA402300216846A0
:1013000008AA00F079FD20F010000128034818BF5A
:10131000002019B05DF804FB009000406CE3170852
:101320000048704786E217082DE9F3471446DDE9C7
:101330000A920D461F4600284DD14CB313683F2B2F
:101340002AD8516851B32549002F14BFB8468846A2
:1013500003F03F061B19136022BF5368013353602B
:10136000FEB93F2C0ED9A3092A46009341463B46BD
:10137000002000F083F824F03F031D4404F03F04F4
:1013800034B100262246294609EB060001F0DDF9BA
:10139000002002B0BDE8F087B846D9E7DFF83C800E
:1013A000D6E7C6F1400A5445ECD32946524609EB2C
:1013B000060001F0CAF90123264400934A463B4641
:1013C00041460020A6F1400400F058F83F2C554457
:1013D000D6D9B846C7E70248DBE700BF3C2900087A
:1013E00080AFFFFF2DE9F0411746146886B01E4616
:1013F000E3008DF80F3063098DF80E30630B8DF824
:101400000D30630D8DF80C3053680546DA0002EBA1
:1014100054728DF80B2004F03F045A09372C8DF8D4
:101420000A204FEA53324FEA53538DF80920884679
:1014300094BFC4F13802C4F17802CDE900178DF8E9
:1014400008300D4903460020FFF76EFF08222B46A7
:101450000020CDE900870DEB0201FFF765FF28466C
:1014600005F1200350F8042B984246F8042BF9D1DB
:10147000002006B0BDE8F081FC280008F0B5174652
:101480004FF480621D46254B93B00E469A66044683
:10149000202200210AA801F050F901204FF000524B
:1014A0000197029003920496059006920795089082
:1014B0000992002C2FD1189C194BA40121460AA88F
:1014C0000A9301F0B7F8039B04A91C430394069BFD
:1014D0000AA843F020030693099B43F020030993D5
:1014E00001F094F801A90AA801F090F807A90AA848
:1014F00001F096F80AA801F0A6F84FF098435A6C4C
:10150000D202FCD55B6D13F4702F14BF6FF06F0027
:10151000002013B0F0BD6FF07100FAE700900040BA
:10152000000401032DE9F041A2B0502204460D460B
:101530000EA8002101F001F93422002101A801F0D8
:10154000FCF801A800F02AFA049B012B11D8002313
:1015500020466A1E9D424FEA82024FF0FF0108BFFB
:101560001A4640F8043B01F0E8F8002022B0BDE83C
:10157000F081AB425DD300F01FF9059B0C220EA950
:101580000646DF6800F0EBFF0028EFD1DFF8AC8003
:101590000E9B434515D1109A0EA9304600F0DFFF8F
:1015A0004FF0FF3210990EA8FFF7AAFD224B984288
:1015B0002ED0FF212046AA0001F0BFF840F20650CD
:1015C000D4E737440C2238460EA900F0C8FF0028A3
:1015D000CCD10E9B434507D0FF212046AA0001F045
:1015E000ACF840F20550C1E70EA93846109A00F059
:1015F000B6FF059B3046D96800F0E8FF0028B5D15A
:101600003046109A0EA900F0BAFF0028C3D0ADE70B
:10161000109E11A9103EB608AE4228BF2E46B70054
:101620003A46204601F091F8AA1BFF219200E019EA
:1016300099E740F2045099E7E320BBDE39528FE18D
:1016400044222DE9F043A3B00C46814600210DEB66
:10165000020001F072F8012350262E4A0021CDE944
:101660000E2301A83422109601F067F801A800F0BB
:1016700095F9049BA34249D3012B0AD8D9F800302D
:1016800040F204500133022B38BF002023B0BDE8E4
:10169000F08300F091F8102C28BF1024059B4FEA2E
:1016A0008408DF68424649460744054611A801F010
:1016B0004CF8C4F110040EAB08F10C001844FF21E3
:1016C000A20001F03AF84C214FF0FF320EA8FFF7CC
:1016D00017FDC043059B2190D968384600F076FF7E
:1016E0000028D3D1324638460EA900F048FF002822
:1016F000CCD1059B2846D96800F068FF0028C5D1E9
:10170000324628460EA900F03AFFBFE740F20450E7
:10171000BCE700BF39528FE110B5ADF50E7D4FF437
:101720000D72002001A900F0EBFE40F2012400211F
:1017300001A800F0BCFEA042F9D040F20323984279
:1017400004D040F205400DF50E7D10BD9DF804302B
:1017500059070DD49DF804309A0719D4DB07F0D54A
:1017600004998A9800F07EF90028EAD00020EAE780
:101770000B9800F0FFFC0028ECD08A9800F030F9BC
:101780000028E7D00B48FEF7B9FE0028E2D1D8E7E1
:101790004FF00062926A029992689142DED98A986B
:1017A00000F03CF90028CCD00A990248FEF75CFE14
:1017B000C7E700BF008000080048704700400408E9
:1017C00031B10A4B5A68824205D80023C1E900337F
:1017D00040F201407047013053F8302003EBC00362
:1017E0005B6800200A604B60704700BFC02900089A
:1017F00070B40C4611461A460D4B5D68854210D9EF
:10180000013003EBC0056D68A618AE420DD8A542A5
:101810000BD3954209D353F83000204470BC00F03C
:101820009EBE40F2014070BC704740F20240FAE7B1
:10183000C029000830B5CA681B4B04469A420D46C1
:10184000A3B019D1FEF7B8FED4F82432174A0133F9
:1018500052F83330D4F82C221344984208D3803302
:10186000984209D241F20D03C4F8303223B030BDA2
:1018700000F5C0309842F5D88023D4F82C1202AA83
:10188000D4F82402FFF7B4FF80232146009502AA72
:1018900004F12C00FFF7E4F8D4F82C32C4F830023D
:1018A0008033C4F82C32E1E7C5020008C0290008E3
:1018B00070B50D46002186B00DF1070302931C4B55
:1018C00004461646116028461C22CDE903338DF8E4
:1018D0000710059300F031FF9DF8072032B9D4F8C6
:1018E00030321BB9D4E98A31994219D32378990748
:1018F00044BF61683160DB0709D504F1080304F1D6
:10190000240153F8040B8B4245F8040BF9D162B95A
:10191000237840F20640002B18BF002006B070BDAF
:10192000204602A9FFF786FFD6E70020F6E700BFB2
:10193000A924000870B40C4611461A460D4B5D6888
:10194000854210D9013003EBC0056D68A618AE4280
:101950000DD8A5420BD3954209D353F8300020444B
:1019600070BC00F00CBE40F2014070BC704740F209
:101970000240FAE7C0290008074B5A68824207D99B
:10198000013003EBC002516853F8300000F01EBE76
:1019900040F20140704700BFC029000870B50546FD
:1019A00088B0C0B14FF4403200236C46C0E9002338
:1019B0000A4B05F114061A785B680272C360684628
:1019C00000F082F80FCC0FC694E80F0086E80F00F5
:1019D00005F114032B6108B070BD00BFC0290008D9
:1019E00000B5ADF5137D4FF40D7205A900F088FD2B
:1019F00078B904238DF81530074BCDE90100039029
:101A000001A905A8049300F08FFD0DF5137D5DF885
:101A100004FB0020F9E700BFC50200084FF0006397
:101A200000B59B6AADF5137D9B688B4204D3002003
:101A30000DF5137D5DF804FB4FF40D7205A900F060
:101A40005FFD0028F3D102238DF81530044BCDE95A
:101A50000100039001A905A8049300F065FDE7E7E4
:101A6000C502000800B5ADF5137D4FF40D7205A950
:101A700000F046FD78B901238DF81530074B019031
:101A8000CDE90230049001A905A800F04DFD0DF547
:101A9000137D5DF804FB0020F9E700BF1F2100085B
:101AA000B1F5C01F0BD800F17843B3F5C01F06D8BD
:101AB000044B084498428CBF00200120704700204E
:101AC000704700BF0000180870B504460646044D74
:101AD0000FCD0FC495E80F0084E80F00304670BDAD
:101AE000A02900084FF48032014B00209A6670470D
:101AF00000900040024BD86900F00100704700BF21
:101B0000000003404FF48032014B00209A6670477A
:101B100000A00040430905D0012B0CD0022B084B3C
:101B200018BF002300F01F0039B103F580530122D4
:101B300082401A607047034BF4E703F50053F6E761
:101B40006880004064800040F0B5114A114C124E8C
:101B500000F00105E3695F0713D40DB9334213D1D7
:101B600003EA00078F4207D10B4A1A40002A0CBF34
:101B700000206FF00100F0BD013AEBD16FF00200E0
:101B8000F9E74FF0FF30F6E76FF00100F3E700BF31
:101B900080969800000003400200010070B5134CCD
:101BA0006061E3695B071ED40E4656F8043B8D184E
:101BB000A361AE420BD10423002121202361FFF752
:101BC000C3FF58B9BDE870402120FFF7BDBF082111
:101BD0000846FFF7B9FF10B10423236170BD56F822
:101BE000043BA361E5E74FF0FF30F7E70000034057
:101BF0004FF4803238B50E4B0E4C9A66E56941F6CB
:101C0000713315400122E3630B4B0021DA6002239C
:101C1000606121202361FFF797FF10B92120FFF7B2
:101C200093FF0122054BDA600DB10023E36338BD59
:101C300000900040000003400010034000200340DB
:101C40002DE9F84315464FF48032184B89469A66C1
:101C500003F51C33DF690646174041F67132DA633B
:101C6000012203F58053DFF84C80DA6055B928462D
:101C700001220F4BDA601FB10022A3F50053DA6393
:101C8000BDE8F88306F5005404EA0804A41BAC423E
:101C900028BF2C46494622463046FFF77FFF0028E2
:101CA000E6D12644A1442D1BE0E700BF0090004090
:101CB0000020034000E0FFFF2DE9F04F01274FF423
:101CC000302530268400DFF8C0C004F1402404F53C
:101CD0008024CCF80470656000244FF48035DFF870
:101CE000ACE0DFF8AC9006FB00E6F46534663467E0
:101CF000234CDFF8A0A0A56641F6713504F51C342D
:101D0000D4F81C80E563E56807FA00F03D43E56020
:101D10004BB9E26818F4803F22F00102E26029D159
:101D20000020BDE8F08F01F5005505EA09056D1AA0
:101D30009D4228BF1D466161D4F81CB0AF081BF05E
:101D4000040F19D1013F3F0147F060577766B26633
:101D5000C6F86CA0CCF82400DEF834703842FBD012
:101D6000084F294478630427CCF828002A442761C7
:101D70005B1BCDE7E363D3E74FF0FF30D1E700BF54
:101D80000090004000200440001004400000044087
:101D900000E0FFFF180003404FF48062014B002079
:101DA0009A667047009000404FF48062014B00201B
:101DB0009A66704700A0004008B5B0B14FF4806249
:101DC0000B4B9A6600F03FFC4FF098435A6CD202DE
:101DD000FCD54FF48062586D064B10F470209A6663
:101DE00004D0BDE8084000F04BBC212008BD00BF76
:101DF0000090004000A000401FB5044660B35AB3F5
:101E0000402B29D1930727D1042925D8DFE801F0F9
:101E1000031A24221E004FF4807310490B432360E1
:101E20000023C4E90133E3610123019202930C4BC7
:101E3000204601A9039300F0F3FB2046FFF7BCFF07
:101E400004B010BD4FF400730449E7E705494FF4AF
:101E50008063E3E70149FAE72120F1E7010008FF89
:101E600040000020000008FF2DE9F041012905464F
:101E70000E4690461F4692B04AD8046824F04003AC
:101E8000802B02D0B4F5807F45D11C2200210BA805
:101E900000F053FC234A244B0121012E08BF1346B6
:101EA0000A932B1D0193E408204B44F00054029147
:101EB0000AA80394CDF8108005910693079708911E
:101EC00001A9099300F0A2FB04A90AA800F09EFB57
:101ED00007A90AA800F0A4FB29680AA8C90800F00D
:101EE000A9FB10210AA800F0A5FBFFF755FFA8B930
:101EF0000AA800F0A8FB4FF098435A6CD202FCD518
:101F00005C6DFFF751FF04F4702012B0BDE8F08162
:101F10006FF02000F9E76FF07100F6E74FF0FF3047
:101F2000F3E700BF000100040001010410000020DD
:101F30002DE9F04F074689469846164699B082B17A
:101F400015683B6823F04002802A03D0B3F5807FF8
:101F500040F0A68000244C4505D306B13560002032
:101F60007BE01546EDE75DB1239B229A1B5D525D38
:101F700001355340249A05F00F0513550134EAE763
:101F8000A9EB040ABAF10F0F0BD8239B03EB040A49
:101F9000249B1C44239B03EB090BDA4560D14C4680
:101FA000D9E71C22294611A800F0C7FB3E4B3A682E
:101FB00010933B1D01930123D20842F0005202937B
:101FC00003923A4ACDF8108005930692CDF81C8012
:101FD00008930992239A249922442AF00F0A0A921C
:101FE00021444AF000520B9310A80C920D9101A9C4
:101FF0000E930F9200F00AFB04A910A800F006FB54
:102000000AA910A800F002FB0DA910A800F008FB17
:1020100007A910A800F004FB396810A8C90800F04F
:1020200009FB514610A800F005FBFFF7B5FE90B97B
:1020300010A800F008FB4FF098435A6CD202FCD570
:10204000586D544400F4702BFFF7AEFEBBF1000F47
:102050009BD0584601E04FF0FF3019B0BDE8F08F3B
:1020600055B1229A1AF8013B525D0135534004F8EC
:10207000013B05F00F0590E7424601213846229BBF
:10208000FFF7F2FE0028E8D108F1100212F8013D36
:102090000133DBB21370002BE3D19045F6D1E0E7BA
:1020A0006FF01F00D9E700BF0303000410000020F9
:1020B000FEE710B53AB1002350F8234041F8234021
:1020C00001339A42F8D110BD4FF098435A6CD202B6
:1020D000FCD5586D00F470207047C0F30C032DE957
:1020E000F04105460F4616460BB9FEF78FFB05F586
:1020F000005424F4FF5424F01F0405EB0608A04507
:1021000007D8324639462846BDE8F0410223FEF79B
:102110008BBB2046FEF77AFB04F50054EFE770B462
:102120004FF00065AD6A03462E69864206D86C6999
:1021300013449C4202D370BCFFF7CFBF70BC704702
:10214000036913F0FE0F0CBF01200020704738B563
:1021500004460D46FEF7E4F838B16369012B07D158
:102160002046FFF7EDFF10B1A46901202C6038BDB7
:102170000020FCE74FF0FF3313B5044601A801939C
:10218000FEF7F2F920B1019BA3422CBF00200120F1
:1021900002B010BDFFF7A6BCFFF7B4BC034618465B
:1021A000016881F3088881F3098840688746FEE763
:1021B0004FF40170FEF700BBB1F50D7F10B504467A
:1021C0000FD34FF40D72002100F0B7FA04F5DE7260
:1021D00004F5AA7104F12C000023BDE81040FEF7BD
:1021E00005BC40F2052010BD13B504460091014620
:1021F0002C30FEF735FCC4F8300218B141F2070369
:10220000984204D1A37823B1E07800F2022002B012
:1022100010BD40F20120FAE72DE9F04387B00DF13F
:10222000080904460E4617460021102248461D465E
:10223000DDF8388000F081FA00211C22C8F8001077
:10224000284600F07AFA32463B462146CDF8009007
:1022500004F12C00FEF704FC23789A0744BF62685F
:10226000C8F80020DB0709D504F1080304F12402B3
:1022700053F8041B934245F8041BF9D1237840F22C
:102280000640002B18BF002007B0BDE8F0834FF4D4
:102290000D70704770B5D1E90152AA4205D290F88D
:1022A00040302B449B1A402B10D9002012E00A68C2
:1022B00090F84040D65C90F841200133224402F06F
:1022C0003F02013486548B6080F840408B689D4209
:1022D000EDD8012070BD2DE9F84390F840C01746B5
:1022E0009E46D1E90123089DD21A624495420446D4
:1022F0000E469DF824909DF828800AD9FFF7CAFF62
:10230000002867D1132341F2020084F84630BDE86B
:10231000F883754555D8002394F840200AB19D42B2
:1023200035D1D6E90121914201D29D4241D89D4249
:102330004DD129463846D4F88820FEF7E1FEC4F88E
:102340008800B9F1000F04D02A463946E06C00F04D
:1023500054F894F84330B8F1000F06D08BB12B46F7
:102360003A463946A06C00F037F894F8433043B150
:10237000E36DA26D2B449342E36524BF002384F8F0
:102380004330636D41F203002B446365BFE794F86B
:102390004120A25CFA5494F841200133013202F04A
:1023A0003F0284F8412094F84020013A84F840200C
:1023B000B2E73268525CFA54B26801330132B2605B
:1023C000AFE741F20100132384F846309FE741F262
:1023D0000200F8E700209AE71FB50C46194600F105
:1023E0004803CDE90142009300F1440200F1580393
:1023F0002030FFF79DFD04B010BD00F00CB8014681
:1024000000F016B86822002100F097B903460020BA
:10241000C3E90000704707B500F12803019000935D
:1024200000F108030020FEF77FFF03B05DF804FB16
:1024300002460B4600F128010830FEF7D3BF30B545
:102440009FB034220021054601A800F076F901A8CA
:10245000FFF7A4FA049C012C1ED921460EA8FFF711
:1024600061F818B140F2055398420ED100230EAA2C
:1024700052F8041B481C0AD11EAA02EB8303214612
:102480000EA843F8405CFFF7DBF81FB030BDA9424F
:1024900005D001339C42EBD140F20250F5E740F207
:1024A0000350F2E7FFF738B901221A7070471FB5E1
:1024B0000023CDE90033CDE90213D0F830320446D1
:1024C00093B9D0E98A329A420ED26946FFF7B2F93F
:1024D000D4F8300270B141F2070240F20123904279
:1024E00008BF184604B010BDA37833B1E07800F2FD
:1024F0000220F7E740F20120F4E740F20220F1E782
:1025000037B50C46054611462046FFF755FE48B93B
:1025100069462846FFF754F920B9019BC4F82452B4
:10252000C4F8283203B030BD38B500F5DE72044679
:102530000D46202300F5AA712C30FEF757FAD4F887
:1025400030321BB9D4E98A329A4203D3A07800B161
:10255000E07838BD29462046FFF76CF9EFE738B53B
:102560000C4611460546FFF79BFA28B1294620463E
:1025700000F0EBF8002038BD40F20240FBE738B530
:102580000D4611460446FFF78BFA80B940F202402F
:1025900038BDE158013114D104339A42F9D8AB0760
:1025A00007D1022329462046FEF73EF905E0002325
:1025B000F3E729462046FEF75FF90028E6D0002021
:1025C000E6E740F20340E3E70220704738B541EA0E
:1025D0000003C3F30C0304460D46A3B9FFF760FAEA
:1025E00010B940F2024038BD2544204604F500549D
:1025F000FEF70CF9A54202D00028F6D1F1E7002839
:10260000EFD00020EFE740F20440ECE7436813B955
:10261000416070475B685A68012AFBD15960704776
:10262000836813B9816070475B685A68012AFBD1DF
:1026300059607047C369032B9FBF00EB83020133CE
:10264000D160C3617047C369042B14D84FF098421E
:10265000116CC902FCD504339B0013650168103B63
:1026600011604168116050F8081F11604FF09842E6
:102670000344984200D1704750F8041F1160F8E7F6
:10268000B0F5802F22D010D8B0F5003F20D007D869
:1026900018B3B0F5803F08BF482018BF012070472D
:1026A000B0F5403F08BF2C20F7E7B0F5302F11D030
:1026B00007D8B0F5E02F0FD0B0F5202F08BF1020BD
:1026C000EBE7B0F57F0F08BF0620E6E74B20704729
:1026D0002A207047112070472120704724220021B2
:1026E00000F02BB870B515460E4624220021044692
:1026F00000F023F825F04003802B02D0B5F5807F51
:1027000008D12046314640F8045BEA0800F01DF885
:10271000002070BD6FF01F00FBE70139024410B5C7
:10272000904201D1002005E0037811F8014FA34247
:1027300001D0181B10BD0130F2E70244034693425A
:1027400000D1704703F8011BF9E70A44431E914288
:1027500000D1704710B511F8014B914203F8014FB9
:10276000F9D110BD000000000000000000000000D2
:102770000000000000000000000000000000000059
:10278000F8B500BFF8BC08BC9E467047F8B500BF5E
:10279000F8BC08BC9E467047000000000000000026
:1027A0000000000000000000000000000000000029
:1027B0000000000000000000000000000000000019
:1027C000B814B6F1E0CFF3ADB7DD25C9FA79B71388
:1027D0000000000013B779FAC925DDB7ADF3CFE0EB
:1027E000F1B614B80102000000000000E429000066
:1027F0004000000003000402000000000000000090
:1028000000000000000000000000000000000000C8
:1028100000000000000000000000000000000000B8
:102820000000000007B0CD5E0200000003000402BB
:10283000E82900000060000800001808F00401000A
:1028400095210008992100086D030008B9210008AE
:10285000E92100085C290008192200088F220008DD
:1028600000000000C1050008B9050008EB17A60329
:102870000201000003000000FA0606FA0F0400003F
:1028800003000000F40A0AF405050000010000003E
:10289000EB17A65E0A06000001000000F50909F525
:1028A0000307000001000000F60808F60608000013
:1028B00000000000FE0101FE08080000000000000A
:1028C000FD0303FD0C08000000000000F90707F9F4
:1028D0001009000002000000F30B0BF3110A0000C6
:1028E00003000000F70A0AF7120B000003000000C3
:1028F000FC0404FC0D0C000003000000800000003C
:1029000000000000000000000000000000000000C7
:1029100000000000000000000000000000000000B7
:1029200000000000000000000000000000000000A7
:102930000000000000000000000000006A09E667D7
:10294000BB67AE853C6EF372A54FF53A510E527FD0
:102950009B05688C1F83D9AB5BE0CD19000100009B
:102960009D190008C1170008F11700083519000863
:102970007919000841160008251500083F240008B1
:1029800001250008AF240008B1180008F51A000856
:102990005F2500087F250008CD250008C92500080F
:1029A00010020300280000002800000000200000A2
:1029B00000001800000000000400000000000040BB
:1029C00001000000010000000040040800000300B6
:0C29D000DC2900081010002002000000AC
:0829DC001D020008F5010008CE
:04000005080001717D
:00000001FF
