S0180000746573745F6770696F5F63616D6269656E2E733337E0
S31508000000001000200D0500085F2F00085F2F00086C
S315080000105F2F00085F2F00085F2F00085F2F00087A
S315080000205F2F00085F2F00085F2F00085F2F00086A
S315080000305F2F00085F2F00085F2F00085F2F00085A
S315080000405F2F00085F2F00085F2F00085F2F00084A
S315080000505F2F00085F2F00085F2F00085F2F00083A
S315080000605F2F00085F2F00085F2F00085F2F00082A
S315080000705F2F00085F2F00085F2F00085F2F00081A
S315080000805F2F00085F2F00085F2F00085F2F00080A
S315080000905F2F00085F2F00085F2F00085F2F0008FA
S315080000A05F2F00085F2F00085F2F00085F2F0008EA
S315080000B05F2F00085F2F00085F2F00085F2F0008DA
S315080000C05F2F00085F2F00085F2F00085F2F0008CA
S315080000D05F2F00085F2F00085F2F00085F2F0008BA
S315080000E05F2F00085F2F00085F2F00085F2F0008AA
S315080000F05F2F00085F2F00085F2F00085F2F00089A
S315080001005F2F00085F2F00085F2F00085F2F000889
S315080001105F2F00085F2F00085F2F00085F2F000879
S315080001205F2F00085F2F00085F2F00085F2F000869
S315080001305F2F00085F2F00085F2F00085F2F000859
S315080001405F2F00085F2F00085F2F00085F2F000849
S315080001505F2F00085F2F00085F2F00085F2F000839
S315080001605F2F00085F2F00085F2F00085F2F000829
S315080001700348044B834202D0034B03B11847704728
S31508000180201000202010002000000000064B074920
S31508000190C91A891048BF0131491003D0044B0BB165
S315080001A001481847704700BF201000202010002083
S315080001B00000000010B5064C237843B9FFF7D8FFB6
S315080001C0044B13B10448AFF300800123237010BD1C
S315080001D040100020000000000834000808B5054B50
S315080001E01BB105490548AFF30080BDE80840FFF795
S315080001F0CDBF00BF00000000201000200834000812
S31508000200A3F5803A704700BF174B002B08BF134B66
S315080002109D46FFF7F5FF00218B460F461348144A03
S31508000220121A02F0C9FF0E4B002B00D098470D4B4F
S31508000230002B00D098470020002104000D000D482F
S31508000240002802D00C48AFF3008002F0EBFD200036
S31508000250290002F03AFE02F0D3FD00BF00000800B4
S315080002600000000000000000001000202010002000
S3150800027044100020000000000000000000B583B014
S31508000280034600918DF807309DF80730002B14D0EF
S315080002909DF80730012B0ED09DF80730022B07D0AA
S315080002A09DF80730032B01D13F2308E0002306E021
S315080002B040F2FF3303E03F2301E040F2FF33009AA8
S315080002C0D34003F00103002B04D140F2CF310B4891
S315080002D002F06AFE9DF8072013465B0013441B01D3
S315080002E003F11402064B13440099184602F0BEFDAA
S315080002F00346184603B05DF804FB00BF2032000829
S3150800030030C0035000B583B0034600918DF807301E
S315080003109DF80730002B14D09DF80730012B0ED01E
S315080003209DF80730022B07D09DF80730032B01D123
S315080003303F2308E0002306E040F2FF3303E03F23B3
S3150800034001E040F2FF33009AD34003F00103002B8B
S3150800035004D140F2FE310A4802F026FE09489DF80B
S3150800036007200121009B994013465B0013441B019B
S31508000370034403F50153196000BF03B05DF804FB9D
S315080003802032000800C0035000B583B00346009130
S315080003908DF807309DF80730002B14D09DF80730EC
S315080003A0012B0ED09DF80730022B07D09DF8073099
S315080003B0032B01D13F2308E0002306E040F2FF3378
S315080003C003E03F2301E040F2FF33009AD34003F0F5
S315080003D00103002B04D140F22D410A4802F0E4FD46
S315080003E009489DF807200121009B994013465B00A8
S315080003F013441B01034403F58253196000BF03B07D
S315080004005DF804FB2032000800C0035008B501F06F
S315080004106FF902F0FFFD304B1B6F23F007032E4ADE
S3150800042043F00303136702F002FE2C4B9B6A03F0AA
S315080004308073002B06D1294B03F500531A464FF457
S3150800044080339362244BD3F8203123F00703224AE2
S3150800045043F00203C2F820311F4BD3F8283123F0AA
S3150800046007031D4A43F00203C2F828311A4BD3F892
S31508000470403123F00303184A43F00203C2F840311F
S31508000480154BD3F8603123F00303134A43F00203F4
S31508000490C2F86031104BD3F8403223F003030E4AFA
S315080004A043F00203C2F840320B4BD3F8003223F074
S315080004B00703094A43F00203C2F80032064BD3F891
S315080004C0083223F00703044A43F00203C2F808324D
S315080004D00023184608BD00BF008000500040005A9F
S315080004E000B583B0064A074BD31A9B100193019AAD
S315080004F00549044802F035FD00BF03B05DF804FB6A
S315080005003C3400083C3400084410002000B585B08F
S3150800051000F080F8FFF7E4FF1F4B039319E0002370
S3150800052002930EE0039B1A68029B9B001A44039BE6
S315080005305968029B9B000B4412681A60029B0133A0
S315080005400293039B9B68029A9A42EBD3039B0C3354
S315080005500393039B114A9342E1D3114B019314E091
S315080005600023009309E0019B1A68009B9B00134433
S3150800057000221A60009B01330093019B5B68009A76
S315080005809A42F0D3019B08330193019B054A934293
S31508000590E6D3FFF739FE00BF103400081C34000804
S315080005A01C3400081C34000882B003468DF8073056
S315080005B09DF90730002B0CDB9DF8073003F01F026E
S315080005C005499DF907305B09012000FA02F241F856
S315080005D0232000BF02B0704700E100E082B0034666
S315080005E08DF807309DF90730002B0DDB9DF8073095
S315080005F003F01F0206499DF907305B09012000FA3E
S3150800060002F2603341F8232000BF02B0704700BFF2
S3150800061000E100E008B51D4B1D4A9A601B4BD3F854
S3150800062088301A4A43F47003C2F88830194B03F528
S3150800063080531A464FF480439366174B03F50053CD
S315080006401A464FF0FF331366134B03F500531A4649
S31508000650124B5366124B02221A60BFF34F8F00BF2C
S31508000660BFF36F8F00BF0020FFF7B8FF0A4B03F5F3
S3150800067000531A464FF44033D3600020FFF794FF27
S31508000680054B4FF440321A6100BF08BD00ED00E08B
S31508000690000000080080005000800044F7FF370083
S315080006A0D0ED00E0014B1B68184670470810002083
S315080006B000B583B0002301930E4B1B6F03F00703AD
S315080006C0032B09D0032B0FD8012B09D0022B0BD1F2
S315080006D0FFF7E8FF019008E0074B1B68019304E069
S315080006E0064B019301E0FFE7FDE7019B184603B0BF
S315080006F05DF804FB0080005000100020002D310139
S3150800070000B583B0FFF7D4FF01900A4B1B6F1B0B94
S3150800071003F00F030093009B0133019AB2FBF3F336
S315080007200193054A019B1360019B184603B05DF8C7
S3150800073004FB00BF008000500C100020014B184637
S31508000740704700BF00B4C404014B1B6818467047C5
S315080007500010002000B583B00190074A019B136082
S31508000760064B1B6F03F00703032B01D1FFF7C8FFE6
S3150800077000BF03B05DF804FB0010002000800050A5
S31508000780014B1846704700BF002D310182B0002387
S3150800079001934FF0B4439B681B0C03F01F030C2B0B
S315080007A04CD801A252F823F0DD0700083D080008DE
S315080007B03D0800083D0800083D0800083D080008F7
S315080007C0190800081F080008250800083D08000841
S315080007D02B08000831080008370800084FF0B44312
S315080007E09B6803F04073B3F1007F0ED0B3F1007F2E
S315080007F00ED8002B03D0B3F1807F03D008E0124B4C
S31508000800019308E0114B019305E0114B019302E0B7
S315080008100023019300BF12E00E4B01930FE00E4B2D
S3150800082001930CE00D4B019309E00D4B019306E093
S315080008300C4B019303E00C4B019300E000BF019BB6
S31508000840184602B0704700BF00093D0080841E00AC
S3150800085040420F00405DC6000024F400C0EA2101B2
S3150800086080BA8C010048E801005A6202014B1B68F5
S31508000870184670470410002000B587B0039002910F
S315080008800192029B1F2B03D991210C4802F08CFB85
S31508000890019B002B04D0039B03F58053059303E0CB
S315080008A0039B03F500530593059B0121029A01FA60
S315080008B002F21A6000BF07B05DF804FB5C3200085C
S315080008C008B500BF0421044802F07DFB0346002B4F
S315080008D0F8D100BF00BF08BD8440005008B5FFF737
S315080008E0EFFF044BD3F884309B0903F00303DBB214
S315080008F0184608BD00400050054BDB6903F48033F9
S31508000900002B14BF01230023DBB21846704700BF33
S3150800091000000350024B0022DA6300BF704700BF95
S3150800092000000350024B41F67132DA6300BF70478C
S3150800093000000350014B5B681846704700000350DF
S3150800094082B00190024A019B536000BF02B0704713
S315080009500000035000B585B0019000230393019B66
S31508000960B3F5607F35D0019BB3F5607F59D8019BFD
S31508000970B3F5207F4ED0019BB3F5207F51D8019B5C
S31508000980B3F5007F3ED0019BB3F5007F49D8019BA4
S31508000990002B03D0019BB3F5C07F42D1264B1B6FBA
S315080009A01B0B03F00F030393039B002B3BD0039B06
S315080009B0012B38D0039B032B35D0039B072B32D052
S315080009C0039B0F2B2FD040F285211C4802F0ECFA2E
S315080009D029E0194BD3F880301B0903F0030303936E
S315080009E0039B002B21D0039B012B1ED0039B022BBC
S315080009F01BD0039B032B18D040F295210F4802F019
S31508000A00D3FA12E00C4BD3F890301B0E03F01F03F9
S31508000A1003930BE0084B1B6F9B0A03F00103039338
S31508000A2004E000BF02E000BF00E000BF039B013303
S31508000A30184605B05DF804FB00800050983200089F
S31508000A4010B584B001900091019BB3F5607F54D036
S31508000A50019BB3F5607F00F2BA80019BB3F5207F56
S31508000A6000F09F80019BB3F5207F00F2B080019BC8
S31508000A70B3F5007F7DD0019BB3F5007F00F2A78018
S31508000A80019B002B04D0019BB3F5C07F40F09F80EB
S31508000A90009B012B10D0009B022B0DD0009B042B32
S31508000AA00AD0009B082B07D0009B102B04D040F2DD
S31508000AB0C7214C4802F078FA02F0ECFA02F0E2FAA2
S31508000AC001F0FCF9484B1B6F23F47042009B013B75
S31508000AD01B03454913430B6702F06FFA0446FFF7F9
S31508000AE0FDFE0346C3F102031946204602F0B6FA94
S31508000AF001F030FC01F0EEF970E03C4BDB6803F0E6
S31508000B008073002B14BF012300238DF80F309DF846
S31508000B100F30002B05D0354BDB68344A23F0807341
S31508000B20D360009B012B0DD0009B022B0AD0009BA3
S31508000B30032B07D0009B042B04D040F2F22129484E
S31508000B4002F032FA284BD3F8803023F03002009BAB
S31508000B50013B1B0124491343C1F880309DF80F302F
S31508000B60002B3AD0214BDB68204A43F08073D360D0
S31508000B7033E0009B002B02D0009B202B04D940F2C7
S31508000B800631184802F010FA174BD3F8903023F0C4
S31508000B90F852009B013B1B0613491343C1F89030DA
S31508000BA01CE0009B012B07D0009B022B04D04FF4BE
S31508000BB043710C4802F0F8F90B4B1B6F23F4806263
S31508000BC0009B013B9B02084913430B6706E040F272
S31508000BD01231044802F0E8F900E000BF00BF04B093
S31508000BE010BD00BF9832000800800050F0ED00E00C
S31508000BF000B585B001900B468DF8033000230393AA
S31508000C00019B5B09002B05D140F22F31124802F0F7
S31508000C10CBF912E0019B5B09012B02D10F4B039321
S31508000C200BE0019B5B09022B02D10D4B039304E0F9
S31508000C3040F23D31084802F0B7F9019B03F01F0363
S31508000C4002939DF803301A4602990398FFF714FE9B
S31508000C5000BF05B05DF804FB9832000864800050B8
S31508000C606880005010B584B00190002303930023D8
S31508000C700293019BB3F5486F00F02983019BB3F5F6
S31508000C80486F00F23683019BB3F5406F00F0EF82A0
S31508000C90019BB3F5406F00F22C83019BB3F5286FD7
S31508000CA000F01B83019BB3F5286F00F22283019B9A
S31508000CB0B3F5206F00F00583019BB3F5206F00F2B2
S31508000CC01883019BB3F5106F00F0EF82019BB3F513
S31508000CD0106F00F20E83019BB3F5F06F00F00383EB
S31508000CE0019BB3F5F06F00F20483019BB3F5E06F47
S31508000CF000F0E182019BB3F5E06F00F2FA82019BF6
S31508000D00B3F5D06F00F0CB82019BB3F5D06F00F23C
S31508000D10F082019BB3F5C06F00F0BB82019BB3F56F
S31508000D20C06F00F2E682019BB3F5B06F00F0A582B2
S31508000D30019BB3F5B06F00F2DC82019BB3F5A06F9F
S31508000D4000F08F82019BB3F5A06F00F2D282019B5F
S31508000D50B3F5806F00F07F82019BB3F5806F00F2D8
S31508000D60C882019BB3F5607F00F06682019BB3F5EC
S31508000D70607F00F2BE82019BB3F5407F00F04F8290
S31508000D80019BB3F5407F00F2B482019BB3F5207F47
S31508000D9000F03982019BB3F5207F00F2AA82019BFD
S31508000DA0B3F5007F00F02382019BB3F5007F00F2C4
S31508000DB0A082019BB3F5807F00F20A82019BB3F5FE
S31508000DC0807F00F2968201A252F823F0E51100080E
S31508000DD0F3120008F3120008F3120008F3120008D1
S31508000DE0F3120008F3120008F3120008F3120008C1
S31508000DF0F3120008F3120008F3120008F3120008B1
S31508000E00F3120008F3120008F3120008F3120008A0
S31508000E10F3120008F3120008F3120008F312000890
S31508000E20F3120008F3120008F3120008F312000880
S31508000E30F3120008F3120008F3120008F312000870
S31508000E40F3120008F3120008F3120008E51100086F
S31508000E5007120008E51100080712000857120008D3
S31508000E6057120008571200085712000857120008B0
S31508000E70071200087B1200081F12000893120008C8
S31508000E809F1200081F120008071200080712000820
S31508000E9007120008F3120008F3120008F3120008FC
S31508000EA0F3120008F3120008F3120008F312000800
S31508000EB0F3120008071200080712000807120008B4
S31508000EC0E7120008B712000807120008F312000814
S31508000ED0F3120008F3120008F3120008F3120008D0
S31508000EE0F3120008F3120008F3120008F3120008C0
S31508000EF0F3120008F3120008F3120008F3120008B0
S31508000F0057120008E5110008E5110008E511000868
S31508000F10AB1200081F1200081F120008C3120008AF
S31508000F20DB120008631200086F120008F3120008AB
S31508000F30F3120008F3120008F3120008F31200086F
S31508000F40CF120008E5110008F3120008F312000892
S31508000F50F3120008F3120008F3120008F31200084F
S31508000F60F3120008F3120008F3120008F31200083F
S31508000F70F3120008F3120008F3120008F31200082F
S31508000F80F3120008F3120008F3120008F31200081F
S31508000F90F3120008F3120008F3120008F31200080F
S31508000FA0F3120008F3120008F3120008F3120008FF
S31508000FB0F3120008F3120008F3120008F3120008EF
S31508000FC0F3120008F3120008F3120008DB110008F8
S31508000FD0F3120008F3120008F3120008F3120008CF
S31508000FE0F3120008F3120008F3120008F3120008BF
S31508000FF0F3120008F3120008F3120008F3120008AF
S31508001000F3120008F3120008F3120008F31200089E
S31508001010F3120008F3120008F3120008F31200088E
S31508001020F3120008F3120008F3120008F31200087E
S31508001030F3120008F3120008F3120008F31200086E
S31508001040F3120008F3120008F3120008F31200085E
S31508001050F3120008F3120008F3120008F31200084E
S31508001060F3120008F3120008F3120008F31200083E
S31508001070F3120008F3120008F3120008F31200082E
S31508001080F3120008F3120008F3120008F31200081E
S31508001090F3120008F3120008F3120008F31200080E
S315080010A0F3120008F3120008F3120008F3120008FE
S315080010B0F3120008F3120008F3120008F3120008EE
S315080010C0F3120008F3120008F3120008F3120008DE
S315080010D0F3120008F3120008F3120008F3120008CE
S315080010E0F3120008F3120008F3120008F3120008BE
S315080010F0F3120008F3120008F3120008F3120008AE
S31508001100F3120008F3120008F3120008F31200089D
S31508001110F3120008F3120008F3120008F31200088D
S31508001120F3120008F3120008F3120008F31200087D
S31508001130F3120008F3120008F3120008F31200086D
S31508001140F3120008F3120008F3120008F31200085D
S31508001150F3120008F3120008F3120008F31200084D
S31508001160F3120008F3120008F3120008F31200083D
S31508001170F3120008F3120008F3120008F31200082D
S31508001180F3120008F3120008F3120008F31200081D
S31508001190F3120008F3120008F3120008F31200080D
S315080011A0F3120008F3120008F3120008F3120008FD
S315080011B0F3120008F3120008F3120008F3120008ED
S315080011C0F3120008F3120008F31200088712000849
S315080011D0019BB3F5C07F05D08BE0FFF769FA03469C
S315080011E003938CE0FFF78CFA0346039387E0FFF737
S315080011F05FFA04464FF40070FFF7ACFB0346B4FBF6
S31508001200F3F303937BE0FFF77BFA04464FF4207071
S31508001210FFF7A0FB0346B4FBF3F303936FE0FFF776
S315080012206FFA04464FF42070FFF794FB0346B4FBAD
S31508001230F3F35B08039362E002AB0021184600F063
S315080012405FFE029C4FF46070FFF784FB0346B4FB15
S31508001250F3F3039353E003AB0021184600F0DCFEDA
S315080012604DE003AB0021184600F092FC47E003ABC3
S315080012700021184600F0E2FC41E003AB00211846C5
S3150800128001F022F83BE003AB0021184601F06EF9A5
S3150800129035E003AB0021184600F020FF2FE003AB32
S315080012A00021184601F0BAF829E003AB00211846D8
S315080012B001F008F923E003AB0021184601F064F8B1
S315080012C01DE003AB0021184600F016FD17E003AB3E
S315080012D00021184600F064FD11E003AB0021184612
S315080012E000F0B2FD0BE003AB0021184600F040FF0A
S315080012F005E040F29441044801F056FE00BF039B06
S31508001300184604B010BD00BF9832000800B585B075
S31508001310019000230393019BB3F5486F00F0CD813C
S31508001320019BB3F5486F00F2D481019BB3F5406F7A
S3150800133000F0B181019BB3F5406F00F2CA81019BB1
S31508001340B3F5286F00F0BF81019BB3F5286F00F253
S31508001350C081019BB3F5206F00F0A981019BB3F50D
S31508001360206F00F2B681019BB3F5106F00F07B8108
S31508001370019BB3F5106F00F2AC81019BB3F5086FC2
S3150800138000F07781019BB3F5086F00F2A281019BFB
S31508001390B3F5F06F00F05B81019BB3F5F06F00F2D7
S315080013A09881019BB3F5E06F00F07B81019BB3F553
S315080013B0E06F00F28E81019BB3F5D06F00F04D818E
S315080013C0019BB3F5D06F00F28481019BB3F5C06F22
S315080013D000F03781019BB3F5C06F00F27A81019B5B
S315080013E0B3F5B06F00F01B81019BB3F5B06F00F247
S315080013F07081019BB3F5A06F00F04781019BB3F59F
S31508001400A06F00F26681019BB3F5806F00F00D8135
S31508001410019BB3F5806F00F25C81019BB3F5607F99
S3150800142000F02D81019BB3F5607F00F25281019B8C
S31508001430802B00F2C780019B242BC0F04A81019BB8
S31508001440243B5C2B00F2458101A252F823F000BF31
S315080014502B1600082B1600082B1600082B1600085A
S315080014602B160008D31600081F160008D316000806
S31508001470431600085B160008D3160008D3160008A2
S31508001480D3160008D3160008D3160008D31600088A
S31508001490D3160008D3160008D3160008D31600087A
S315080014A0D3160008D3160008D3160008D31600086A
S315080014B0D31600084F160008A3160008D31600080E
S315080014C0D3160008D3160008D3160008D31600084A
S315080014D0D3160008D3160008D3160008D31600083A
S315080014E0D3160008D3160008D3160008D31600082A
S315080014F0D31600082B160008D3160008D3160008C2
S31508001500D316000867160008D3160008D316000875
S31508001510AF160008C71600088B16000897160008AD
S31508001520D3160008D3160008D3160008D3160008E9
S31508001530D3160008BB160008D3160008D3160008F1
S31508001540D3160008D3160008D3160008D3160008C9
S31508001550D3160008D3160008D3160008D3160008B9
S31508001560D3160008D3160008D3160008D3160008A9
S31508001570D3160008D3160008D3160008D316000899
S31508001580D3160008D3160008D3160008D316000889
S31508001590D3160008D3160008D3160008D316000879
S315080015A0D3160008D3160008D3160008D316000869
S315080015B0D3160008D3160008D3160008D316000859
S315080015C0CF150008019BB3F5807F34D081E0464BE8
S315080015D01B6F03F00703013B032B17D801A252F830
S315080015E023F000BF07160008F5150008FB150008CC
S315080015F0011600080523039310E0032303930DE067
S31508001600082303930AE00223039307E000230393C6
S3150800161040F2C641354801F0C7FC00BF5FE003ABA6
S315080016201946002000F050FE59E003AB1946002089
S3150800163000F0F2FC53E003AB1946002000F096FFD9
S315080016404DE003AB1946002000F048FD47E003AB28
S315080016501946002000F08CFD41E003AB1946002036
S3150800166000F0DCFE3BE003AB1946002000F02AFF41
S3150800167035E003AB1946002000F084FC2FE003ABED
S315080016801946002000F03CFC29E003AB194600206F
S3150800169000F07EFA23E003AB1946002000F0CEFAEC
S315080016A01DE003AB1946002000F06EFE17E003AB01
S315080016B01946002000F020FB11E003AB1946002074
S315080016C000F06EFB0BE003AB1946002000F0BCFBF4
S315080016D005E040F27951054801F066FC00BF039B1E
S315080016E0184605B05DF804FB0080005098320008E3
S315080016F0074B03F580531A464FF480135366054B80
S3150800170003F580531A464FF48033936200BF70473F
S31508001710008000500040005A00B585B00190019B3A
S315080017201B680F2B04D940F66D31964801F03CFC36
S31508001730019B5B680F2B04D94FF43761914801F080
S3150800174033FC019B9B680F2B04D940F673318D48F7
S3150800175001F02AFC019B1B7B0F2B04D940F676313E
S31508001760884801F021FC019B5B7B0F2B04D940F6CE
S315080017707931844801F018FC019B9B7B3F2B04D9E7
S3150800178040F67C317F4801F00FFC019BDB7B3F2B49
S3150800179004D940F67F317B4801F006FC019B1B69A2
S315080017A0032B04D940F68231764801F0FDFB019BF4
S315080017B05B69032B04D940F68531724801F0F4FBC6
S315080017C0019BDB69032B04D940F688316D4801F08B
S315080017D0EBFB8020FFF79AFD0346032B00F01781E9
S315080017E0694B03F580531A464FF480135366674BCB
S315080017F045F60E02C3F88020644B03F580531A465B
S315080018004FF0A0639362614B03F500531A464FF4F9
S315080018108033936200BF5D4B9B6D03F48033002BCE
S31508001820F9D100BF594B9B6D03F08043002BF9D1CA
S31508001830019B1B681A06019B5B681B051A43019BE3
S315080018401B7B1B041A43019B5B7B1B031A43019BEF
S315080018509B7B9B011343019AD27B11464B4A0B4350
S3150800186013614A4B9B6903F00042019B1B699B0667
S315080018701A43019B5B691B061A43019B1B7E1B04CB
S315080018801A43019B5B7E1B021343019A927E114603
S315080018903E4A0B4393613D4B1B6A23F00F03019AA3
S315080018A0D269002A01D1002200E008221A43019BCE
S315080018B0DB7E9B001A43019BDB69344913430B62A9
S315080018C0019BDB69002B67D1304B9A6A304B13407A
S315080018D0019A92F8202052011A43019B93F821306D
S315080018E01B011A43019B93F82430DB001343274A54
S315080018F043F48033936200BF244B9A6D254B134003
S31508001900244A9342F8D1214B03F580531A464FF0E7
S31508001910807393621D4B1B6923F47002019B9B68BD
S315080019201B051A4913430B61184B03F580531A46D6
S315080019304FF000439361019B93F8223083F0010333
S31508001940DBB2002B06D0114B03F500531A464FF0B5
S3150800195080739362019B93F8233083F00103DBB213
S31508001960002B4AD0094B03F500531A464FF480332F
S31508001970936200BF054B9B6D03F08043002BF9D1A2
S315080019803BE000BF98320008008000500040005A33
S31508001990C7FFFEFE03000100019BDB69022B12D183
S315080019A01D4B00221A611C4B00229A6102230393E5
S315080019B0039B1A03039B1B0213431A464FF47F41EA
S315080019C0164801F00DFB144B9A6A154B1340019A01
S315080019D092F8202052011A43019B93F822301B06E5
S315080019E01A43019B93F82430DB001A43019B93F8B2
S315080019F023301B04084913438B62019B93F8253057
S31508001A00002B05D0044B074AC3F8802000E000BF2E
S31508001A1005B05DF804FB00BF0040005A3440005A88
S31508001A20C7FFFEFEF1A7FFFF024B93F900301846E9
S31508001A30704700BF1410002000B585B00190019BC7
S31508001A405B68072B04D940F6B351404801F0ACFA5D
S31508001A50019B9B68032B04D940F6B5513B4801F01E
S31508001A60A3FA019B1B78032B04D940F6B7513748D4
S31508001A7001F09AFA019B5B785BB2002B04DA40F618
S31508001A80B951324801F090FA4F230393019B5B78D2
S31508001A908DF80B309DF80B20039B934228BF134605
S31508001AA08DF80A302A4B03F580531A464FF4000383
S31508001AB05366284B4FF4D1525A62264B03F580538E
S31508001AC01A4602235360234B03F500531A46012393
S31508001AD0536000BF1F4B1B6903F48033002BF9D1F9
S31508001AE0019B1B781A029DF80A301A4913434B6169
S31508001AF0019B5B681A02019B9B681B011A43019BA9
S31508001B001B7B5B001343019A527B1146114A0B4318
S31508001B109360019B9B7B5A01019BDB7B1B011A434C
S31508001B20019B1B7C5B001343019A527C1A43094BA9
S31508001B305A60019B9B7C002B03D0064B6FF4D15255
S31508001B405A6200BF05B05DF804FB00BF9832000872
S31508001B50008000500000025082B00346ADF80630FF
S31508001B60034ABDF80630138000BF02B0704700BFB5
S31508001B701010002082B00346ADF80630034ABDF8BF
S31508001B800630138000BF02B0704700BF1210002055
S31508001B9000B585B00190009100230293254BD3F838
S31508001BA0203203F00703042B2CD801A252F823F0A5
S31508001BB0FF1B0008C51B0008D51B0008E31B00080F
S31508001BC0F11B000802AB0021184600F037F8122373
S31508001BD003931FE0FEF7DAFD0346029307230393F8
S31508001BE018E001F0D9F9034602930A23039311E09A
S31508001BF0FEF73CFE03460293092303930AE00123FA
S31508001C00039307E00023039341F223010A4801F0F6
S31508001C10CBF900BF019B002B02D0029A019B1A60E8
S31508001C20009B002B02D0009B039A1A6000BF05B0E8
S31508001C305DF804FB008000509832000800B585B0B6
S31508001C400190009100230393294BD3F8283103F020
S31508001C500703013B052B33D801A252F823F000BF36
S31508001C60791C00089D1C0008B51C0008911C00087A
S31508001C70851C0008A91C0008FEF714FD039005231F
S31508001C80029325E0FEF70EFD0390062302931FE05C
S31508001C90FEF77CFD03900723029319E0FEF754FD37
S31508001CA003900323029313E0FEF74EFD03900423EB
S31508001CB002930DE0FEF764FD03900223029307E00A
S31508001CC00023029341F264010A4801F06DF900BF4E
S31508001CD0019B002B02D0019B039A1A60009B002BE4
S31508001CE002D0009B029A1A6000BF05B05DF804FB9B
S31508001CF0008000509832000800B585B00190009128
S31508001D0000230293244BD3F8603203F00703013B08
S31508001D10032B29D801A252F823F000BF2D1D000875
S31508001D203D1D00085B1D00084D1D000802AB002183
S31508001D30184600F071F9102303931DE002AB002149
S31508001D40184600F0CBF91123039315E0FEF71EFDA4
S31508001D5003460293072303930EE0FEF711FD03469D
S31508001D6002930223039307E00023039341F2C80179
S31508001D700A4801F019F900BF019B002B02D0029A0C
S31508001D80019B1A60009B002B02D0009B039A1A60E5
S31508001D9000BF05B05DF804FB0080005098320008CB
S31508001DA000B585B00190009100230293244BD3F827
S31508001DB0943203F00703013B032B29D801A252F8FA
S31508001DC023F000BFD51D0008E51D0008031E000806
S31508001DD0F51D000802AB0021184600F01DF9102376
S31508001DE003931DE002AB0021184600F077F9112392
S31508001DF0039315E0FEF7CAFC0346029307230393F1
S31508001E000EE0FEF7BDFC034602930223039307E0A8
S31508001E100023039341F2FB010A4801F0C5F800BF0D
S31508001E20019B002B02D0029A019B1A60009B002B93
S31508001E3002D0009B039A1A6000BF05B05DF804FB48
S31508001E40008000509832000800B585B001900091D6
S31508001E5000230293174BD3F8703203F00303012BC8
S31508001E6002D0022B08D00CE002AB0021184600F085
S31508001E7035F9112303930CE00023029315230393EA
S31508001E8007E00023039341F226110B4801F08CF872
S31508001E9000BF019B002B02D0029A019B1A60009B8F
S31508001EA0002B02D0009B039A1A6000BF05B05DF8AC
S31508001EB004FB00BF0080005098320008044B03F56D
S31508001EC080531A464FF48033136700BF704700BF2C
S31508001ED00080005008B58020FEF7C4FE0346064A77
S31508001EE0934206D8054B03F500531A464FF4803340
S31508001EF0136700BF08BD00BF005A62020080005089
S31508001F0000B585B001900091002303931B4BD3F8CD
S31508001F10803003F00303032B12D0032B16D8012BB2
S31508001F2002D0022B06D011E0FEF7C2FB03900E2367
S31508001F30029313E0FEF72AFC0390072302930DE0B1
S31508001F40FEF7B0FB03900623029307E000230293F3
S31508001F5041F2DF110A4801F027F800BF019B002B68
S31508001F6002D0019B039A1A60009B002B02D0009BAB
S31508001F70029A1A6000BF05B05DF804FB00800050A5
S31508001F809832000800B585B00190009100230393AC
S31508001F901F4BD3F8003103F00303032B1FD801A20C
S31508001FA052F823F0D91F0008B51F0008C11F000802
S31508001FB0CD1F0008FEF7C8FB03900323029316E023
S31508001FC0FEF754FC03900923029310E000F0E1FFAA
S31508001FD00390082302930AE00123029307E00023F3
S31508001FE0029341F215210B4800F0DEFF00BF019B6A
S31508001FF0002B02D0019B039A1A60009B002B02D08B
S31508002000009B029A1A6000BF05B05DF804FB00BF8A
S31508002010008000509832000800B585B00190009104
S31508002020002303932B4BD3F8203103F00703062B29
S3150800203037D801A252F823F0852000085520000859
S3150800204061200008792000086D2000088B20000810
S3150800205097200008FEF726FB03900523029328E045
S31508002060FEF772FB03900323029322E0FEF78EFB32
S315080020700390072302931CE0FEF782FB03900223DA
S31508002080029316E00123029313E0FEF70BFB03907D
S31508002090062302930DE0FEF757FB039004230293F1
S315080020A007E00023029341F25C210B4800F07CFF15
S315080020B000BF019B002B02D0019B039A1A60009B6C
S315080020C0002B02D0009B029A1A6000BF05B05DF88B
S315080020D004FB00BF008000509832000800B585B0A8
S315080020E001900091002303931F4BD3F8403103F06E
S315080020F00303032B1FD801A252F823F0312100084D
S315080021000D210008192100082521000800F044FFC8
S3150800211003900A23029316E0FEF7A8FB039009230F
S31508002120029310E000F03CFF03900C2302930AE0B0
S315080021300123029307E00023029341F28E210B4804
S3150800214000F032FF00BF019B002B02D0019B039ACF
S315080021501A60009B002B02D0009B029A1A6000BFEF
S3150800216005B05DF804FB00BF0080005098320008F7
S3150800217000B585B001900091002303931F4BD3F857
S31508002180603103F00303032B1FD801A252F823F092
S31508002190C5210008A1210008AD210008B9210008C1
S315080021A000F0FAFE03900A23029316E0FEF75EFBA0
S315080021B003900923029310E000F0F2FE03900C232B
S315080021C002930AE00123029307E0002302934FF4E7
S315080021D096510B4800F0E8FE00BF019B002B02D089
S315080021E0019B039A1A60009B002B02D0009B029A5F
S315080021F01A6000BF05B05DF804FB00BF0080005000
S315080022009832000884B0019000914FF4401303936C
S31508002210009B002B0AD1019B0D4A934203D94FF428
S31508002220801303930FE0002303930CE0009B002B1D
S3150800223009DD019B074A934203D94FF480130393A0
S3150800224001E000230393039B184604B0704700BFC0
S31508002250005A6202002D310100B585B00190009147
S31508002260184B03F580531A464FF4803393660020C3
S31508002270FEF770FB0246019B02FB03F30193FEF790
S315080022803BFB03468DF80F30FEF74CFBFEF752FB7F
S31508002290034623F44013029300990198FFF7B2FF0F
S315080022A00246029B134302930298FEF749FB9DF8E8
S315080022B00F30002B01D0FEF72DFB00BF05B05DF8EF
S315080022C004FB00BF0080005000B585B00190009166
S315080022D0002302931D4BD3F8803103F00303032B2D
S315080022E00ED0032B1AD8012B02D0022B0FD015E0E3
S315080022F002AB00211846FFF78FFE1023039315E063
S31508002300FEF744FA03460293072303930EE0FEF70B
S3150800231037FA034602930223039307E00023039345
S3150800232041F2B1310A4800F03FFE00BF019B002B85
S3150800233002D0029A019B1A60009B002B02D0009BD8
S31508002340039A1A6000BF05B05DF804FB00800050D0
S315080023509832000800B583B0022301934FF4C07089
S31508002360FEF780FC0346074A934201D801230193EE
S3150800237001994FF42070FEF763FB00BF03B05DF8C8
S3150800238004FB00BF80F0FA0200B585B00190009109
S31508002390002303931F4BD3F8403203F00303032BA8
S315080023A01FD801A252F823F0DD230008B92300083C
S315080023B0C5230008D123000800F0EEFD03900A2388
S315080023C0029316E0FEF752FA03900923029310E0EF
S315080023D000F0E6FD03900C2302930AE00123029322
S315080023E007E00023029341F22E410B4800F0DCFD82
S315080023F000BF019B002B02D0019B039A1A60009B29
S31508002400002B02D0009B029A1A6000BF05B05DF847
S3150800241004FB00BF008000509832000800B585B064
S315080024200190009100230393244BD3F8003203F064
S315080024300703042B29D801A252F823F085240008A3
S31508002440512400085D240008692400087524000842
S3150800245000F0A2FD03900A2302931EE0FEF706FA97
S3150800246003900923029318E000F09AFD03900C23C9
S31508002470029312E0FEF744F903469B0A03930F23DF
S3150800248002930AE00123029307E00023029341F234
S315080024906F410B4800F088FD00BF019B002B02D05E
S315080024A0019B039A1A60009B002B02D0009B029A9C
S315080024B01A6000BF05B05DF804FB00BF008000503D
S315080024C09832000800B585B0019000910023039367
S315080024D0244BD3F8083203F00703042B29D801A2AA
S315080024E052F823F02D250008F924000805250008D0
S315080024F0112500081D25000800F04EFD03900A234B
S3150800250002931EE0FEF7B2F903900923029318E03E
S3150800251000F046FD03900C23029312E0FEF7F0F854
S3150800252003469B0A03930F2302930AE001230293AF
S3150800253007E00023029341F2A7410B4800F034FD5F
S3150800254000BF019B002B02D0019B039A1A60009BD7
S31508002550002B02D0009B029A1A6000BF05B05DF8F6
S3150800256004FB00BF008000509832000800B585B013
S315080025700190009100230393114B1B6803F0040399
S31508002580002B06D0FEF7BCF8034603930D230293EF
S3150800259005E002AA03AB11461846FFF79FFD019B0B
S315080025A0002B02D0039A019B1A60009B002B02D0D5
S315080025B0029A009B1A6000BF05B05DF804FB00BFD5
S315080025C010E000E0024B034A1A6400BF704700BFE0
S315080025D0004009503254FFFF024B4AF6CD321A64C6
S315080025E000BF70470040095082B0019000BF054BFC
S315080025F05A6B019B1340002BF9D100BF00BF02B0F4
S31508002600704700BF0040095008B500BF04210448C0
S3150800261000F060FD0346002BF8D100BF00BF08BDDF
S315080026208440005008B5FFF7EFFF044BD3F8843019
S315080026309B0903F00303DBB2184608BD00400050AF
S3150800264082B00190064BDB6E23F03003019A1279B3
S315080026501146034A0B43D36600BF02B0704700BF5A
S315080026600040005000B585B001900B468DF8033048
S31508002670019B002B03D1FEF71BF8039001E0019B99
S3150800268003930D4B1B78002B0AD0039B0B4A9342EE
S3150800269006D89DF803301946012000F011F806E027
S315080026A09DF803301946022000F00AF800BF00BF63
S315080026B005B05DF804FB00BF38100020005A62021E
S315080026C010B586B003460A468DF8073013468DF8CE
S315080026D00630FFF7A7FF03461A469DF807309342D0
S315080026E052D0FDF7E5FF0590059B04939DF807304A
S315080026F0012B0CD1049B264A934204D940F29271CD
S31508002700244800F051FC0121059800F0A7FC00F0D0
S31508002710CBFC0390204B03F500531A464FF0007389
S3150800272053669DF80730184600F0EFFC1A4C9DF8E2
S315080027300730184600F0DBFC034623670BE0164B10
S31508002740D3F8843003F02003002B04D04FF4F4614F
S31508002750104800F029FC104B5B6E03F00073002B49
S3150800276006D10D4BD3F8843003F02003002BE6D0B6
S31508002770039800F0A5FC9DF80730022B05D100212F
S31508002780059800F06BFC00E000BF06B010BD00BF66
S31508002790005A6202D43200080040005000B587B0E3
S315080027A003468DF807300023059300230493404B16
S315080027B003F580531A464FF0004353663D4B5B6C56
S315080027C003F00103002B14BF012300238DF80F30FB
S315080027D0FFF702FF9DF80730002B28D10120FFF7ED
S315080027E003FF344B5B6803F001030293029B002B43
S315080027F050D0304B03F500531A460123536002E0CC
S31508002800049B013304932B4B1B6B03F00103002B32
S3150800281003D1049B284A9342F2D9049B264A934241
S3150800282038D90723059335E0049B01330493214BDC
S315080028301B6B03F00803002B03D0049B1E4A93422C
S31508002840F2D9049B1C4A934202D90723059321E037
S31508002850184B03F500531A4620239362154B03F5CC
S3150800286080531A46012353600023049302E0049B15
S31508002870013304930F4B9B6A03F02003002B03D10B
S31508002880049B0D4A9342F2D9049B0B4A934201D901
S31508002890072305939DF80F30002B01D0FFF792FE12
S315080028A000F03AFC059B184607B05DF804FB00BF2C
S315080028B000800050004009503F420F0000B585B027
S315080028C00190254B03F580531A464FF00043536693
S315080028D0224B5B6C03F00103002B14BF012300237A
S315080028E08DF80F30FFF778FE019B5B785B001C4A7A
S315080028F043F00103D3630B20FFF776FE174B5B68A3
S3150800290023F4F872019B9B781B01144913434B600F
S31508002910019BDB781B02019A527911460F4A0B4339
S315080029209360019B1B791B02019A927911460B4A07
S315080029300B431361019B1B781846FFF72FFF9DF881
S315080029400F30002B01D0FFF73DFE00F0E5FB012319
S31508002950184605B05DF804FB008000500040095099
S315080029600040005000B585B0019000238DF80F3067
S3150800297000238DF80E30019B0F2B04D940F62D61EC
S31508002980224800F011FB019B0F2B01D90F2301935D
S315080029901F4B5B6EDB0F8DF80E301D4B03F5805316
S315080029A01A464FF0004353661A4B5B6C03F001035B
S315080029B0002B14BF012300238DF80F30FFF70CFE00
S315080029C08020FFF711FE134B1B6A23F00F021149F3
S315080029D0019B13430B629DF80F30002B01D0FFF7C4
S315080029E0F1FD9DF80E3083F00103DBB2002B06D013
S315080029F0074B03F500531A464FF00043536600F0A1
S31508002A008BFB00BF05B05DF804FB00BFD43200089D
S31508002A10008000500040095000B583B0034600917D
S31508002A208DF807309DF80730002B14D09DF8073035
S31508002A30012B0ED09DF80730022B07D09DF80730E2
S31508002A40032B01D13F2308E0002306E040F2FF33C1
S31508002A5003E03F2301E040F2FF33009AD34003F03E
S31508002A600103002B04D140F2FE310A4800F09CFA1B
S31508002A7009489DF807200121009B994013465B00F1
S31508002A8013441B01034403F50153196000BF03B047
S31508002A905DF804FB4C33000800C0035000B583B052
S31508002AA0034600918DF807309DF80730002B14D0A7
S31508002AB09DF80730012B0ED09DF80730022B07D062
S31508002AC09DF80730032B01D13F2308E0002306E0D9
S31508002AD040F2FF3303E03F2301E040F2FF33009A60
S31508002AE0D34003F00103002B04D140F22D410A48DC
S31508002AF000F05AFA09489DF807200121009B9940E1
S31508002B0013465B0013441B01034403F58253196003
S31508002B1000BF03B05DF804FB4C33000800C0035047
S31508002B2000B585B002910192009303468DF80F30E7
S31508002B309DF80F30002B14D09DF80F30012B0ED0C6
S31508002B409DF80F30022B07D09DF80F30032B01D1CB
S31508002B503F2308E0002306E040F2FF3303E03F236B
S31508002B6001E040F2FF33029AD34003F00103002B41
S31508002B7004D14FF4B071314800F016FA019B002BCE
S31508002B800FD0009B002B06D09DF80F3002991846EF
S31508002B90FFF784FF05E09DF80F3002991846FFF706
S31508002BA03BFF029B072B17D89DF80F2013465B00A7
S31508002BB013441B011A1D224B1344029A92000F213B
S31508002BC001FA02F0029A9200019901FA02F201460C
S31508002BD0184600F0A3FA19E09DF80F2013465B008B
S31508002BE013441B0103F10C02154B1344029A083ACD
S31508002BF092000F2101FA02F0029A083A920001990E
S31508002C0001FA02F20146184600F088FA019B002BE9
S31508002C100FD1009B002B06D09DF80F30029918465D
S31508002C20FFF73CFF05E09DF80F3002991846FFF7BD
S31508002C30F3FE00BF05B05DF804FB00BF883300084B
S31508002C4030C0035000B583B00A4A6B4692E80300C9
S31508002C5018600433198002330A0C1A706B4618463A
S31508002C60FFF72CFE0C20FFF77DFE0023184603B065
S31508002C705DF804FBC433000800B583B00A4B5B6FEC
S31508002C80094A43F0010353676B4600221A601A711A
S31508002C9000238DF804306B461846FFF7D1FC002355
S31508002CA0184603B05DF804FB0040005030B597B0F5
S31508002CB02C4B0BAC1D460FCD0FC40FCD0FC495E89A
S31508002CC0030084E80300002312934FF0FF331593A3
S31508002CD0254BD3F84C3103F40023002B04D1224BA7
S31508002CE0D3F85031DBB21593159BB3F1FF3F08D1EA
S31508002CF01E4B1B884FF6FF72934202D01B4B1B8854
S31508002D001593159BB3F1FF3F01D164231593159BCA
S31508002D10B3F1FF3F18D0159BDBB28DF84530FEF7AF
S31508002D2083FE0246159B13441593159B002B02DA66
S31508002D300023159304E0159BFF2B01DDFF23159354
S31508002D40159BDBB28DF844300948FDF703FD0BAB44
S31508002D501846FEF7E1FC3220FEF70CFF0023184662
S31508002D6017B030BDCC3300080080E00F0001E00F3B
S31508002D70C017530230B587B00C4B01AC1D460FCDBA
S31508002D800FC42B6823600023039325238DF8053091
S31508002D900423029301AB1846FEF74EFE3220FEF7D7
S31508002DA0DBFE0023184607B030BD00BFF433000829
S31508002DB082B0034600918DF807309DF90730002B45
S31508002DC00ADB009BDAB20C499DF907301201D2B230
S31508002DD00B4483F800230BE0009BDAB207499DF801
S31508002DE0073003F00F03043B1201D2B20B441A76E4
S31508002DF000BF02B0704700BF00E100E000ED00E050
S31508002E0008B5064B044613B10021AFF30080044B06
S31508002E101B6803B19847204600F0CBF80000000075
S31508002E203C10002070B50D4D00260D4C641BA410F7
S31508002E30A64209D10B4D00260B4C00F0D1F9641BB4
S31508002E40A410A64205D170BD55F8043B0136984733
S31508002E50EEE755F8043B01369847F2E718100020CC
S31508002E6018100020181000201C10002082B00190B5
S31508002E700091019B1A68009B22FA03F303F00103F1
S31508002E80184602B0704708B5012304220421002021
S31508002E90FFF746FE0023012200210020FFF740FE2F
S31508002EA000BF08BD08B500210020FDF7E7F9034675
S31508002EB0002B04D004210020FDF724FA03E00421A6
S31508002EC00020FDF761FA00BF08BD08B500F05CF9FF
S31508002ED0FFF7D9FF00F065F9FFF7E4FF00BFF9E750
S31508002EE000BF704700BF704708B5FFF7FBFF00F04B
S31508002EF02FF900F02DF8FFF7A5FEFFF73BFFFFF7C8
S31508002F00D5FEFDF783FAFFF7B7FE00F018F800BF05
S31508002F1008BD00BF704708B500F00EF800BF08BD31
S31508002F2000BF704700BF704700BF704700BF7047BB
S31508002F3000BF704700BF70470F231846704708B593
S31508002F4001213A20FDF754FEFFF7CAFF00BF08BD6E
S31508002F5008B501213A20FDF74BFE00BF08BD00BFAA
S31508002F60FDE784B0039002910192019B002B0DD0DE
S31508002F7007E0039A131D0393029B191D0291126819
S31508002F801A60019B5A1E0192002BF2D100BF04B0B1
S31508002F9070470023184670474FF400431846704799
S31508002FA04FF47A731846704782B00190009100BFBB
S31508002FB0FDE782B0019000BFFDE708B5FDF7A0FB6D
S31508002FC00346184608BD82B001900091019B1A6815
S31508002FD0009B22FA03F303F00103184602B0704778
S31508002FE000B587B003900291019200F05DF8059054
S31508002FF0039B1A68029BDB431A400199029B0B400C
S315080030001A43039B1A60059800F05AF800BF07B0E8
S315080030105DF804FB08B501210220FFF751FB00F01B
S3150800302039F800F02FF8FEF749FF00BF08BD10B5C4
S31508003030FFF7C3FF0446FDF751FC0346C3F102033D
S315080030401946204600F00AF801210020FFF70AFB7E
S31508003050FFF780F9FEF73EFF00BF10BD00B583B04D
S3150800306001900091009B002B04DD01210198FFF7D8
S31508003070F3F803E000210198FFF7EEF800BF03B06C
S315080030805DF804FB08B502214FF42070FDF7D8FC63
S3150800309000BF08BD08B5FDF751FB034600211846D9
S315080030A0FFF7DAF800BF08BD82B0EFF3108300938C
S315080030B0009B019372B600BF019B184602B0704789
S315080030C082B00190019B002B01D162B600BF00BF00
S315080030D002B0704782B001900091019B1A68009B6C
S315080030E022FA03F303F00103184602B0704782B0D0
S315080030F003468DF807309DF80730013B4FF4806290
S3150800310002FA03F3184602B0704782B003468DF8F8
S31508003110073000BF02B0704700BF704700B587B0E0
S31508003120039002910192FFF7BFFF0590039B1A686F
S31508003130029BDB431A400199029B0B401A43039BEF
S315080031401A600598FFF7BCFF00BF07B05DF804FBDF
S3150800315000B583B0FB238DF807300CE09DF90730E6
S3150800316005211846FFF724FE9DF90730DBB2013327
S31508003170DBB28DF807309DF907304B2BEEDD0023C7
S31508003180184603B05DF804FB08B5FFF7ADFEFFF778
S31508003190C0FEFFF7C0FEFFF7C3FEFFF7C3FE00BF82
S315080031A008BD08B5FFF7C0FEFFF7C0FEFFF7C0FE73
S315080031B0FFF7C0FE00BF08BD02440346934200D194
S315080031C0704703F8011BF9E7000000000000000043
S315080031D000000000000000000000000000000000E1
S315080031E0F8B500BFF8BC08BC9E467047F8B500BFE6
S315080031F0F8BC08BC9E4670470000000000000000AE
S3150800320000000000000000000000000000000000B0
S3150800321000000000000000000000000000000000A0
S31508003220653A5C73696C69636F6E6C6162735C7333
S31508003230646B73325C6765636B6F5F73646B5C703A
S315080032406C6174666F726D5C656D6C69625C696EE3
S31508003250635C656D5F6770696F2E6800653A5C73BD
S31508003260696C69636F6E6C6162735C73646B7332ED
S315080032705C6765636B6F5F73646B5C706C617466C7
S315080032806F726D5C656D6C69625C696E635C656DB9
S315080032905F6275732E680000453A2F53696C69633F
S315080032A06F6E4C6162732F53444B73322F6765639D
S315080032B06B6F5F73646B2F706C6174666F726D2FC2
S315080032C0656D6C69622F7372632F656D5F636D75CB
S315080032D02E630000453A2F53696C69636F6E4C6123
S315080032E062732F53444B73322F6765636B6F5F733B
S315080032F0646B2F706C6174666F726D2F656D6C6987
S31508003300622F7372632F656D5F656D752E6300009E
S31508003310653A5C73696C69636F6E6C6162735C7342
S31508003320646B73325C6765636B6F5F73646B5C7049
S315080033306C6174666F726D5C656D6C69625C696EF2
S31508003340635C656D5F6275732E680000653A5C7331
S31508003350696C69636F6E6C6162735C73646B7332FC
S315080033605C6765636B6F5F73646B5C706C617466D6
S315080033706F726D5C656D6C69625C696E635C656DC8
S315080033805F6770696F2E6800453A2F53696C6963E9
S315080033906F6E4C6162732F53444B73322F676563AC
S315080033A06B6F5F73646B2F706C6174666F726D2FD1
S315080033B0656D6C69622F7372632F656D5F677069DF
S315080033C06F2E630001031001010903000B000000C2
S315080033D00C00000003000000000020200000000090
S315080033E0030000003C3C3C00000000000000000018
S315080033F00000000001260000040000000000000094
S30D080034000001000000000000B5
S30D08003408F8CDFF7F010000006A
S311080034101C340008001000200800000012
S3150800341CC017530200800000C0EA2101C0EA21014E
S3150800342CFFFFFFFF28000000DD010008B5010008BA
S7050800050DE0
