S01700006E63702D756172742D68775F584732342E73333743
S3150800600000100020616E000885BE000889BE0008E1
S31508006010995703088DBE000895BE000899570308CE
S315080060209957030899570308995703089957030876
S3150800603099BE000884F50308995703089957030879
S315080060405D73000899570308995703089957030879
S315080060509957030899570308995703089957030846
S3150800606099570308BD6C00087F540308995703081D
S315080060709957030899570308995703089957030826
S315080060809957030899570308995703089957030816
S3150800609099570308997900089957030899570308E7
S315080060A099570308995703089957030899570308F6
S315080060B099570308119601089DA00108A9A9030884
S315080060C0A5A9030845980108B5A90308ADA90308B9
S315080060D075A00108B1A90308DDA0010849A10108B6
S315080060E09957030899570308A5BF00089957030845
S315080060F067670308995703089957030899570308C8
S315080061009957030899570308995703089957030895
S315080061109957030899570308995703089957030885
S315080061209957030899570308995703089957030875
S315080061309957030899570308995703089957030865
S31508006140995703089957030899570308436E030894
S315080061505586010899570308A9A60308AFA6030898
S315080061609957030899570308995703089957030835
S31508006170013800D0FCE770472DE9F04F93B0CDE920
S315080061800A32DDE91C530E9353EC102BCDE90801B6
S31508006190104619468DED060B1E9E2EF0B5FD80B1F4
S315080061A0DDE906014FF0FF32C54B2EF0D5FD40B9AB
S315080061B0DDE906014FF0FF326FF480132EF0AEFDD5
S315080061C070B1DDE908019DED060B0E9B1E96CDE923
S315080061D01C53DDE90A3213B0BDE8F04F00F088B968
S315080061E00022DDE9060100232EF098FD002800F0C4
S315080061F03381DDE906A303F1004BCBF30A5016F40D
S315080062008063A0F2FF3008BF06250F932EF0AAFA86
S315080062109BA3D3E900232EF00FFB9BA3D3E900230E
S315080062202EF054F9CBF31304894644F07F51804687
S315080062300022A44B504641F440112EF045F994A390
S31508006240D3E900232EF0F8FA02460B4640464946A3
S315080062502EF03CF92EF08AFD04462EF083FA8EA322
S31508006260D3E90023804689462EF0E6FA0022964BAB
S315080062702EF02CF92EF07AFD89A3D3E900230746E0
S31508006280494640462EF0D8FA8046384689462EF0CA
S3150800629069FA85A3D3E900232EF0CEFA02460B4607
S315080062A0404649462EF010F902460B46CDE90C2326
S315080062B02EF0C2FADDE90C238046894610461946B7
S315080062C02EF004F90022CDE91001804B40464946DC
S315080062D02EF0DCFB00227E4B2EF0F8F802460B4629
S315080062E0404649462EF0D2FB00227A4B2EF0EEF8B5
S315080062F002460B46404649462EF0C8FBDDE90C230C
S315080063008046894600204FF080412EF0DDF802468F
S315080063100B46404649462EF0D9F802460B46DDE9BB
S3150800632010012EF0B3FB07F2FF3700226A4B2EF05E
S31508006330CDF800223B052EF07FFA52465B46804692
S3150800634089462EF009FD002840F08980CDE90C89A0
S3150800635004F16303C72B34BF0427052731051BD572
S3150800636053A3D3E90023504659462EF0EBFC0028E8
S315080063707FD051A3D3E90023504659462EF0CEFCD0
S31508006380002876D00027A542C6BF2C1B04F1FF358E
S3150800639000253C4646F480660E9B9F422CBF4FF074
S315080063A00008A3EB070816F0020903D0002F18BF50
S315080063B04FF000083CB1DDE90C23504659462EF053
S315080063C065FB82468B46DDE90601002200232EF096
S315080063D0A5FC10B10BF100439B46DDE9080126F444
S315080063E00063CDE90183DDE90A324BEC10AB009579
S315080063F000F07EF802465FB3DDE9091316F0200FB8
S3150800640000F10105089E0CBF65204520B047DDE96F
S3150800641008010523002205930A23002CCDE9023240
S3150800642007F1FF374FEAD473B8BF64422A4601938F
S3150800643004970A9B009433F0EBF80246B9F1000F73
S3150800644006D00B9BC41A0B9B1A190E9BA34245D860
S31508006450104613B0BDE8F08FDDE906ABCDE60022A5
S31508006460404649461A4B2EF011FB013CCDE90C017A
S315080064706EE7002D90D00F9B002B8DD0013D8BE74A
S31508006480FB799F501344D33FB3C8608B288AC63F15
S3150800649061436F63A787D23F71A379094F930A4077
S315080064A01655B5BBB16B0240EF39FAFE422EE63FF0
S315080064B02D431CEBE2361A3F0000000080842E4173
S315080064C0FFFFEF7F0000F83F0000E03F00002C4090
S315080064D000002440000018400000F03F2020DDE9BD
S315080064E00913089DA8470134ADE700BF0000000066
S315080064F02DE9F04F5BEC10AB97B0CDE90501DDE96E
S315080065002057CDE90723504652465B465946229EF8
S315080065102EF0FAFB70B90323CDE902760193B04B4E
S315080065200093DDE90501DDE9072332F091FF17B095
S31508006530BDE8F08F4FF0FF326FF48013504659468E
S315080065402EF0ECFB28B10423CDE902760193A54B86
S31508006550E6E74FF0FF3250465946A34B2EF0FCFBB8
S3150800656068B1A24A06F00403002B08BF0322A04B19
S315080065701CBF13460422CDE902760192D0E75046A5
S3150800658093A3D3E9002359462EF0E6FB38B992A324
S31508006590D3E90023504659462EF0C0FB68B1DDE921
S315080065A00723DDE905014BEC10ABCDE921762095F3
S315080065B017B0BDE8F04FFFF7DFBD002200235046B5
S315080065C059462EF0ABFB002800F09A805B465246EF
S315080065D0002000212DF078FF012382468B4609937F
S315080065E016F4806400F08E80092D40F28E80002417
S315080065F030210EABA5F109020134202C03F8011B4A
S31508006600A5EB040901D09442F6D1594650462EF01E
S31508006610ADFB784B054603EBC90393ED007B8DED87
S315080066200A7B2EF09FF802460B46504659462DF037
S315080066304BFFDDE90A232EF0FFF802460B46CDE9AB
S315080066400C232EF0BBFB80462EF07CF802460B4648
S31508006650DDE90C012DF038FF02460B46CDE90C2387
S315080066600022654B2EF078FB002851D008F101086E
S3150800667040462EF067F802460B46DDE90A012EF081
S3150800668057FB10B14FF000080135B9F1000F50D192
S3150800669028462EF067F802460B46504659462DF016
S315080066A013FF0022544B804689462EF037FB30B143
S315080066B0002240464946504B2EF04EFB10B1E807E3
S315080066C000D501350A210EAB1A19202C0AD095FBE4
S315080066D0F1F001FB1055303502F8015B013405462F
S315080066E00028F2D106F00302012A57D1002F55D00F
S315080066F0099A12B916F00C0F00D0013F302245E076
S3150800670009906DE74FF006097FE7A94600247CE764
S315080067100022DDE90C01384B2EF000FB0028B4D12D
S31508006720B8F1000F02D018F0010FAED008F1010839
S31508006730ABE70A210EAB2344202C0ED0B8FBF1F0B0
S3150800674001FB1082B8F1090F02F1300209F1FF3995
S3150800675004F1010403F8012B11D83021A1440EAA33
S31508006760202CAFD0A14504F101030AD11C4609F13A
S3150800677058030DEB03092E2309F8203CA2E78046AF
S31508006780DAE7A1541C46EBE71A550134A74205D9A6
S31508006790202CF9D1CDE902760194C1E6202CF9D056
S315080067A0099A3AB12D2104F158026A4402F8201CCC
S315080067B00134EFE7710704D504F158022B216A4426
S315080067C0F4E73207E6D504F1580220216A44EDE7DA
S315080067D00000000065CDCD410000000065CDCDC1AB
S315080067E0191304081D130408FFFFEF7F101304088C
S315080067F015130408281304080000E03F00000000F1
S3150800680070B58EB02C22002103A838F036FE64231A
S315080068104FF002320893CDE905230B2301218DF8A9
S315080068203430514B8DF810101B88D80700F195802D
S31508006830084617F06BFC0A224C4B4D491A704FF468
S3150800684028734C48ADF8123013F03CFD4A4C2060D2
S3150800685020B94FF41171494805F012FA052120684C
S3150800686033F070FC20B14FF41571444805F008FA6E
S31508006870206800F035FA424B2068196833F0D8FCD6
S315080068800C2518F061FB6843099018F05DFB684316
S315080068900DEB0501079020680DF0CAFD20B140F206
S315080068A06921364805F0ECF900223649206833F0AC
S315080068B047FD20B140F26B21304805F0E1F940F27E
S315080068C00353314D314E2B80052396F90000AB70EA
S315080068D07F2801D117F0E4FD3378EB7018F034FB0C
S315080068E000EB80008000A88018F02EFB0023C00073
S315080068F04FF0FF31E880AB604FF0FF3018A3D3E9C3
S31508006900002317F02BFE2249206834F0F3F820689C
S3150800691002A933F0F4FC20B14FF42971174805F0A9
S31508006920AFF9042220680DEB020133F06FFC04284E
S3150800693004D040F2A721114805F0A2F901A90120C7
S3150800694035F0F0FA05F0E2FA012018F0A7FD2FF06D
S315080069504CF918F0DBFD17F05DFC0EB070BD00BFFA
S315080069600A0020FF42030000966D0020B870002040
S3150800697035E10108F8120020D86300205E530408A8
S3150800698038110020C6700020CC6300207D16002038
S31508006990D5E201080348044B834202D0034B03B1F6
S315080069A018477047A8240020A824002000000000EB
S315080069B0064B0749C91A891048BF0131491003D047
S315080069C0044B0BB101481847704700BFA8240020A4
S315080069D0A82400200000000010B5064C237843B90F
S315080069E0FFF7D8FF044B13B10448AFF30080012327
S315080069F0237010BD2A6E002000000000BC56040853
S31508006A0008B5054B1BB105490548AFF30080BDE83D
S31508006A100840FFF7CDBF00BF00000000582A00203D
S31508006A20BC560408A3F5803A704700BF174B002BE5
S31508006A3008BF134B9D46FFF7F5FF00218B460F460F
S31508006A401348144A121A38F018FD0E4B002B00D0C2
S31508006A5098470D4B002B00D09847002000210400D2
S31508006A600D000D48002802D00C48AFF300802EF028
S31508006A702DFC200029002EF09AFC2EF057FB00BFB3
S31508006A8000000800000000000000000000100020C0
S31508006A90A824002044710020000000000000000027
S31508006AA008B505F0BFFAFF21044808F0FBFDBDE86C
S31508006AB008404FF47A711AF05DBB00BF702A0020B7
S31508006AC010B5044670B9FF2307491A46074808F067
S31508006AD0BFFDFF21054808F0E5FD2146BDE8104049
S31508006AE01AF048BB10BD00BFA16A0008702A002032
S31508006AF010B5274C01F092FC01F0B4FE236F23F089
S31508006B00070343F0030323672EF032FF214B0020CF
S31508006B109B6ADB015EBF4FF480321F4B9A62D4F842
S31508006B20203123F0070343F00203C4F82031D4F8D8
S31508006B30283123F0070343F00203C4F82831D4F8B8
S31508006B40403123F0030343F00203C4F84031D4F87C
S31508006B50603123F0030343F00203C4F86031D4F82C
S31508006B60403223F0030343F00203C4F84032D4F85A
S31508006B70003223F0070343F00203C4F80032D4F8C6
S31508006B80083223F0070343F00203C4F8083210BDA5
S31508006B90008000500040005A0060005A30B5224D6F
S31508006BA095B00DAC0FCD0FC495E80700032384E814
S31508006BB007008DF84D3029231C4A1D49CDE90223CB
S31508006BC040F20153CDE9041300210E220DF12600EF
S31508006BD0069138F052FC4FF48020164B07A9CDE9F0
S31508006BE0070309238DF824300A238DF82530124B24
S31508006BF00DAA0A9320230B9301238DF831300F4BEE
S31508006C000F48009302AB04F035FA04469DF832307B
S31508006C104FF4E130002B0CBF032100212EF0ADFD0F
S31508006C20204615B030BD00BF4CF5030800C005501E
S31508006C300008000924C005502B6E0020902A002069
S31508006C40E42A0020831E012B10B512D8012922D868
S31508006C50114B04221B6C08210020C3F3002301F00A
S31508006C60C9FF0E4B1B681868A8B1BDE81040436AF7
S31508006C7018478B1E012B0CD801280CD8BDE81040EC
S31508006C800022054B08211B6C1046C3F3002301F0B4
S31508006C90B1BF0129E5D910BD00C00350B8100020C6
S31508006CA008B50449044806F0C7F9BDE80840FFF7E7
S31508006CB075BF00BFBC100020082B002001482FF02C
S31508006CC022BF00BFE42A0020014B1A6A1868104741
S31508006CD0E42A0020014B1878704700BF4B6E00204D
S31508006CE008B50DF0D3FB0022014B1A7008BD00BF92
S31508006CF04B6E002007B508202EF0B6FD02238DF84E
S31508006D000030054B684601932EF0FBFC082003B0C3
S31508006D105DF804EB2EF0B3BD006A18102DE9F043B8
S31508006D20434D89B001AC0FCD0FC495E80700012586
S31508006D3084E8070001213A2001F02EF93D4F012190
S31508006D40292001F029F93C4B384601A903938DF80F
S31508006D50125002F095F92B4629460422022001F02A
S31508006D6049FF02212A460846002301F043FF2B4625
S31508006D7004220321022001F03DFF04222B4611467E
S31508006D80022001F037FF2D4C2D4B1026C4F834375E
S31508006D904FF00213C4F83037A3F58033C4F83837F8
S31508006DA01C2304F50059C4F820374FF4487007F03F
S31508006DB067FB04F580581420C9F8A06007F060FB4B
S31508006DC02320C8F8A06007F05BFBB9213846C9F84C
S31508006DD0A0602EF08BFE002329461A460220C8F82A
S31508006DE0A06001F007FF002302211A46084601F0B9
S31508006DF001FF2B4600220321022001F0FBFE2B4651
S31508006E0000220421022001F0F5FE384602F0B6F809
S31508006E1000212920C4F83417C4F83017C4F83817E5
S31508006E20C4F8201701F0B8F809B0BDE8F08300BF30
S31508006E3068F5030800C0055000127A0000C0035028
S31508006E40020003000348044A0449121A92102EF05D
S31508006E50A4BC00BFDC6A0408DC6A0408447100208C
S31508006E6008B500F02FF8FFF7EDFF124B12498B42D9
S31508006E7012D30020114B12498B4218D3FFF7D6FDC7
S31508006E80186850F82240586840F82240013298683D
S31508006E908242F5D30C33EAE70022F8E71C6844F887
S31508006EA0220001325C68A242F8D30833E4E70022E4
S31508006EB0F8E700BFC4560408D0560408D05604089C
S31508006EC0D05604084FF480414FF0FF30114B124A58
S31508006ED010B59A60D3F8882042F47002C3F8882067
S31508006EE00E4A91660E4901F5005210660D48506625
S31508006EF00220C3F8D000BFF34F8FBFF36F8F012472
S31508006F004FF440330848C0F88041D36004600B61F1
S31508006F1010BD00BF00ED00E00060000800900050C2
S31508006F2000800044F7FF370000E100E0014B1868D5
S31508006F30704700BFC8100020084B1B6F03F00703FB
S31508006F40022B04D0032B05D0012B05D0FEE7044BFA
S31508006F5018687047034BFBE70348704700800050EA
S31508006F60C8100020D0100020002D310108B5FFF709
S31508006F70E3FF054B1B6FC3F303330133B0FBF3F099
S31508006F80024B186008BD00BF00800050C4100020E6
S31508006F900048704700B4C404014B1868704700BF26
S31508006FA0D0100020054B1860054B1B6F03F0070334
S31508006FB0032B01D1FFF7DABF704700BFD0100020BE
S31508006FC00080005000487047002D31014FF0B4434F
S31508006FD09868C0F304400C280AD8DFE800F00B09CB
S31508006FE009090909072119091B1D1F000F487047C0
S31508006FF0002070479B6803F04073B3F1807F11D07F
S31508007000B3F1007F10D00A4A002B08BF104670471C
S315080070100848704708487047084870470848704746
S31508007020084870470848704708487047405DC600DA
S3150800703000093D00C0EA210180BA8C010048E80138
S31508007040005A62020024F40080841E0040420F00A9
S31508007050014B1868704700BFCC100020BFF34F8F54
S315080070600549064BCA6802F4E0621343CB60BFF3D6
S315080070704F8F00BFFDE700BF00ED00E00400FA05F2
S315080070804FF000639B6A03F17842B2F5C04F03D212
S315080070901968064A914203D000230370836070473B
S315080070A0012202709A689B694260F7E707B0CD5ED5
S315080070B073B54F4B04461A781AB102221A7002B0F9
S315080070C070BDCDE900220028F9D001261E702EF0E9
S315080070D073FC484D484B186010F08AF92B785BB959
S315080070E000F094FC40B945480823454A45490068DC
S315080070F00CF0AAFB00B92E70434B5A6E62619B6E68
S31508007100424AA3614FF480439366414B5968E16153
S3150800711040499960196E2160596E6160D3F8701103
S31508007120A160196CE160596C21613B49086C1864CF
S31508007130496C5964012151661B6E9C0441D5374A36
S31508007140D368D807FCD4364B1A68531C3ED04FF484
S3150800715080139340334A13664FF400730426314C68
S31508007160266623662EF048FB01300DD02EF044FB30
S3150800717040F20113984207D04FF4005323664FF4A8
S3150800718080432366C4F870610823264C6846236644
S315080071904FF4805323664FF0006323664FF40023B1
S315080071A001A963662EF00CFB009B2366019B6366B0
S315080071B02B78002B83D0124B1A6822665B686366AD
S315080071C07DE7194AD368D907FCD4BCE7174B1B7867
S315080071D0002BC1D14FF400720C4B5A6603F5A62357
S315080071E05B68002BB8D14FF480120E4B1A66B3E7D2
S315080071F04D6E00204E6E0020302B0020FC10002023
S31508007200342B0020007108000080005000900050C8
S315080072100080004455CEAC0000C000540000044075
S31508007220D410002000900044000004504C6E00204A
S3150800723070B5224D04462E78012E02D001232B70FC
S3150800724070BD0028FCD02EF0D7FA01300BD02EF0F6
S31508007250D3FA40F20113984205D0194B194A5E66D3
S31508007260D368DE07FCD42268174B1A6662685A662A
S31508007270A268C3F87021E2681A6422695A64E2694E
S31508007280D00744BF00229A60104B1A68013207D112
S315080072900F4A127822B90F494968C90748BF1A60C8
S315080072A062690D4B5A66A2699A6610F0A9F80B4BEB
S315080072B018682EF087FB0023C1E700BF4D6E00203B
S315080072C0009000400000044000800044D4100020D4
S315080072D04C6E002000C0055000800050302B002066
S315080072E070B54FF00064A36A03F17842B2F5C04F57
S315080072F024D21A68134B9A4220D1134E337813F0CE
S31508007300FD0F02D00024204670BD1048FFF7D0FEBE
S3150800731001254FF480330E4A0E49C2F88051CB60DE
S3150800732015600D4A1361A36ADB6998470446074846
S31508007330FFF77EFF002CE6D13570E3E74FF4817442
S31508007340E1E700BF07B0CD5E4C6E0020102B002091
S3150800735000E100E000A000440090004413B5204B73
S315080073601B7803B9FEE700231E4CCDE900336A46B5
S3150800737008231D4920680CF067FAF0B91B4AD2F8B1
S315080073804031D2F840211F2B4FF0010310D9203A83
S315080073909340019A1A43019208236A4612492068C3
S315080073A00CF008FA4FF00053114A1A60FFF756FE20
S315080073B09340009A1A430092EEE70E4B9842F1D199
S315080073C00A4AD2F84031D2F840211F2B4FF0010368
S315080073D085BF203A93409340019398BF0093DBE71B
S315080073E04D6E0020FC10002000710800008000444B
S315080073F00B020FF00BE000F00346054A054910683A
S3150800740003448B428CBF4FF0FF301360704700BFB8
S31508007410D81000200000042008B501213A2000F009
S31508007420BBFD012304220321002001F0E3FB002019
S315080074302EF0DFFA0122354B3549C3F844244FF4C0
S315080074400022A3F550335A66324BD3F8FC20D201FA
S3150800745046D4D1F8803023F0030343F00203C1F881
S3150800746080304FF4607000F0B1FD2A4B00F5D5204E
S31508007470D3F8F02000F2FC4042F00102C3F8F020F5
S31508007480D3F8FC2042F08072C3F8FC20224AA3F508
S315080074905D431A60214B0222B0FBF3F0204B013802
S315080074A01861C3F8F0204FF48072C3F804234FF034
S315080074B060431C4A0020C3F8B02F1B4AC3F8802E2D
S315080074C0D3F8002E42F48072C3F8002EFF2283F808
S315080074D02020D3F8002E22F48072C3F8002E08BDAF
S315080074E0D3F8FC2022F08072C3F8FC20D1F8802063
S315080074F022F0030242F00202C1F88020D3F8FC20F1
S3150800750042F08072C3F8FC20ABE700BF00D00350FE
S315080075100080005000ED00E0FF030040F8590D0020
S31508007520000004E055CEACC5090001004FF06043E9
S31508007530D3F8802E30B5D20715D501240B4D8440DB
S31508007540D5F8FC2042F08072C5F8FC20D3F8002E4E
S315080075502243C3F8002E53F82020002AF0D003F85F
S315080075602010002030BD1120FCE700BF00ED00E030
S315080075702DE9F04F9A46564B85B01B7806460F46BE
S315080075801546DDF83C909DF844B0DDF85080002B98
S3150800759000F09780072A00F296800E9B002B00F0D9
S315080075A09280B9F1000F00F08E80129BB3F5006F40
S315080075B000F38980012803D1109B002B00F08380FB
S315080075C0444B03EB05131B7B002B7ED0424C102249
S315080075D00021684637F051FF04EB45141022A7BB7B
S315080075E03946204637F049FF43F210036380BBF162
S315080075F0000F03D1E37843F00303E370364A0E9B8A
S3150800760002EB451CCCE90193129B6901581E9DF8B3
S315080076104C30C0F30A0003F003039B0643EA001E3E
S3150800762053582E48012E00EA03004EEA0003CDF80F
S3150800763000A0535017D0B8F1000F2ED19CF8023095
S3150800764068F304138CF8023027E00021204637F04F
S3150800765014FF4FF444736380BBF1000FCED1E37877
S3150800766043F03003C9E713230CF1100ECCF80C30A5
S315080076709CE80F008EE80F006FF00301DCF81C2071
S31508007680109B61F39F02012FCCF81C20CCF8143014
S3150800769003D1CCF81890CCF8043000270D4A2901FC
S315080076A002EB051342F80180159A28465A60694686
S315080076B022469F605E7301F03BFB384605B0BDE885
S315080076C0F08F0748FAE70748F8E70748F6E700BFE4
S315080076D04F6E00203C2C00203C2B00200F80FFF32F
S315080076E0028000F0018000F0078000F038B5124BE8
S315080076F005461B78DBB1E0B12EF05EF90F4A002390
S315080077001146147B54B92B6001251A0101EB0313AA
S315080077101D738C502EF056F9204638BD0133082BC0
S3150800772002F11002EDD12EF04DF90548F5E70548AE
S31508007730F3E70548F1E700BF4F6E00203C2C002018
S31508007740048000F0028000F0018000F038B52EF0C9
S3150800775033F9002305460B4A147B6CB90133082B11
S3150800776002F11002F8D101F085FA074B28461C7081
S315080077702EF028F9204603E028462EF023F9034880
S3150800778038BD00BF3C2C00204F6E0020058000F05D
S315080077900D4B10B51B78044693B1072812D82EF066
S315080077A00BF90A4B03EB04131A7B2AB100241C734A
S315080077B02EF008F9204610BD2EF004F90448FAE721
S315080077C00448F8E70448F6E74F6E00203C2C0020F2
S315080077D0068000F0028000F0018000F0154B13B51A
S315080077E01868002301908DF804302EF0E5F8124B46
S315080077F01C7824B12EF0E6F8104802B010BD01221C
S315080078001A702EF0DFF80E4B01A81C731C7783F84C
S315080078102C4083F83C4083F84C4083F85C4083F85E
S315080078206C4083F87C4008238DF8073001F04EFA47
S315080078302046E2E7D4F503084F6E0020038000F0E7
S315080078403C2C00200A4A08B512785AB107280BD8EA
S31508007850084A02EB00131B7B43B1002101F028FA0A
S31508007860002008BD0448FCE70448FAE70448F8E79E
S315080078704F6E00203C2C0020028000F0018000F0B2
S31508007880078000F00A4A08B512785AB107280BD8BB
S31508007890084A02EB00131B7B43B1012101F008FAE9
S315080078A0002008BD0448FCE70448FAE70448F8E75E
S315080078B04F6E00203C2C0020028000F0018000F072
S315080078C0078000F00A4A08B5127852B107280AD884
S315080078D0084A02EB00131B7B3BB101F075FA002046
S315080078E008BD0548FCE70548FAE70548F8E700BF7C
S315080078F04F6E00203C2C0020028000F0018000F032
S31508007900078000F00D4B1B7893B1072812D889B170
S315080079100B4B03EB00131B7B73B10A4B1A6D012348
S315080079208340134214BF0123002300200B707047C5
S315080079300548704705487047054870474F6E002050
S315080079403C2C002000000450028000F0018000F06A
S31508007950078000F00B4A10B512780C4662B107286A
S315080079600CD859B1084A02EB00131B7B43B101F04E
S315080079703DFA2070002010BD0448FCE70448FAE7E9
S315080079800448F8E74F6E00203C2C0020028000F0E7
S31508007990018000F0078000F0184B2DE9F0411F6DBB
S315080079A05B6D1F4000D5FEE701260025144CDFF865
S315080079B05880374218D02368C8F85060A3B1A16828
S315080079C0284601316268A1609847637B012B0BD179
S315080079D050B90C4B03EB45131A7B60F341021A733B
S315080079E01A7F60F341021A770135082D4FEA4606D9
S315080079F004F11004DDD1BDE8F08100BF0000045099
S31508007A003C2C00203C2B002000200450024B196817
S31508007A10024B18680BF0F4BDDC100020FC100020A7
S31508007A2070B59400224605460E4637F065FD431CA0
S31508007A300AD058B922463146284637F0F4FC0028C1
S31508007A40034808BF002070BD0248FCE70248FAE771
S31508007A5010E000F021E000F024E000F010B5044644
S31508007A6037F04EFD431C10D088B901F04DFA234675
S31508007A7020F003002044984201D1002010BD53F89D
S31508007A80042B0132F7D00348F8E70348F6E7034822
S31508007A90F4E700BF0EE000F021E000F024E000F07B
S31508007AA008B52DF07AFF014B186008BDAC330020ED
S31508007AB0014B18682DF075BFAC330020044BD3F882
S31508007AC08420D206FBD4D3F88400C0F38110704713
S31508007AD00040005038B5104B0546D3F880300C46A8
S31508007AE003F00303022B0BD0032B0DD0012B0FD170
S31508007AF0FFF722FA0E2305B1286004B1236038BDCA
S31508007B00FFF764FA0723F6E7FFF710FA0623F2E70A
S31508007B1000231846EFE700BF0080005038B5184B21
S31508007B200546D3F820010C4600F00700062823D89E
S31508007B30DFE800F0040A0E16121A1E00012305B12A
S31508007B40286004B1236038BDFFF7F0F90523F6E78E
S31508007B50FFF722FA0323F2E7FFF738FA0723EEE7DF
S31508007B60FFF730FA0223EAE7FFF7E0F90623E6E72C
S31508007B70FFF712FA0423E2E700231846DFE700BFFF
S31508007B800080005038B5174B0546D3F828310C4607
S31508007B9003F00703013B052B20D8DFE803F00313A6
S31508007BA01B0F0B17FFF7C2F9052305B1286004B1AF
S31508007BB0236038BDFFF7BAF90623F6E7FFF706FA9A
S31508007BC00723F2E7FFF7E8F90323EEE7FFF7E4F9FF
S31508007BD00423EAE7FFF7F6F90223E6E70023184647
S31508007BE0E3E700BF0080005073B50D460021114B36
S31508007BF00191D3F88041064604F00304022C13D001
S31508007C00032C0CD0012C13D101A8FFF787FF1024F1
S31508007C100EB1019B336005B12C6002B070BDFFF751
S31508007C20D5F907240190F3E7FFF7CCF90190EFE7C0
S31508007C300C46EDE700800050002337B50193164B3C
S31508007C400546D3F820320C4603F00703042B21D847
S31508007C50DFE803F0030B11161B0001230DB1019A8F
S31508007C602A6004B1236003B030BD002101A8FFF7E4
S31508007C7089FF1223F2E7FFF7A9F907230190EDE739
S31508007C802DF098FD0A230190E8E7FFF7E1F90923AB
S31508007C900190E3E70023E1E70080005038B5104B78
S31508007CA00546D3F840310C4603F00303022B0BD0EC
S31508007CB0032B0DD0012B0FD12DF07CFD0A2305B126
S31508007CC0286004B1236038BDFFF7C2F90923F6E737
S31508007CD02DF073FD0C23F2E701230020EFE700BF28
S31508007CE000800050002337B50193164B0546D3F89C
S31508007CF060320C4603F00703013B032B1FD8DFE86D
S31508007D0003F0020E1914002101A8FFF707FF10233C
S31508007D100DB1019A2A6004B1236003B030BD002179
S31508007D2001A8FFF7BBFF1123F2E7FFF74FF9072377
S31508007D300190EDE7FFF746F902230190E8E70023F3
S31508007D40E6E700BF00800050002337B50193164BC5
S31508007D500546D3F894320C4603F00703013B032B80
S31508007D601FD8DFE803F0020E1914002101A8FFF757
S31508007D70D5FE10230DB1019A2A6004B1236003B021
S31508007D8030BD002101A8FFF789FF1123F2E7FFF7AD
S31508007D901DF907230190EDE7FFF714F90223019077
S31508007DA0E8E70023E6E700BF0080005038B5144B2B
S31508007DB00546D3F800020C4600F0070004281BD835
S31508007DC0DFE800F003090D111500012305B128604D
S31508007DD004B1236038BD2DF0EDFC0A23F6E7FFF762
S31508007DE037F90923F2E72DF0E8FC0C23EEE7FFF755
S31508007DF0BDF80F23800AE9E700231846E6E700BF27
S31508007E000080005038B5144B0546D3F808020C46D6
S31508007E1000F0070004281BD8DFE800F003090D115D
S31508007E201500012305B1286004B1236038BD2DF083
S31508007E30C1FC0A23F6E7FFF70BF90923F2E72DF051
S31508007E40BCFC0C23EEE7FFF791F80F23800AE9E75D
S31508007E5000231846E6E700BF0080005038B5104BEF
S31508007E600546D3F840320C4603F00303022B0BD029
S31508007E70032B0DD0012B0FD12DF09CFC0A2305B145
S31508007E80286004B1236038BDFFF7E2F80923F6E756
S31508007E902DF093FC0C23F2E701230020EFE700BF47
S31508007EA00080005038B5104B0546D3F860310C46B3
S31508007EB003F00303022B0BD0032B0DD0012B0FD19C
S31508007EC02DF078FC0A2305B1286004B1236038BD7B
S31508007ED0FFF7BEF80923F6E72DF06FFC0C23F2E74F
S31508007EE001230020EFE700BF00800050B0F5207F97
S31508007EF01FD009D8B0F5007F15D003D868B1B0F502
S31508007F00C07F0AD000200CE0B0F5607FFAD10B4B99
S31508007F10D3F88000C0F3011003E0084B186FC0F3D4
S31508007F20033001307047054BD3F89000C0F3046066
S31508007F30F7E7024B186FC0F38020F2E70080005085
S31508007F4002464FF48030104B10B598660020FFF7B4
S31508007F50CDFF504341F671320C4BDC69DA635A683F
S31508007F6004F4803422F4401259B90949884294BF6E
S31508007F7000200120000502435A600CB10022DA6392
S31508007F8010BD0449F2E700BF0090005000000350FE
S31508007F90005A6202002D3101430905D0012B0CD08D
S31508007FA0022B084B18BF002300F01F0039B103F558
S31508007FB08053012282401A607047034BF4E703F5A9
S31508007FC00053F6E768800050648000501FB5002112
S31508007FD080280446CDE9001100F0A58035D85E2832
S31508007FE046D85E2844D8DFE800F0A243434343431B
S31508007FF04343434343434343434343434343434343
S3150800800043434343434343434343A2AAA2AABABAB8
S31508008010BABABAAAC44DDA714DAAAAAA43434343C7
S3150800802043434343AAAAAA79E4AA4343434343439F
S3150800803043434343434343BAA2A2A2DF4D4DE988D3
S315080080405EBF434343434399A200B0F5B06F00F0C7
S3150800805090802DD8B0F5207F71D00CD8B0F5C07FB0
S3150800806065D0B0F5007F65D0B0F5807F00F08680DA
S31508008070009804B010BDB0F5607F6BD00DD8B0F590
S31508008080407FF5D1FEF772FF02464FF42070FFF7E6
S315080080902DFFB2FBF0F252085AE0B0F5806F5ED0C1
S315080080A0B0F5A06FE4D100216846FFF7C5FDDFE70C
S315080080B0B0F5106F78D016D8B0F5E06F79D00AD839
S315080080C0B0F5C06F6BD0B0F5D06FD1D1002168463E
S315080080D0FFF76CFECCE7B0F5F06FC9D10021684612
S315080080E0FFF7E0FEC4E7B0F5406F3DD013D8B0F512
S315080080F0206F63D0B0F5286FBAD10021324B0391B7
S31508008100D3F8703203F00303012B02D103A8FFF75B
S31508008110C5FD039B3CE0B0F5486FA9D10021684630
S31508008120FFF712FEA4E7FEF707FF0090A0E7FEF7A9
S315080081301DFFFAE7FEF700FF0246204604E0FEF7B9
S3150800814015FF02464FF42070FFF7D0FEB2FBF0F29F
S3150800815000928DE701A8FFF7BDFC019AEDE7002123
S315080081606846FFF7DBFC83E700216846FFF70AFD50
S315080081707EE700216846FFF737FD79E74FF0E023F1
S3150800818002911B695B0705D5FEF7F0FE0290029B7C
S3150800819000936DE703A902A8FFF780FDF7E7002122
S315080081A06846FFF77BFD63E700216846FFF72AFE6E
S315080081B05EE700216846FFF751FE59E70021684649
S315080081C0FFF790FD54E700BF0080005008B58020F7
S315080081D0FFF7FCFE034B98429EBF4FF48032024BDA
S315080081E01A6708BD005A620200A000501FB5034670
S315080081F00020B3F5807F019000F0C18064D85D2B24
S3150800820055D84C2B07D82D2B48D8232B2CD801987A
S3150800821005B05DF804FB4D3B102BF8D801A252F8C7
S3150800822023F000BF758300080F8200080F8200083C
S315080082300F8200082B8300080F8200080F820008AF
S31508008240F983000849830008EF820008EF830008D5
S315080082500F8200080F8200080F8200080F820008AC
S315080082600F82000803840008243B092BCFD801A2FB
S3150800827052F823F075830008758300087583000893
S3150800828075830008758300080F8200086B83000851
S315080082900F8200080B830008AB8300083D2B7FD0B4
S315080082A03E2BB4D1002001A9FFF7D8FDAFE7802BFC
S315080082B0ADD1594B1B6F03F00703013B032BA6D81F
S315080082C0DFE803F0514E858DB3F5F06F68D021D8FD
S315080082D0B3F5B06F49D00FD8B3F5607F00F083804F
S315080082E095D3B3F5806F45D0B3F5A06F8FD1002035
S315080082F001A9FFF7A1FC8AE7B3F5D06F55D0B3F50E
S31508008300E06FCFD0B3F5C06F81D1002001A9FFF788
S31508008310C5FC7CE7B3F5206F6ED00BD8B3F5086FB4
S3150800832048D0B3F5106F7FF472AF002001A9FFF7AC
S3150800833069FD6CE7B3F5406F59D0B3F5486F60D067
S31508008340B3F5286F7FF463AF334BD3F8703203F07D
S315080083500303012B5AD0022B0CBF1523002300E080
S315080083600523019353E70223FBE7002001A9FFF742
S315080083703BFC4CE7002001A9FFF7D0FB47E74FF08D
S31508008380E02302901B695B0705D5FEF7EFFD0D2379
S315080083900393039BE5E703A902A8FFF77FFCF8E729
S315080083A0002001A9FFF77EFD31E7002001A9FFF7AC
S315080083B0FDFC2CE7184BD3F8003103F00303022B1E
S315080083C007D0032B09D0012B0BD1FEF7E5FD0323BC
S315080083D0C7E7FEF73DFE0923C3E72DF0E9F90823B1
S315080083E0BFE70123BDE701A9FFF774FB0FE70020EC
S315080083F001A9FFF7C7FB0AE7002001A9FFF772FCEE
S3150800840005E7002001A9FFF79FFC00E7002103A864
S31508008410FFF744FC1123A4E7008000504FF48012B4
S31508008420034B5A664FF48032024B9A62704700BF7C
S31508008430009000500050005A38B504468020FFF7D7
S31508008440D5FE032800F083804FF48012524B4FF07C
S31508008450A0615A6645F60E02504BC3F88020504A72
S3150800846091624FF4803102F5805291629A6DD2037F
S31508008470FCD4996D11F08041FBD1D4E900021205B4
S3150800848042EA0062E07B0243207B42EA0042607BCC
S3150800849042EA0032A07B42EA80121A619869D4E95E
S315080084A00452120642EA856200F000400243A07EAA
S315080084B0E57E0243207E42EA0042607E42EA0022CE
S315080084C09A611A6AE06922F00F0242EA8502354D7E
S315080084D000283DD11A6294F82420996A94F820005D
S315080084E0D200294042EA40120A4394F8211042EA8F
S315080084F0011242F480329A622B49284A936D31EA76
S315080085000303FBD14FF08071254881621369A56882
S3150800851023F4700343EA055313614FF00043836164
S3150800852094F822300BB9214B996294F823303BB961
S315080085304FF480321D4B9A62184A936D5B00FCD447
S3150800854094F825301BB1154B194AC3F8802038BD5D
S31508008550024342F0080202281A6208D119614FF450
S315080085600852996113484FF47F412DF0DFF90B4902
S3150800857094F822308A6A94F820001B062A4043EAB7
S315080085804013134394F8242043EAC20394F82320A3
S3150800859043EA02438B62D3E7009000500040005A3A
S315080085A00050005AC7FFFEFE030001000060005A93
S315080085B0F1A7FFFF3440005A70B5194CFF28A66A88
S315080085C02BD8A36D4FF0807113F4803F18BF4FF47A
S315080085D08032144B18BF9A629962134AA36992F9BA
S315080085E0005023F47F03054423F47F4343EA002322
S315080085F085F3080543EA0543A36132460B482DF087
S3150800860095F9A36DDB0301D4002070BD32464FF403
S31508008610803106482DF08AF9F6E72120F5E700BFF4
S315080086200040005A0050005A481600202840005AB8
S3150800863070B5104C4FF08071A66AA36D0E4813F4FE
S31508008640803F18BF4FF480320C4B18BF9A6299626C
S315080086503246A5692DF06AF9A36DC5F30725DB0334
S3150800866005D532464FF4803103482DF05FF9284688
S3150800867070BD00BF0040005A2840005A0050005AFA
S31508008680014B93F900007047481600204FF48033D9
S3150800869011481249826A8B62836D03F00303032B28
S315080086A0FAD14FF080730E488B620B4B996D30EA06
S315080086B00101FBD1012009490865996D8907FCD498
S315080086C0054B996D8807FCD5996D8907FCD5054931
S315080086D005482DF02BB900BF0040005A0050005A3B
S315080086E003000100000001012840005AF0B5D0E956
S315080086F001434FF400061A4A4178057856664FF446
S31508008700D156022702F5B8325662164E4F297760BF
S315080087104FF0010728BF4F2106F580567760166986
S31508008720F603FCD441EA052151611B01417B43EA6A
S3150800873004230B43017B43EA41039360C37B817B9C
S315080087401B0143EA4113417C0B43017C43EA410385
S315080087505360837C13B16FF4D1535362F0BD00BFED
S315080087600090005000100250014B1880704700BF5F
S3150800877006160020014B1880704700BF041600201B
S31508008780B0F5207F10B50C465DD008D8B0F5007F4F
S315080087904ED003D8C0B1B0F5C07F15D010BDB0F526
S315080087A0607FFBD12C4B4C1ED3F8FC202B4912F0D2
S315080087B0807F4FEA041427D1D1F8803023F03003A4
S315080087C02343C1F88030E9E72DF0BFF82DF0CBF848
S315080087D04FF48031224B214A1967136F013C23F469
S315080087E0704343EA04331367FEF7C0FB0446FFF7FA
S315080087F065F9C0F1020120462DF0AFF800F042F805
S31508008800BDE81040FFF7E2BCD3F8FC2022F08072E6
S31508008810C3F8FC20D1F8802022F030022243C1F8A8
S315080088208020D3F8FC2042F08072C3F8FC20B5E71C
S315080088300A4A4C1ED2F8903023F0F85343EA0463F0
S31508008840C2F89030AAE7054A4C1E136F23F48063DA
S3150800885043EA84231367A1E700ED00E00080005097
S315080088600090005008B50121022000F077F82DF09D
S315080088706CF82DF078F84FF48032014B1A6708BD72
S315080088800090005008B54FF4C070FFF79FFBBDE895
S3150800889008400449884294BF012102214FF4207000
S315080088A0FFF76EBF80F0FA02024A536B0342FCD10F
S315080088B0704700BF00400950044A4178536F23F4BB
S315080088C0407343EA01235367704700BF00400050D6
S315080088D00C4A10B51369044643F00403136104F007
S315080088E0F7FD2DF072F8084B084AC3F8202430BF6C
S315080088F02DF06CF804F026FE1CB9BDE81040FEF712
S3150800890035BB10BD00ED00E000E003500000FF0F8E
S315080089100A4A10B51369044643F004031361084B69
S31508008920084AC3F8202404F0D3FD30BF04F00AFE39
S315080089301CB9BDE81040FEF719BB10BD00ED00E0FC
S3150800894000E003500000FF0F034A0179D36E23F0BD
S3150800895030030B43D366704700400050F8B5044611
S315080089601C4BD3F88420D106FBD4D3F88430C3F348
S3150800897081139C422CD0FEF7DFFA012C064602D161
S3150800898021462CF0EAFF2DF008F84FF00072124B42
S3150800899007465A6620462DF01CF84FF480630D4DA5
S315080089A0621E93402B676B6E9A0103D4D5F8843008
S315080089B09B060AD538462CF0F4FF022C08D130461F
S315080089C0BDE8F84000212CF0C8BFD5F88430EAE7A6
S315080089D0F8BD00BF004000500060005010B50C46BE
S315080089E008B9FEF7A9FA074B21461B783BB1064B97
S315080089F0984204D80120BDE81040FFF7AFBF022017
S31508008A00F9E700BF506E0020005A62020278034B55
S31508008A10012100201A70FFF7E1BF00BF506E002049
S31508008A204FF0004238B5244B244C5A664AF6CD33EB
S31508008A30656C014605F00105236428BB0120FFF794
S31508008A4033FF6368DB0715D51D4B586008461D4B79
S31508008A50226BD2070CD4984208D1072415B1174BBC
S31508008A60194A1A6431F0D0FB204638BD0130EFE7C9
S31508008A709842F2D00024F1E70132236B13F0080381
S31508008A8005D08A42F8D1E8E700220E49F5E78A427E
S31508008A90E3D020210A4A91620121A2F58052516051
S31508008AA00649084A886A800603D49342D5D001331A
S31508008AB0F8E79342DDE700BF0090005000400950F8
S31508008AC00060095040420F003254FFFF4FF0004249
S31508008AD038B5164B01465A664AF6CD33144C154A34
S31508008AE0656C236443780B205B0043F00103D36372
S31508008AF0FFF7DAFE63688A7823F4F87343EA021309
S31508008B006360CA784B7943EA0223A3600A798B79B2
S31508008B1043EA022323610878FFF782FFEB0744BF85
S31508008B20054B236431F070FB012038BD00900050DE
S31508008B3000400950004000503254FFFF4FF00042F9
S31508008B40124B70B55D6E03F580535A664AF6CD33FF
S31508008B5004460F4980204E6C0B64FFF7A5FE0B6A8E
S31508008B6023F00F030F2C94BF234343F00F030B622C
S31508008B70F30744BF074B0B64002DA2BF4FF000421A
S31508008B80054B5A6631F040FB70BD00BF00800050AF
S31508008B90004009503254FFFF00A000504FF0004239
S31508008BA0104B70B55D6E03F580535A664AF6CD33A1
S31508008BB004460D4980204E6C0B64FFF775FE0B6A60
S31508008BC023F4F85343EA04230B62F30744BF074B25
S31508008BD00B64002DA2BF4FF00042054B5A6631F0D8
S31508008BE013FB70BD00800050004009503254FFFF4F
S31508008BF000A000502DE9F04105460F461E46904656
S31508008C004AB101233022194C8B4002FB004436B38B
S31508008C1004F5825423600F21072F05EB450388BF0F
S31508008C20A7F108044FEA0313114895BFBC00A40036
S31508008C3004330C3308FA04F2A14018442CF0CAFE97
S31508008C40B8F1000F09D101233021084ABB4001FBC6
S31508008C5005223EB102F582521360BDE8F08104F5A3
S31508008C600154D7E702F50152F6E700BF00C00350EA
S31508008C7030C003504FF400120B4B10B5C3F88020D8
S31508008C80BFF34F8FBFF36F8F0024FF22074B214698
S31508008C905C6520209A625C60FFF77EF92146BDE894
S31508008CA010402120FFF778B900E100E000000450E9
S31508008CB0044A054B002908BF1346012282401A6060
S31508008CC0704700BF401004504020045010B50121E1
S31508008CD004462020FFF760F901212120FFF75CF9FF
S31508008CE00122114B5A60227812069A606178A2789E
S31508008CF042EA01429A61FF229A6200229A631A6442
S31508008D004FF000425A654FF0FF324FF4001103F559
S31508008D1000531A65054AC2F88011E3781B01DBB2D5
S31508008D2082F81533116010BD0000045000E100E020
S31508008D30F8B50125C3B2D1F800E091F80AC00F7B57
S31508008D400C469D40CB7A1D491D4E0D65810001F1EB
S31508008D50A04101F58821C1F804E04FF0300E0EFB62
S31508008D6000601B05617B43EA0C4343EA475322F044
S31508008D7003020166C36502672CF01EFE736D2B4362
S31508008D807365237A13B1336C2B433364637A13B157
S31508008D90B36B2B43B3632279A37943EA0243074AA9
S31508008DA093616179E37943EA014306498B61044B90
S31508008DB055639D64BDE8F8402CF004BE00200450BD
S31508008DC0000004500010045010B50124C0B28440BD
S31508008DD02CF0F2FD044B5A6D22EA04025A659C6295
S31508008DE0BDE810402CF0EEBD0000045010B501247B
S31508008DF0C0B284402CF0E0FD074BDA6A224208D163
S31508008E005B6B9C430CBF012400242CF0DBFD204641
S31508008E1010BD0024F9E700BF000004504FF480326B
S31508008E20054B9A6641F6713203F51C33DA63012263
S31508008E3003F50053DA6070470090005041F671322E
S31508008E400121064BDA6303F50052D1600022DA638A
S31508008E504FF48032A3F518339A6670470000035022
S31508008E60013831289ABF024B185C0020704700BFB2
S31508008E70F9F5030838B5C2F30625044602F00702D9
S31508008E8041B942EA052242F440220634074B43F828
S31508008E90242038BD114628462CF0ACFD024628464B
S31508008EA0FFF7DEFF163442EA0022EFE700800350A0
S31508008EB0014BD3F894007047004000504FF48032BD
S31508008EC0064B5A6603F5E6239B69C3F3851282703F
S31508008ED003F03F021B0B427003707047009000506E
S31508008EE040F6B732064B5B689BB293429FBF4FF47E
S31508008EF07A72B3FBF2F3034AD05C88BF002070474E
S31508008F000080E00F2BF603080120034B9B680A3309
S31508008F1003F01F03984070470080E00F70B50546C0
S31508008F2016461C4621B94FF42070FFF74FF8014644
S31508008F30402C1BD003D8DCB1202C1BD070BD602C74
S31508008F40FCD1042303FB06F2530803EB4113B3FBDE
S31508008F50F2F3094A203B02EAC303AA6822F0600238
S31508008F60AA60AA681443AC60EB61E7E70623E9E761
S31508008F701023E7E70823E5E7F8FF7F00012100F55E
S31508008F80805310B5596040F6AA6341F20502436161
S31508008F900023094C8360C365C26000F50052036173
S31508008FA0C361C3649464054C8365A04204BF03652A
S31508008FB04365516010BD00BFFFFF010000C00550AA
S31508008FC070B50D46FFF7DAFF012300F5805673608A
S31508008FD0AB7C04461BB1836843F080438360EB7C1B
S31508008FE05BB1244B9C4202BF2A7DA3F51033C3F81C
S31508008FF0C821E36D43F08003E3652A8A6B7B20462C
S315080090001343EA891343E3602B7BD5E90112FFF783
S3150800901085FF6B7D1BB1A36843F48033A360AB7DEA
S315080090201BB1A36843F40043A360EB7D2A7E1B07AC
S31508009030120502F4E00203F0E0431343A3656B7ED6
S315080090409A1E012A4FF0020209D80B49032BC1F8D0
S31508009050202709D10423F3652B78636170BD07497E
S31508009060012BC1F82027F4E7042204F50053DA653A
S31508009070F2E700BF00C0055000D0035000E00350DF
S3150800908038B50D46FFF77AFF012200F580535A607E
S315080090902B8AA97B826843F0010343EA81231343A1
S315080090A0836083682A7D044643EA42738360AB7C07
S315080090B05BB1194B984202BFEA7CA3F51033C3F89B
S315080090C0C821C36D43F08003C3652B7B2046D5E9D1
S315080090D0011243F48053E3602CF0E9FC6B7B0BB17F
S315080090E0102363616B7D1BB1A36843F48033A360CF
S315080090F0AB7D1BB1A36843F40043A360EB7D2A7ED6
S315080091001B07120503F0E04302F4E0021343A365CC
S315080091102B78636138BD00BF00C00550034B5A6801
S31508009120D20702D5DA69002AF9D1704700800A50B9
S31508009130054B9A689107FCD45A689207F9D4DA69FC
S31508009140002AF6D1704700BF00800A5008B5FFF71D
S31508009150E5FF0222014B1A6108BD00BF00800A50D4
S3150800916008B5FFF7E5FF0122024B03F580514A6077
S315080091701A6108BD00800A5008B5044B59680129D0
S3150800918003D1FFF7E3FF024B596008BD00800A5080
S3150800919000A00A5010B5064CFFF7CAFF6368012BFA
S315080091A003D1FFF7E9FFFFF7C3FF0378E36010BDBC
S315080091B000800A50B8B94A680B7812B1127843EAA7
S315080091C0C2034A7843EA42038A6812B1127843EA2C
S315080091D082138A7843EA8203CA6812B1127843EA8C
S315080091E04223014A9364704700800A5008B9014B2C
S315080091F05964704700900A5008B9014B5964704782
S3150800920000A00A5008B9014B1964704700A00A501B
S3150800921010B9024B186C70470020704700800A503E
S3150800922048B911B1012903D07047044BD86C70476F
S31508009230024B186D70470020704700BF00800A5027
S3150800924040B911B1012903D07047034BDA6470475E
S31508009250014B1A65704700BF00800A5010B9024BCF
S31508009260586D70470020704700800A5038B504468C
S31508009270054D30F0EEFF0FCC0FC594E8030085E8E6
S315080092800300002038BD00BFB033002047F6FF7347
S315080092909A42F0B56FD002296FD8394B5B5C012B27
S315080092A06BD8384DDF0005EBC30415F83330A178C9
S315080092B0012B13D10025E078401AA84202D80844A9
S315080092C0C0B2F0BD431B6668A0EB530336F91360C2
S315080092D09642D4BF1D4603F1FF30EEE760680028CA
S315080092E0EFD0B0F90040944204DBB0F90240944252
S315080092F0B8BF144683883D44FF2B19BFC8224FF0D8
S31508009300280CB0F90620B0F908C0A2EB04030CBF7C
S315080093100126002693FBFCF333446E781BB29E426B
S3150800932001DD002B01DA731E1BB24FF47A7C013380
S315080093309BB2071D5D1E2DB24FEAC50E00EBC50593
S31508009340EA88AD689E4214FB025222EAE27202F1F2
S315080093505C02B2FBFCF204DD37F833500133954268
S31508009360E8D200EB0E039888904228BF1046884240
S3150800937038BF0846A4E7FF20A3E70020A1E700BFFF
S315080093802EF60308B03300200229F0B555D82C4B29
S31508009390585C012851D82B4C04EBC00114F8300056
S315080093A04B6801280FD1C8788C78904294BFC4EBDB
S315080093B00001C4EB0201001BCAB28242C8BF0022E8
S315080093C033F91200F0BD002B37D08878904202D3CB
S315080093D0B3F90200F6E7CC78B3F900009442F1D964
S315080093E04C789988013CA1F1FF06714203F1040506
S315080093F0E4B2714103F10C07CEB2B44216D805EBBC
S31508009400C1014FF47A756A43B1F902404968521AA4
S3150800941004EBD47102EB610292FBF4F29042D1DBC9
S31508009420B3F902009042CDDC10B2CBE737F831C071
S315080094304E1C9445E3D33146DEE70348C2E700BF36
S315080094402EF60308B03300200080FFFF0148FFF71F
S315080094500DBF00BF34F603087FB50222084B094941
S31508009460CDE901234FF04073CDE90313052301A984
S315080094704FF0FF30059330F04FFF07B05DF804FB5F
S31508009480006A18000003040008B5B0B14FF4806202
S315080094900B4B9A662CF0EEFA4FF098435A6CD202B0
S315080094A0FCD54FF48062586D064B10F470209A660E
S315080094B004D0BDE808402CF0C3BB212008BD00BF7E
S315080094C00090005000A000502DE9F0418CB088466D
S315080094D0DDE912761D460446002847D0002945D006
S315080094E0002F43D0002E41D013F00F033ED1204861
S315080094F02049A360002A08BF0146E361C4E90013B6
S31508009500404609A92CF098FC68BB204609992CF01E
S31508009510A8FA294620462CF0A4FA6946404600F0E7
S31508009520F7FA00BB694620462CF087FA404603A99D
S315080095302CF081FDB8B9204603A92CF07EFA0697CF
S315080095400127204645F0005506A9079708952CF0EF
S3150800955074FA204609A909960A970B952CF077FA0A
S315080095602046FFF791FF0CB0BDE8F0812120FAE70D
S3150800957000010004000101042DE9F04F97B0894667
S3150800958090461F460546DDF880A0002800F0BB80FF
S31508009590002900F0B8803AB1229B002B00F0B38076
S315080095A0239B002B00F0AF80BAF1000F00F0AB80D0
S315080095B0219B002B00F0A78067B13C680026229B00
S315080095C043440293464507D307B13C60002017B0D1
S315080095D0BDE8F08F3C46F1E75CB1229B219A9B5D82
S315080095E0125D01345340239A04F00F049355013653
S315080095F0E8E7A8EB060BBBF10F0F58D9434B4846D3
S31508009600C5E90034AC60EC6113A92CF015FC002800
S31508009610DDD1284613992BF00F0B2CF022FA594668
S3150800962028462CF01EFA484604A900F071FA0028CC
S31508009630CDD1284604A92CF000FA484607A92CF0F3
S31508009640FAFC0028C3D1284607A92CF0F6F901230D
S3150800965022992F4ACDF828A00B930C928A190D92BD
S3150800966028464BF000520AA90E9303920F922CF04B
S31508009670E4F928460DA92CF0E0F9239B039A9919D9
S315080096800123109111931292214A284610A9CDF868
S315080096904CA0149315922CF0DAF9284613A92CF04D
S315080096A0D6F92846FFF7F0FE5E4400288FD1229BA4
S315080096B003EB060B239B1E44029B5B4501D14646E2
S315080096C080E7ACB9219B2246CDE900A34946102381
S315080096D02846FFF7F9FE00287FF479AF0AF1100251
S315080096E012F8013D0133DBB213700BB95245F7D1BD
S315080096F0219A1BF8013B125D0134534006F8013BE1
S3150800970004F00F04D8E7212061E700BF0303000433
S31508009710100000202DE9F04F97B0894615469A4665
S315080097200446209FDDF88880DDF890B0269E002844
S3150800973000F09D80002900F09A80002E40F08A8073
S31508009740002B00F09480B8F1000F0AD0219B002B63
S3150800975000F08D80002A40F09F80F10700F1878095
S3150800976002E0002A40F08580FB1F062B7FD8524B6B
S315080097700BEB05029A427AD80023504A4846C4E9B8
S315080097800023A360E36113A92CF056FB00285ED1E1
S31508009790204613992CF065F9204646EA07412CF035
S315080097A060F9414620462CF05CF9294620462CF003
S315080097B058F9484601A900F0ABF9002847D12046D8
S315080097C001A92CF03AF9484604A92CF034FC0028E3
S315080097D03DD14FF00109204604A92CF02EF9239B10
S315080097E045F000550793219BCDF820902046099512
S315080097F00DA90A9347F0005748F00053CDF82C906E
S315080098000C93CDF834A0CDF838900F972CF015F9B5
S3150800981020460AA92CF011F9204607A92CF00DF9C3
S31508009820259B204610A946F00056CDF840B0CDF845
S31508009830449012951393CDF8509015962CF007F98D
S31508009840204613A92CF003F92046FFF71DFE17B092
S31508009850BDE8F08F259B53B1BAF1000F07D0B8F1D8
S31508009860000F01D0219B13B1B5B9022E20D12120BA
S31508009870EDE7239B002BFAD0BBF1000FF7D0C7F119
S315080098800F03DBB2032B3FF668AF0122DB0002FAB7
S3150800989003F3AB42EBD9E8E7239B002BE7D0BBF1F8
S315080098A0000FE4D0C7F10F03DBB2032BDDD8ECE7DA
S315080098B0102E7FF652AFDAE7FFFF032000000504FB
S315080098C02DE9F04F99B0884615469B460446229FD7
S315080098D0DDF89890289E60B159B1279B4BB1BBF132
S315080098E0000F06D0249B0BB1239B13B11DB9022E82
S315080098F013D121239AE0259B002BFAD0B9F1000F4A
S31508009900F7D0C7F10F03DBB2032BF0D80122DB0037
S3150800991002FA03F3AB42ECD9E9E7731E0F2BE8D83A
S3150800992016F0010AE5D1FB1F062BE2D8414B09EBDD
S3150800993005029A42DDD8404B4046C4E9003AC4F8CD
S3150800994008A0C4F81CA015A92CF076FA034600282E
S315080099506CD1204615992CF084F8204646EA074132
S315080099602CF07FF8204624992CF07BF829462046CF
S315080099702CF077F8404603A900F0CAF803460028F9
S3150800998054D1204603A92CF058F8404606A92CF0D5
S3150800999052FB0346002849D14FF00108204606A984
S315080099A02CF04BF8259B2046099345F00053CDF83B
S315080099B0288001930B93239B0FA90C93249B47F0B4
S315080099C0005743F00052CDF834800E92CDF83CB0E3
S315080099D0CDF8408011972CF030F820460CA92CF0D1
S315080099E02CF8204609A92CF028F8019B204612A934
S315080099F0CDF84890CDF84C8014932CF028F8279B86
S31508009A00204615A946F000561593CDF858801796A6
S31508009A102CF013F82046FFF737FD034630B10190C6
S31508009A202A465146484635F028FD019B184619B086
S31508009A30BDE8F08FFFFF0320000006042DE9FF476D
S31508009A404FF000080E4617460446CDF80080002859
S31508009A5059D022B90025284604B0BDE8F087002968
S31508009A6051D032F0030902F0030A1FD04FF0E06329
S31508009A70C0E9003801230191C0F808800293C0F8B4
S31508009A801C8049F0005301A903932BF0E0FF4946D7
S31508009A9020462BF0E6FF2046FFF7F6FC054628B1E0
S31508009AA04A464146304635F0E8FCD4E7BAF1000F9D
S31508009AB0D0D04FF000084FF0E063C4E90038012326
S31508009AC0CDF804D00293114B204601A9C4F80880AA
S31508009AD0C4F81C8003932BF0BAFF042120462BF010
S31508009AE0C0FF2046FFF7D0FC054608B13A46D8E73E
S31508009AF0009A4E44EB00013522FA03F3AA4506F80C
S31508009B00013BF7D1A6E72125A5E700BF0400002001
S31508009B1090B189B101234B60C368013B012B08D87A
S31508009B208269064B1AB10A6000208B607047044AA6
S31508009B30F9E74FF00053F7E72120704708000020A7
S31508009B40A4FC0308012300F01F02A0F5062009491A
S31508009B50A0F550604009934051F820201A4341F877
S31508009B602020054951F8202022EA030241F8202046
S31508009B70704700BFE8330020C83300200122A0F553
S31508009B8006230D49A3F550635B0900F01F008240C8
S31508009B9051F82300024341F8232000231946074AB7
S31508009BA052F8040B0133082B0144F9D119B92022C4
S31508009BB0014835F062BC7047C8330020E8330020FE
S31508009BC02DE9F04FA9B003921E4604460822339F9A
S31508009BD0CDE90401414021FA02F34B40980702F10E
S31508009BE0080218BF9B00202A1C44F4D1744BE4B227
S31508009BF01B7804F5062404F55064002B3ED1FDF7C6
S31508009C0005FF054620B16FF0910029B0BDE8F08F39
S31508009C100146402208A835F030FC4022294618A8FB
S31508009C2035F02BFCDFF8B481DFF8B491C3460BF1AD
S31508009C300F0ACDF800A05B461022D9F8000008A943
S31508009C4030F0CFF80023024608F1100808AD9A4212
S31508009C503DD1CDF800A05B461022D9F8000018A91E
S31508009C6030F0C8F84FF0000A834618ADD34538D10E
S31508009C70544B9845DAD10122514B1A704FF480782B
S31508009C800025DFF860B1A4F50623A3F55062520952
S31508009C905BF8221004F01F00C140C90734D44A49B2
S31508009CA051F82220C240D20722D5A3F6FF43DBB2E1
S31508009CB0002D08BF254603F50624B8F1010804F56A
S31508009CC05064E0D1039BABB1A5B12C4618E055F81A
S31508009CD0040BCDE90623FFF735FF079B069A0133E8
S31508009CE0B5E755F8040BFFF749FF0AF1010ABDE786
S31508009CF0039B13B96FF08B0087E7002D18BF2C461E
S31508009D00349B00201C6080E7329B13B10023329AF3
S31508009D1013600FB100233B604FF0100ADFF8C090C4
S31508009D20CDF800A0002332462146D9F8000009F0F4
S31508009D30D9FD58BB32993268244BC1B99A4206D02C
S31508009D402146D9F8000009F035FF0028D2D1D6E916
S31508009D500223DDE90410834208BF8A4226D0A4F50F
S31508009D600624A4F6FF44E4B204F50624A5E73299CE
S31508009D709A42C1F800A0E3D1002FE8D03B4621461D
S31508009D80D9F8000018AA09F0D1FE48B1104B98423C
S31508009D90D6D0104B9842D3D00F4B9842D7D032E743
S31508009DA0329A3B6812689B1A3B60D0E7039B002BEC
S31508009DB0A6D07368012BA3D16FF0840025E700BFF6
S31508009DC0516E002000710800C8330020105D175E30
S31508009DD0FFDF00F011E000F0FEDF00F0006D080084
S31508009DE0FC100020E83300202DE9F04F87B08246AA
S31508009DF0894698461646DDF840B02AB1002B4FD062
S31508009E0040F26C739A424ED8BBF1010F4ED800242B
S31508009E1006F110073946012005942EF015FC054673
S31508009E20002846D021463A4635F027FB05ABCDE952
S31508009E30014300942B46012250464946FFF7C0FECF
S31508009E40044680B110F18C0F08BF6FF08D043A46B6
S31508009E500021284635F011FB28462EF005FC204641
S31508009E6007B0BDE8F08F144BC5E902A92B60C5F809
S31508009E7004B02EB13246414605F1100035F011FB0B
S31508009E80059E0E483B462A463146006809F092FC74
S31508009E9018B93046FFF756FED9E76FF09104D6E7B2
S31508009EA06FF08604DBE76FF09104D8E76FF085045E
S31508009EB0D5E76FF08C04D2E7105D175EFC10002022
S31508009EC02DE9F0438DB08146DDE914780E46154636
S31508009ED01C469BB1B8F1000F05D16FF086063046D7
S31508009EE00DB0BDE8F083002FF7D0B7F1005FF4D3CB
S31508009EF0C3F1005303F580239F42EED810220021B8
S31508009F0008A835F0BAFA002207AB029305AB01930D
S31508009F1006AB31460093484608ABCDE90522FFF764
S31508009F204FFE06460028DAD1059BA4B1AB4215D8E8
S31508009F3053EA0504D1D1069B0B48C8F800400094A3
S31508009F403A46079900682B4409F0CCFC002818BF4C
S31508009F506FF09106C3E7AB42EDD2BEE75B1B9C42AE
S31508009F6028BF1C46E7E700BFFC10002030B58DB0BF
S31508009F700C4605461022002108A835F07EFA002274
S31508009F8007AB029305AB019306AB2146009328461F
S31508009F9008ABCDE90522FFF713FE0446D8B9099B9D
S31508009FA0012B1BD0079D104B2946186809F002FEA5
S31508009FB0B8B90122A5F506230C49A3F550635B0938
S31508009FC005F01F00824051F823004240284641F818
S31508009FD02320FFF7D3FD20460DB030BD6FF0840473
S31508009FE0F9E76FF09104F6E7FC100020E83300204B
S31508009FF030B5048804F4E043B3F5005F2ED1C4F30A
S3150800A0000223042B2AD181F0AA6383F4807333F4E4
S3150800A0107E132AD081F0AA6383F4007333F47E1387
S3150800A02023D00023144D21F47E11A9421AD1B4F588
S3150800A030105F17D1418821F04000802802D0B1F581
S3150800A040807F15D1191F0C2912D8DB0710D4073ABF
S3150800A050072A34BF00206FF0860030BD42F20403A1
S3150800A0609C42DED16FF08500F7E7C1F30543D9E7D7
S3150800A0706FF08600F1E700BF000140052DE9F04FBB
S3150800A0809BB08146DDE928761D468B46DDF8A8801B
S3150800A090DDF8BCA0099241B138B1249B2BB1269BAF
S3150800A0A00BB9279B0BB91FB94EB16FF086047FE039
S3150800A0B02EB1B8F1000FF8D02B9B002BF5D02C9BB6
S3150800A0C0002BF2D0BAF1000FEFD02E9B002BECD06C
S3150800A0D02D9B002BE9D0B9F8003003F4E042B2F525
S3150800A0E0005F69D1C3F30222042A65D185F0AA6309
S3150800A0F083F4807333F47E1306D085F0AA6383F461
S3150800A100007333F47E1360D1C5F3054329464846E8
S3150800A110259ACAF80030FFF76BFF0446002847D196
S3150800A120014620220AA835F0A8F92022214612A8BD
S3150800A13035F0A3F90AA82BF0B1FD002855D15946E8
S3150800A1404846099A12AB00F0C3FA044600282FD1F4
S3150800A1502B9B9E424CD8DAF800302E9A934247D869
S3150800A160474508D2BB19984505D239463246404676
S3150800A17035F069F94746204B25F47E159D4226D1D0
S3150800A180DAF80030324606932D9B0397CDE904830F
S3150800A190279B12A90293269B0AA80193259B009345
S3150800A1A0249BFFF7B7FA212819D0D8B92C9B1E6033
S3150800A1B020461BB0BDE8F08F42F20402934204D158
S3150800A1C085F0052383F480139BE700239EE76FF051
S3150800A1D0880400232C9A1360CAF80030E8E76FF069
S3150800A1E08604F6E76FF09204F3E76FF09204DFE770
S3150800A1F06FF08904DCE700BF000140052DE9F04F48
S3150800A20099B08A46DDE926659346984681462A9F8F
S3150800A21028B96FF08604204619B0BDE8F08F0029EA
S3150800A220F7D0229B002BF4D0249B13B9259B002B37
S3150800A230EFD10EB9002DECD117B92B9B002BE8D125
S3150800A2402C9B002BE5D0289B002BE2D041464846A4
S3150800A250239AFFF7CDFE04460028DCD120220146CA
S3150800A2600DEB020035F009F92022214610A835F039
S3150800A27004F908A82BF012FD10B16FF09204CAE792
S3150800A2805A465146484610AB00F022FA04460028C2
S3150800A290C1D12B9B9D422AD8BE4208D273199F4230
S3150800A2A005D231462A46384635F0CDF83E46144B97
S3150800A2B028F47E1898451DD1299B2A460693289B83
S3150800A2C00396CDE90473259B10A90293249B08A83D
S3150800A2D00193239B0093229BFFF7F2FA212898D03B
S3150800A2E02C280AD00028C8D12C9B1D6093E76FF054
S3150800A2F0890490E76FF088048DE76FF094048AE785
S3150800A30000014005084B984202D0084B984207D1F5
S3150800A3100B88B3F5105F0CBF00206FF085007047FF
S3150800A3206FF08500704700BF004440040013C00466
S3150800A3302DE9F04F99460023A3B09346DDE92E7424
S3150800A340DDE93068CDE90633CDE90833CDE90A33CE
S3150800A350CDE90C33DDF8C8A00490059129B96FF052
S3150800A3608605284623B0BDE8F08F002AF7D00FB936
S3150800A370002CF4D12C9B13B92D9B002BEFD116B9C9
S3150800A380B8F1000FEBD1BAF1000FE8D048460499AE
S3150800A390FFF7B8FF05460028E3D10146202212A898
S3150800A3A035F06BF8202229461AA835F066F812A867
S3150800A3B02BF074FC002878D1DDE904015A461AAB63
S3150800A3C000F086F905460028CBD11A982CF00FF82C
S3150800A3D005460028C5D114B9CAF80000C1E7B74236
S3150800A3E00AD23B199E4207D24445B8D83946224676
S3150800A3F0304635F028F837464E4B994558D003F580
S3150800A4004073994515D04C4B994540F08C8044458E
S3150800A410A5D814F00F02A2D12346CDE900761AA9D1
S3150800A42012A8FFF751F80746002834D1CAF80040A9
S3150800A43097E700234445CDE90E33CDE910338ED88E
S3150800A4402D9B0D2B8BD101238DF838302C9B0DF1CC
S3150800A450390203F10C0153F8040B8B4242F8040B42
S3150800A460F9D11B78137001238DF8473014F00F09C2
S3150800A47033D10F2CDAD906AB01930EABCDE90276B0
S3150800A480009324F00F0200231AA912A8FFF774F804
S3150800A4900746002843D042460021304634F0EDFFF7
S3150800A4A00023012FCAF8003040D06FF0920558E714
S3150800A4B044453FF654AF2D9B102B7FF450AF2C9B91
S3150800A4C00DF1380C03F1100E624618685968083306
S3150800A4D003C273459446F7D1C8E724F00F033B44FB
S3150800A4E00DF1280C03F1100E6246186859680833F6
S3150800A4F003C273459446F7D10F2CBCD824F00F033A
S3150800A500334403930AAB029306AB01930EAB009355
S3150800A5104A4600231AA912A8FFF72EF883E7B9F1CD
S3150800A520000F83D0EAE76FF085051AE76FF08B0511
S3150800A53017E700BF0010C004004440042DE9F04F9F
S3150800A540994600239FB09346DDE92865DDE92A7818
S3150800A5508A46CDE90633CDE90833CDE90A33CDE994
S3150800A5600C33059029B96FF0860420461FB0BDE864
S3150800A570F08F002AF7D00EB9002DF4D117B9B8F12B
S3150800A580000FF0D12C9B002BEDD048460599FFF71C
S3150800A590B9FE04460028E8D1014620220EA834F068
S3150800A5A06CFF2022214616A834F067FF0EA82BF070
S3150800A5B075FB002844D15A465146059816AB00F05B
S3150800A5C087F804460028D0D116982BF010FF0446C9
S3150800A5D00028CAD115B92C9B1860C6E7BE420AD214
S3150800A5E073199F4207D24545BDD831462A46384693
S3150800A5F034F029FF3E46344B994549D003F540735C
S3150800A600994520D0314B994554D1454555D82B0706
S3150800A610A9D12B460122CDE9006716A90EA8FEF797
S3150800A62053FF2C9B06461D6000289ED042460021FB
S3150800A630384634F022FF00232C9A012E13603FD0AF
S3150800A6406FF0920491E70D3D454536D801238DF804
S3150800A650283033460DF1290206F10C0153F8040B94
S3150800A6608B4242F8040BF9D11B780D3613704FF460
S3150800A6708073ADF8363006AB01930AAB00932A46D1
S3150800A6800023CDE9026716A90EA8FEF775FFC8E7ED
S3150800A690103D454511D833460DF1280C06F1100E2C
S3150800A6A0624618685968083303C273459446F7D159
S3150800A6B01036E0E76FF0850457E76FF0890454E732
S3150800A6C06FF08B0451E700BF0010C004004440043B
S3150800A6D0F0B5164600221C4643688DB01B0A07468D
S3150800A6E00D46009204D0012B38D06FF08B0071E034
S3150800A6F02246314600962BF0A1FE00286AD1F31CAB
S3150800A700C4E9030523F003036361002E00F0A38068
S3150800A7102022002101A834F0B0FE3146384601AAAD
S3150800A7202BF08CFE002840F096802368019A9A4206
S3150800A73040F091806368029A9A4240F08C80A36840
S3150800A740039A9A4240F08780A369079A9A4240F092
S3150800A7508280E369089A9A423CD07CE0032E7FD92E
S3150800A7600B78012B40F08780497800294BD0F739C0
S3150800A7700829BAD801A353F821F000BFE3A70008B7
S3150800A780A1A70008EBA60008D9A70008EBA60008B1
S3150800A790FDA70008EBA60008EDA70008F5A7000826
S3150800A7A04FF41056F825354F1C22002102A834F024
S3150800A7B064FE03230197CDE90435039601AA09AD82
S3150800A7C0134603CBAB42206061601A4604F10804C5
S3150800A7D0F6D100200DB0F0BD10274FF08076FA258F
S3150800A7E0E2E720274FF00076F725DDE7FE25234F21
S3150800A7F0234ED9E7FF25214F224ED5E74FF41056B1
S3150800A800FC251E4FD0E72B2E2AD92022204634F0CD
S3150800A81034FE05F110032361AB070DD001AB05F13A
S3150800A820280C1A4628686968083503C26545134620
S3150800A830F7D1286801AD10606B68103E2360AB68DD
S3150800A84069466360EB682046A36001236661E3609E
S3150800A8502BF033FA38B120220021204634F00DFEC1
S3150800A8606FF08600B6E7009E626906F11C039A42FD
S3150800A870BFF44BAFEFE76FF09100ABE72000008025
S3150800A880004400020044000307B5094B18689A887B
S3150800A8909B7900906846ADF804208DF80630FEF7DF
S3150800A8A015F90C20FEF74AF9002003B05DF804FB01
S3150800A8B0ACFC030813B50024064A6846536F43F0F8
S3150800A8C00103536700948DF80440FEF73DF82046CF
S3150800A8D002B010BD0040005030B58BB06C46174D25
S3150800A8E00FCD0FC40FCD0FC495E8030084E803000D
S3150800A8F0134BD3F84C2112031CD5A3F5FE431C8831
S3150800A9004FF6FF739C4208BF57248DF81940FDF790
S3150800A910B7FE204480F308008DF818000948FCF7B4
S3150800A92041FB6846FDF788FD3220FDF723FF00202E
S3150800A9300BB030BDD3F85041E4B2E6E7B4FC0308E7
S3150800A9400080E00FC017530230B5094D87B001AC3F
S3150800A9500FCD0FC42B6801A8236024238DF805307A
S3150800A960FDF7C4FE3220FDF7FFFE002007B030BD1C
S3150800A970DCFC03086FF00403502110B50A480B4CA1
S3150800A98013F0800F03F1010207D123444C2A83F800
S3150800A99000131346F4D1002010BD03F00F03043B47
S3150800A9A0034419761346EBE700ED00E000E100E00A
S3150800A9B038B502F081FF0446F0B903F0DBF903F07D
S3150800A9C063F84FF4167343430C4A03F5742303F2F2
S3150800A9D03F23B3FBF2F30A21094A0A4813600A4DDA
S3150800A9E00268013911F0FF0145F8043BF9D11A4410
S3150800A9F003EBC30313440360204638BD40420F00EF
S3150800AA003C3400200C34002010340020012208B504
S3150800AA10034B1A702CF0E7F9024B186008BD00BF0B
S3150800AA20526E00200834002010B503F02DF80446B5
S3150800AA302AF0C3FE844207D92CF0E1F920B101229D
S3150800AA40024B1860024B1A7010BD00BF0834002074
S3150800AA50526E0020F8B51C4C2378D3B12CF0C3F9FC
S3150800AA601A4B1B4D1B68C01A012838BF01202860E5
S3150800AA7003F00AF84FF416735843164B00F5742082
S3150800AA8000F23F20B0FBF3F02968814202D9002387
S3150800AA902370F8BD104D114E2B78114F56F8232010
S3150800AAA046F82310501A0A213A680133121A3A60F6
S3150800AAB00932B2FBF1F20B48DBB20260B3FBF1F2EA
S3150800AAC001FB12332B70E2E7526E00200834002097
S3150800AAD03834002040420F00536E00201034002006
S3150800AAE00C3400203C340020014B1868704700BF26
S3150800AAF03C34002020234FF48012042110B50F4C5B
S3150800AB000F4884F82C330F4B5A660F4B03F5005247
S3150800AB1050675167106711674FF48052C4F8842153
S3150800AB2062609A18506751679A6A22F000729A62B0
S3150800AB309A6A42F480529A6210BD00BF00E100E0B2
S3150800AB40010000A0009000500040005A044B9A6D86
S3150800AB5012F0050F02D10028F9D17047012070477D
S3150800AB600040005A154B10B51C6F14F004020FD0A4
S3150800AB7003F500531A6708229A62FFF755FF02F099
S3150800AB80D3FB02F0B3FB012003F0A2F82CF039F94D
S3150800AB90E30706D501220A4B1A67FFF75BFF02F0A7
S3150800ABA0A5FB14F000521CBF054B1A67002CBEBF4C
S3150800ABB04FF00042024B1A6710BD00BF0040005A12
S3150800ABC00060005A10B504462AF0E7FE024B1C60E6
S3150800ABD02AF0E7FE002010BD4034002010B52AF008
S3150800ABE0DCFE034B1C682AF0DCFE204610BD00BFC5
S3150800ABF04034002038B50C461546014610B9FFF713
S3150800AC00EDFF01462B462246034807F029FB00289C
S3150800AC10D4BF3720002038BDD367030810B50024F9
S3150800AC2000F024F80348044B84604360FFF7CAFF2A
S3150800AC30204610BD443400203DAC000813B5064C30
S3150800AC4023780093054B1B882BF0E0FD10B9237879
S3150800AC500133237002B010BD546E00200816002080
S3150800AC60014B1880002070470816002008B5074BCE
S3150800AC701A6842B9012208201A602AF0F5FD04492B
S3150800AC80044802F0D9F9002008BD00BF5834002056
S3150800AC901C1100205034002030B51446054687B0F4
S3150800ACA010462BF00CFE6369024683423CBFD4E98A
S3150800ACB003315B181B1A7BB10F49049403910021D9
S3150800ACC0CDE90131012300932846D4E900132AF07F
S3150800ACD0E2FD002007B030BD0122627694F82D20EF
S3150800ACE0002AF6D084F835301321E36920469847C0
S3150800ACF02046636A9847ECE799AC00082DE9F047C7
S3150800AD0088B004460F46164698462AF055FE8146F0
S3150800AD10002E7AD0237E03F0FF02002B00F0A280DB
S3150800AD2020462BF0CCFD6569A84205D1637ED4E99F
S3150800AD30033213445D1B01E0F9D9451BB54228BF10
S3150800AD4035462AF039FE94F82D308246002B6DD10F
S3150800AD502A463846616934F0A4FB63692E462B44BB
S3150800AD60636121E0037803F0FD0111295BD1216BB2
S3150800AD70814205D1A3F111014B424B4184F834308D
S3150800AD80013E6369216B01328B4203F1010308BF5F
S3150800AD902363636195426069E4D1D4E90323216B97
S3150800ADA01344994200D122630025D4E9032361693B
S3150800ADB01344994208BF6261207A6576FCF742FD22
S3150800ADC020462BF07CFD6369834232D1257694F8C0
S3150800ADD02D30E568656103B125632046636A9847A7
S3150800ADE0214B049403930023029323692A46019373
S3150800ADF00123009363682168207A2AF04CFD207AA3
S3150800AE00FCF740FD50462AF0DDFD4846C8F80060CC
S3150800AE102AF0D8FDD8F80030002B0CBF1B200020E4
S3150800AE2008B0BDE8F08707F8013BAAE72E460022DE
S3150800AE30B0E70123207A23760DF11E01FCF78AFD7F
S3150800AE409DF81E30002BDAD00DF11F01207AFCF791
S3150800AE5059FD9DF81F100029D1D12246207AFFF707
S3150800AE601BFFCCE71646D0E799AC0008002807DB9D
S3150800AE7001234109034A00F01F00834042F82130AC
S3150800AE80704700BF00E100E0002808DB0122430903
S3150800AE90034900F01F008240603341F823207047C1
S3150800AEA000E100E070B504460568FFF797FE8442A6
S3150800AEB002D10020FFF786FE95F936603046FFF787
S3150800AEC0E3FF002E0CDB01221949730906F01F0661
S3150800AED0B240203341F82320BFF34F8FBFF36F8F63
S3150800AEE095F937603046FFF7CFFF002E0CDB0122BD
S3150800AEF00F49730906F01F06B240203341F8232094
S3150800AF00BFF34F8FBFF36F8F287AFCF7DBFC287AE5
S3150800AF10FCF73EFCFCF71AFC00232846C4E900337C
S3150800AF20C4E90433A360AB6ABDE87040184700BFA4
S3150800AF3000E100E02DE9F0430C461546064687B0C9
S3150800AF404022002120461F4634F097FA95E8030070
S3150800AF5000232A692376EB6884E80300C4E90423FE
S3150800AF602A7DE36084F82C20AA7D2363012384F8D4
S3150800AF70343084F835300E9B84F82D2023620F9BDD
S3150800AF80E7616362109BA3622B7A84F836306B7A8A
S3150800AF9084F837302D4B346073602D4BB3602D4BDE
S3150800AFA033612D4B73612D4BF360FCF717FC38B1F9
S3150800AFB02B4B984204D01024204607B0BDE8F083F6
S3150800AFC0002104F10800FCF791FB07460028F2D19E
S3150800AFD04FF00108234B3362234B84F83C80B3615E
S3150800AFE0224BF3619DF8483084F8390084F83B30E9
S3150800AFF09DF84430204684F83A30697D84F83880D4
S3150800B0002BF06DFC95F909904846FFF73DFF484639
S3150800B010FFF72CFF164B0494CDE902732369CDE99B
S3150800B02000836368E2682168207A2AF034FC0446C3
S3150800B0300028C0D195F908502846FFF725FF28466D
S3150800B040FFF714FF3046FFF7BDFDB5E72F69030884
S3150800B050FDAC0008AD680308B3680308A5AE000890
S3150800B060038000F087680308DF680308B9680308E7
S3150800B07099AC00082DE9F04101271C465B4B86B0C8
S3150800B08002935B4B0C9D01935A4B904600930A46DC
S3150800B090CDE903772946584BFFF74CFF06460028AB
S3150800B0A040F09B80236839462B6463683A206B64BA
S3150800B0B0637A85F84930237A85F84830E37A85F843
S3150800B0C04B30A37A85F84A30637B85F84D30237B6D
S3150800B0D085F84C30E37B85F84F30A37B85F84E30F6
S3150800B0E0FCF75AFF3B460422617A207AFDF782FD77
S3150800B0F03B460222E17AA07AFDF77CFD3946606874
S3150800B100FCF74AFF88F8006041462068FDF758FFBB
S3150800B1101420617C394B01F1390252019850607A4A
S3150800B120227A03EB411342EA0042C3F83827E17A50
S3150800B130A27A42EA0142C3F8302785F8506098F8A7
S3150800B1401930032B4FD8DFE803F0394C021C0223D1
S3150800B15085F8503000230422E17BA07BFDF74AFDE9
S3150800B1600220617C254B01F1B9025201985003EB8C
S3150800B170411341F22C71E07BA27B42EA00425A500D
S3150800B1801CE0012785F8503002220023617B207BD2
S3150800B190FDF730FD617B227B637C42EA014241F286
S3150800B1A028715B0103F1A04303F570335A5004225A
S3150800B1B0236803F58053DA65002FCBD1237A2A6CEE
S3150800B1C085F84830637A052185F84930D36C2068BC
S3150800B1D043F00403D3642AF07AFC304606B0BDE88F
S3150800B1E0F0810027CEE72326F7E700BF5D6A03084C
S3150800B1F0516A0308E96A0308DD6A030800C00350B8
S3150800B20010B51C46044B18682EF0AFFA00282060CB
S3150800B2100CBF1B20002010BD2411002013B5064CBE
S3150800B2202378009311232BF0F1FA10B92378013310
S3150800B230237002B010BD00BF556E002010B5FFF791
S3150800B24015FD0F4C20602EF09EFA20220D49012391
S3150800B2500D4807F08BF80D4B18600D4B20466360C0
S3150800B2600C4BA360FFF7AEFC2AF097FB01210446BE
S3150800B270084601F04DFE20462AF093FB002010BD3B
S3150800B2805C340020566E0020F6FC030824110020CA
S3150800B2901DB2000801B200081A2812D8102814D9BD
S3150800B2A040F28523A0F11102D2B2D340DB070CD5B8
S3150800B2B00122064B80F020001A70054B18707D207D
S3150800B2C003E0A0F17D03012BF2D970477D6E0020C3
S3150800B2D07C6E0020F8B50E461446204B00B3204A73
S3150800B2E02049107000221A7022700A704FF6FF72F9
S3150800B2F01D4B1A801B4D2B78EBB91B4F30463988EE
S3150800B3002BF0AFFC164A38801378013BDBB213707A
S3150800B3106BB901232B703046BDE8F840FFF7BCBF78
S3150800B3201A78002AE6D01870104B1878F8BD2378DA
S3150800B33001332370EFE7012B05D102232B700A4B4B
S3150800B3401888000AE8E7022B04D103232B70064B62
S3150800B3501878E1E7FF237E202370E7E77D6E00205B
S3150800B3607A6E00207B6E0020366700207C6E0020F7
S3150800B3702DE9F047394E8846337817465BB9384A7F
S3150800B3801370384A1370384A1370384A13704FF6D8
S3150800B390FF72374B1A807D2850D02DD8182851D0E7
S3150800B3A01A2852D0314B2E4D1A78DFF8BC9080EA15
S3150800B3B0020400221A702B78CD2B9CBF01332B7008
S3150800B3C02B78022B12D9DFF8A8A099F80000BAF852
S3150800B3D000102BF046FC2B78AAF80000CD2B9FBF57
S3150800B3E099F80020023B88F800203B701D4B1A781C
S3150800B3F01C7089F8002006E07E28D3D1184B1B78EC
S3150800B4001BB91A4A1370202011E0FF2B1FD0184AC7
S3150800B4101188154A1078134A127802EB00229142D5
S3150800B42017D1022B17D9CE2B34BF00207A20A0F1D2
S3150800B4302002534253413370BDE8F08720220B4B5C
S3150800B4401A70E0E7FF22064BFAE77420EFE7772049
S3150800B450EDE77620EBE77920E9E700BF7E6E00206E
S3150800B460796E0020776E0020766E0020786E0020B8
S3150800B4703467002008B52BF0A5FB4FF6FF730028AC
S3150800B48018BF0346014A138008BD00BF3A6700206B
S3150800B49010B5074C208850B12BF094FB2388C01AAE
S3150800B4A0044B00B21B889842B4BF0020012010BD8F
S3150800B4B03A670020386700204FF07E624FF6FF7328
S3150800B4C02DE9F041B2F84670B2F84460154D9F4236
S3150800B4D008BF4FF448679E4208BF4FF4C8762C88C9
S3150800B4E0DFF8448050B164002C802B88BB4215D904
S3150800B4F02F800023A8F80030BDE8F081B8F80030A6
