:020000040800F2
:10000000001000201D0500084B2E00084B2E000894
:100010004B2E00084B2E00084B2E00084B2E0008DC
:100020004B2E00084B2E00084B2E00084B2E0008CC
:100030004B2E00084B2E00084B2E00084B2E0008BC
:100040004B2E00084B2E00084B2E00084B2E0008AC
:100050004B2E00084B2E00084B2E00084B2E00089C
:100060004B2E00084B2E00084B2E00084B2E00088C
:100070004B2E00084B2E00084B2E00084B2E00087C
:100080004B2E00084B2E00084B2E00084B2E00086C
:100090004B2E00084B2E00084B2E00084B2E00085C
:1000A0004B2E00084B2E00084B2E00084B2E00084C
:1000B0004B2E00084B2E00084B2E00084B2E00083C
:1000C0004B2E00084B2E00084B2E00084B2E00082C
:1000D0004B2E00084B2E00084B2E00084B2E00081C
:1000E0004B2E00084B2E00084B2E00084B2E00080C
:1000F0004B2E00084B2E00084B2E00084B2E0008FC
:100100004B2E0008710100084B2E00084B2E0008F2
:100110004B2E00084B2E00084B2E00084B2E0008DB
:100120004B2E00084B2E00084B2E00084B2E0008CB
:100130004B2E00084B2E00084B2E00084B2E0008BB
:100140004B2E00084B2E00084B2E00084B2E0008AB
:100150004B2E00084B2E00084B2E00084B2E00089B
:100160004B2E00084B2E00084B2E00084B2E00088B
:100170002DE9F74316A5D5E9004517A7D7E900678C
:10018000DFF85C80D8F888301B0705D102220E4BBF
:100190005A6203B0BDE8F0834146684602F0BDFEF6
:1001A000009802F0FBFA22462B4602F071FB3B4618
:1001B000324602F097FC9DF80490044B03EBC90310
:1001C000C3E90001DEE700BF0060005918100020FD
:1001D0005C8FC2F5285C03400000000000FEAF40C9
:1001E000004000590348044B834202D0034B03B143
:1001F0001847704718100020181000200000000059
:10020000064B0749C91A891048BF0131491003D06C
:10021000044B0BB101481847704700BF181000206D
:10022000181000200000000010B5064C237843B9D8
:10023000FFF7D8FF044B13B10448AFF3008001234C
:10024000237010BD44100020000000002C31000875
:1002500008B5054B1BB105490548AFF30080BDE863
:100260000840FFF7CDBF00BF0000000028100020AD
:100270002C310008A3F5803A704700BF174B002BC4
:1002800008BF134B9D46FFF7F5FF00218B460F4635
:100290001348144A121A02F04AFE0E4B002B00D0EB
:1002A00098470D4B002B00D09847002000210400F8
:1002B0000D000D48002802D00C48AFF3008002F07A
:1002C00093FD2000290000F0F3F802F07BFD00BF51
:1002D00000000800000000000000000000100020E6
:1002E000181000204810002000000000000000004E
:1002F00030B58BB06C46124D0FCD0FC40FCD0FC46F
:1003000095E8030084E803000E4BD3F84C21120358
:1003100008D5D3F85021120A8DF81820D3F850319F
:100320008DF81930684600F027FF074800F098F96B
:1003300003214FF4806001F0D9F80BB030BD00BF4D
:10034000802F00080080E00FC017530270B5A6B0E0
:10035000514D08AC0FCD0FC40FCD0FC495E803006D
:1003600000264FF4403384E8030001244F22314635
:100370000DF14900494D0393CDE905660796ADF8A7
:1003800010608DF8126002F0D2FD21462A208DF80F
:1003900048408DF84D408DF852408DF857408DF80B
:1003A0005C408DF861408DF866408DF86B408DF8AB
:1003B00070408DF875408DF87A408DF87F408DF84B
:1003C00084408DF889408DF88E408DF8934000F080
:1003D00083FC10214FF4B06001F088F832463049B8
:1003E00028468DF8176001F06BFD8DF819004FF469
:1003F000B06000F099FC4FF47A73B0FBF3F040F278
:10040000BA430B939DF819303246ADF81A000093A9
:100410002846334623498DF824608DF821608DF8F5
:10042000234001F07FFD49F20103ADF8483040F26E
:100430000113ADF84C3091230A9008AA284605A96B
:100440008DF84E308DF810408DF80E408DF80D402F
:100450008DF8514001F0BEFD12AA284603A901F013
:100460008FFC4FF48033EB600F4BD3F824232243EF
:10047000C3F82423D3F8242342F48032C3F824237E
:100480004FF40032AB6A43F00203AB62074BC3F890
:1004900084215A6026B070BDA82F00080040005982
:1004A000005A62028096980000C0035000E100E00C
:1004B00080B5FFF71DFF02F0BBFCFFF747FF0822E6
:1004C0004FF000081024094B094EDFF83090094D19
:1004D000094FDA60D6E9020142464B4602F068FC59
:1004E00008B13C64F6E72C64F4E700BF0040005913
:1004F0001810002000E0035000D003500000F03F2F
:100500000348044A0449121A921002F09FBC00BF2B
:1005100058310008583100084810002008B500F094
:100520002FF8FFF7EDFF124B12498B4212D3002038
:10053000114B12498B4218D3FFF7A0FE186850F8F0
:100540002240586840F82240013298688242F5D330
:100550000C33EAE70022F8E71C6844F82200013275
:100560005C68A242F8D30833E4E70022F8E700BF52
:1005700034310008403100084031000840310008A3
:1005800010B54FF480414FF0FF30114B114A9A6083
:10059000D3F8882042F47002C3F888200E4A91668E
:1005A0000E4901F5005210660D4850660220C3F84E
:1005B000D000BFF34F8FBFF36F8F01244FF4403350
:1005C0000848C0F88041D36004600B6110BD00BFD3
:1005D00000ED00E0000000080090005000800044A2
:1005E000F7FF370000E100E0014B1868704700BFDB
:1005F00004100020084B1B6F03F00703022B04D0EC
:10060000032B05D0012B05D0FEE7044B186870477B
:10061000034BFBE7034870470080005004100020A4
:100620000C100020002D310108B5FFF7E3FF054B4A
:100630001B6FC3F303330133B0FBF3F0024B1860BD
:1006400008BD00BF00800050001000200048704727
:1006500000B4C404014B1868704700BF0C100020A0
:10066000054B1860054B1B6F03F00703032B01D1EB
:10067000FFF7DABF704700BF0C1000200080005069
:1006800000487047002D31014FF0B4439868C0F323
:1006900004400C280AD8DFE800F00B090909090911
:1006A000072119091B1D1F000F48704700207047C4
:1006B0009B6803F04073B3F1807F11D0B3F1007FEA
:1006C00010D00A4A002B08BF1046704708487047F0
:1006D00008487047084870470848704708487047FE
:1006E0000848704708487047405DC60000093D0053
:1006F000C0EA210180BA8C010048E801005A620278
:100700000024F40080841E0040420F00014B186852
:10071000704700BF08100020044BD3F88420D20695
:10072000FBD4D3F88400C0F3811070470040005020
:1007300038B5124B0546D3F880300C4603F003035E
:10074000022B0BD0032B0DD0012B0FD1FFF752FF43
:100750000E2305B1286004B1236038BDFFF794FF74
:100760000723F6E7FFF740FF0623F2E7044841F2CC
:10077000DF1102F07EFB00231846EAE700800050FC
:10078000D02F000838B51A4B0546D3F820010C4687
:1007900000F00700062821D8DFE800F028040C1438
:1007A00010181C00FFF720FF052305B1286004B1D5
:1007B000236038BDFFF74EFF0323F6E7FFF764FF22
:1007C0000723F2E7FFF75CFF0223EEE7FFF70CFFDA
:1007D0000623EAE7FFF73EFF0423E6E7054841F278
:1007E0005C2102F046FB00231846DEE70123DCE72C
:1007F00000800050D02F000838B5194B0546D3F8BB
:1008000028310C4603F00703013B052B20D8DFE815
:1008100003F003131B0F0B17FFF7E6FE052305B1CB
:10082000286004B1236038BDFFF7DEFE0623F6E73B
:10083000FFF72AFF0723F2E7FFF70CFF0323EEE79A
:10084000FFF708FF0423EAE7FFF71AFF0223E6E7B2
:10085000044841F2640102F00CFB00231846DEE775
:1008600000800050D02F0008F7B50027144B0197E7
:10087000D3F88041064604F00304022C0D4614D040
:10088000032C0DD0012C14D1394601A8FFF77AFFB3
:1008900010240EB1019B336005B12C6003B0F0BD94
:1008A000FFF7F2FE07240190F3E7FFF7E9FE01905E
:1008B000EFE741F2B131034802F0DBFA3C46E8E7EA
:1008C00000800050D02F000837B500230193194B4A
:1008D0000546D3F820320C4603F00703042B1FD83B
:1008E000DFE803F025030F141900002101A8FFF72A
:1008F00083FF12230DB1019A2A6004B1236003B073
:1009000030BDFFF7C1FE07230190F3E702F0ABFA19
:100910000A230190EEE7FFF7F9FE09230190E9E7CA
:1009200041F22301044802F0A4FA0023E2E7012384
:10093000E0E700BF00800050D02F000838B5104B12
:100940000546D3F840310C4603F00303022B0BD0CD
:10095000032B0DD0012B0FD102F085FA0A2305B12C
:10096000286004B1236038BDFFF7D0FE0923F6E705
:1009700002F07CFA0C23F2E701230020EFE700BF2E
:100980000080005037B500230193184B0546D3F87B
:1009900060320C4603F00703013B032B1FD8DFE84E
:1009A00003F0020E1914002101A8FFF7EBFE10233B
:1009B0000DB1019A2A6004B1236003B030BD00215B
:1009C00001A8FFF7BBFF1123F2E7FFF75DFE072346
:1009D0000190EDE7FFF754FE02230190E8E741F2B2
:1009E000C801034802F045FA0023E1E70080005007
:1009F000D02F000837B500230193184B0546D3F8D4
:100A000094320C4603F00703013B032B1FD8DFE8A9
:100A100003F0020E1914002101A8FFF7B3FE102302
:100A20000DB1019A2A6004B1236003B030BD0021EA
:100A300001A8FFF783FF1123F2E7FFF725FE072345
:100A40000190EDE7FFF71CFE02230190E8E741F279
:100A5000FB01034802F00DFA0023E1E7008000509B
:100A6000D02F000873B500240F4B0194D3F87032D7
:100A7000064603F00303012B0D4607D0022B11D0CD
:100A800041F22611094802F0F4F904E0214601A8D8
:100A9000FFF754FF11240EB1019B336005B12C60A8
:100AA00002B070BD1524F6E700800050D02F00087A
:100AB00038B5164B0546D3F800020C4600F0070087
:100AC000042819D8DFE800F020030B0F130002F010
:100AD000CAF90A2305B1286004B1236038BDFFF7C5
:100AE00015FE0923F6E702F0C1F90C23F2E7FFF740
:100AF0009BFD0F23800AEDE7054841F26F4102F0AC
:100B0000B8F900231846E5E70123E3E70080005029
:100B1000D02F000838B5164B0546D3F808020C460E
:100B200000F00700042819D8DFE800F020030B0FBD
:100B3000130002F098F90A2305B1286004B123607C
:100B400038BDFFF7E3FD0923F6E702F08FF90C2328
:100B5000F2E7FFF769FD0F23800AEDE7054841F250
:100B6000A74102F086F900231846E5E70123E3E7F1
:100B700000800050D02F000838B5104B0546D3F840
:100B800040320C4603F00303022B0BD0032B0DD095
:100B9000012B0FD102F067F90A2305B1286004B1D7
:100BA000236038BDFFF7B2FD0923F6E702F05EF9D6
:100BB0000C23F2E701230020EFE700BF0080005084
:100BC00038B5104B0546D3F860310C4603F00303EB
:100BD000022B0BD0032B0DD0012B0FD102F043F9C8
:100BE0000A2305B1286004B1236038BDFFF78EFDEC
:100BF0000923F6E702F03AF90C23F2E7012300207B
:100C0000EFE700BF0080005010B5B0F5207F2ED078
:100C100009D8B0F5007F24D003D868B1B0F5C07F03
:100C20000AD000241BE0B0F5607FFAD1124BD3F854
:100C30008040C4F3011412E00F4B1C6F230B13F020
:100C40000E0FC4F303340AD0072C08D00F2C06D0A3
:100C5000032C04D040F28521084802F00AF9601CF8
:100C600010BD054BD3F89040C4F30464F7E7024B82
:100C70001C6FC4F38024F2E700800050D02F0008DE
:100C800038B54FF48032104B04469A6600200D466A
:100C9000FFF7BAFF41F671320C4B6043DC69DA634F
:100CA0005A6804F4803422F440125DB9084988423D
:100CB00094BF00200120000502435A600CB10022BD
:100CC000DA6338BD0349F2E700900050000003509A
:100CD000005A6202002D310138B5430904460D4621
:100CE0000ED140F22F310D4802F0C3F8002304F07A
:100CF0001F0485B103F580530122A2401A6038BD5C
:100D0000012B04D0022B04D040F23D31EBE7044B21
:100D1000EDE7044BEBE703F50053EDE7D02F0008B8
:100D2000648000506880005030B585B00021802874
:100D30000446CDE9001100F09F8035D85E2846D8E2
:100D40005E2844D8DFE800F09E43434343434343D7
:100D50004343434343434343434343434343434363
:100D600043434343434343439EAB9EABBBBBBBBBED
:100D7000BBABC550DB7450ABABAB434343434343C6
:100D80004343ABABAB7CE5AB4343434343434343B8
:100D90004343434343BB9E9E9EE05050EA8B61C059
:100DA0004343434343939E00B0F5B06F00F09180FE
:100DB00030D8B0F5207F72D00FD8B0F5C07F61D0A9
:100DC000B0F5007F61D0B0F5807F00F0878040F201
:100DD0009441554802F04DF851E0B0F5607F69D07C
:100DE0000DD8B0F5407FF2D1FFF71EFC04464FF45A
:100DF0002070FFF709FFB4FBF0F4640858E0B0F589
:100E0000806F5CD0B0F5A06FE1D100216846FFF79C
:100E10005BFD34E0B0F5106F76D016D8B0F5E06F1A
:100E200077D00AD8B0F5C06F69D0B0F5D06FCED109
:100E300000216846FFF73CFE21E0B0F5F06FC6D117
:100E400000216846FFF7BCFE19E0B0F5406F3BD0CB
:100E50000AD8B0F5206F61D0B0F5286FB7D1002166
:100E60006846FFF7FFFD0AE0B0F5486FAFD10021FB
:100E70006846FFF7BFFD02E0FFF7BCFB009000985B
:100E800005B030BDFFF7D0FBF8E7FFF7B3FB054631
:100E90002046FFF7B9FEB5FBF0F50095EFE7FFF749
:100EA000C3FB04464FF42070FFF7AEFEB4FBF0F432
:100EB0000094E4E701A8FFF73BFC019DE8E700216F
:100EC0006846FFF75FFCDAE700216846FFF794FC0D
:100ED000D5E700216846FFF7C7FCD0E74FF0E023D5
:100EE00002911B695B0705D5FFF79EFB0290029BF1
:100EF0000093C4E703A902A8FFF720FDF7E700214C
:100F00006846FFF71BFDBAE700216846FFF702FEBF
:100F1000B5E700216846FFF72FFEB0E700216846DD
:100F2000FFF730FDABE700BFD02F000808B58020E9
:100F3000FFF7FAFE034B98429EBF4FF48032024BFC
:100F40001A6708BD005A620200A000501FB5034690
:100F50000020B3F5807F019000F0C28063D85D2B44
:100F600054D84C2B06D82D2B46D8232B2AD840F208
:100F70007951A4E04D3B102BF9D801A252F823F08F
:100F8000D71000086F0F00086F0F00086F0F0008E0
:100F9000891000086F0F00086F0F00085B11000830
:100FA000A71000084D100008511100086F0F00082D
:100FB0006F0F00086F0F00086F0F00086F0F000819
:100FC00065110008243B092BD1D801A252F823F067
:100FD000D7100008D7100008D7100008D710000855
:100FE000D71000086F0F0008C71000086F0F000827
:100FF000691000080D1100083D2B00F082803E2B87
:10100000B5D1002001A9FFF7B7FD60E0802BAED17C
:10101000574B1B6F03F00703013B032B4DD8DFE851
:1010200003F04A47878FB3F5F06F6AD021D8B3F544
:10103000B06F48D00FD8B3F5607F00F0858096D3AD
:10104000B3F5806F47D0B3F5A06F90D1002001A910
:10105000FFF73AFC3BE0B3F5D06F57D0B3F5E06F44
:10106000CFD0B3F5C06F82D1002001A9FFF766FC95
:101070002DE0B3F5206F70D00BD8B3F5086F4AD0D0
:10108000B3F5106F7FF473AF002001A9FFF742FDA5
:101090001DE0B3F5406F5BD0B3F5486F62D0B3F598
:1010A000286F7FF464AF002001A9FFF7DBFC0EE09E
:1010B000052301930BE00223FBE740F2C6412D48D4
:1010C00001F0D7FE03E0002001A9FFF7CDFB019856
:1010D00005B05DF804FB002001A9FFF753FBF6E71C
:1010E0004FF0E02302901B695B0705D5FFF79CFAE0
:1010F0000D230393039BDCE703A902A8FFF71EFC63
:10110000F8E7002001A9FFF75BFDE0E7002001A957
:10111000FFF7CEFCDBE7164BD3F8003103F00303F7
:10112000022B07D0032B09D0012B0BD1FFF792FA2A
:101130000323BEE7FFF7EAFA0923BAE701F091FEBD
:101140000823B6E70123B4E701A9FFF7F1FABEE7E8
:10115000002001A9FFF750FBB9E7002001A9FFF724
:1011600011FCB4E7002001A9FFF744FCAFE700BF82
:1011700000800050D02F000838B5036804460F2BBC
:1011800004D940F66D317C4801F073FE63680F2B83
:1011900004D94FF43761784801F06BFEA3680F2B38
:1011A00004D940F67331744801F063FE237B0F2BA2
:1011B00004D940F67631704801F05BFE637B0F2B5B
:1011C00004D940F679316C4801F053FEA37B3F2BE4
:1011D00004D940F67C31684801F04BFEE37B3F2B9D
:1011E00004D940F67F31644801F043FE2369032BA4
:1011F00004D940F68231604801F03BFE6369032B5D
:1012000004D940F685315C4801F033FEE369032BD5
:1012100004D940F68831584801F02BFE8020FFF7B2
:1012200095FE032800F083804FF48012534B4FF05B
:10123000A0615A6645F60E02514BC3F88020514A10
:1012400091624FF4803102F5805291629A6DD2031F
:10125000FCD4996D11F08041FBD1D4E90002120554
:1012600042EA0062E07B0243207B42EA0042607B6C
:1012700042EA0032A07B42EA80121A619869D4E9FE
:101280000452120642EA856200F000400243A07E4A
:10129000E57E0243207E42EA0042607E42EA00226E
:1012A0009A611A6AE06922F00F0242EA8502364D1D
:1012B00000283DD11A6294F82420996A94F82000FD
:1012C000D200294042EA40120A4394F8211042EA2F
:1012D000011242F480329A622C49294A936D31EA14
:1012E0000303FBD14FF08071264881621369A56822
:1012F00023F4700343EA055313614FF00043836105
:1013000094F822300BB9224B996294F823303BB900
:101310004FF480321E4B9A62194A936D5B00FCD4E5
:1013200094F825301BB1164B1A4AC3F8802038BDFB
:10133000024342F0080202281A6208D119614FF4F0
:101340000852996114484FF47F4101F094FD0C4913
:1013500094F822308A6A94F820001B062A4043EA57
:101360004013134394F8242043EAC20394F8232043
:1013700043EA02438B62D3E7D02F0008009000506D
:101380000040005A0050005AC7FFFEFE0300010053
:101390000060005AF1A7FFFF3440005A38B5B0F59D
:1013A000207F77D00ED8B0F5007F61D003D890B3FE
:1013B000B0F5C07F2FD040F21231BDE838403D4833
:1013C00001F057BDB0F5607FF5D13B4A4C1ED2F815
:1013D000FC5015F080751EBFD2F8FC3023F08073EE
:1013E000C2F8FC30032C04D940F2F221314801F05C
:1013F00040FD324AD2F8803023F0300343EA041330
:10140000C2F8803035B12C4AD2F8FC3043F08073FA
:10141000C2F8FC3038BD4C1E012C0AD9102903D863
:10142000274BCB40DB0704D440F2C721214801F011
:1014300020FD01F02FFD01F03BFD4FF48031214BE9
:101440001E4A1967136F23F4704343EA043313678A
:10145000FFF7EAF80446FFF75FF9C0F10201204602
:1014600001F020FD00F030F8BDE83840FFF75EBD28
:101470004C1E1F2C04D940F206310E4801F0F9FC35
:101480000E4AD2F8903023F0F85343EA0463C2F8CE
:101490009030BFE74C1E012C04D94FF4437105482E
:1014A00001F0E7FC054A136F23F4806343EA8423C9
:1014B0001367AFE7D02F000800ED00E00080005078
:1014C000100101000090005008B54FF4C070FFF704
:1014D0002BFCBDE808400449884294BF0121022149
:1014E0004FF42070FFF75ABF80F0FA02F8B5B0F55C
:1014F000807F0C4600F089816FD85D2861D84C2828
:1015000006D82D2846D823282AD840F64211B6E11D
:101510004D381028F9D801A353F820F0C31700085C
:101520000B1500080B1500080B1500088B1600089A
:101530000B1500080B150008E71A0008CD16000867
:1015400007160008931A00080B1500080B15000871
:101550000B1500080B1500080B150008271B0008C9
:1015600024380928D1D801A353F820F0C317000864
:10157000C3170008C3170008C3170008C3170008E3
:101580000B150008911700080B1500084D160008F0
:10159000F31800083D2800F08C813E28B5D1013CAD
:1015A0000B2C00F29782DFE814F09A029502950264
:1015B000950295029502950295029C028902890284
:1015C00093028028A1D18B1E062B00F2D680DFE883
:1015D00003F0D1C2D4DCD4D49200B0F5F06F00F0A7
:1015E000688145D8B0F5B06F00F0D28023D8B0F54F
:1015F000607F00F0E68188D3B0F5806F00F0E18075
:10160000B0F5A06F81D1013C112C00F23982DFE8E6
:1016100014F03C02370237023702370237023E022B
:1016200037023502330233023702370237023702FC
:10163000370237022902B0F5D06F00F05A81B0F5B9
:10164000E06FACD0B0F5C06F7FF45FAF013C0B2C06
:1016500000F22681DFE814F029012401240124018D
:1016600024012401240124012B0118011801220165
:10167000B0F5206F00F037821CD8B0F5086F00F08D
:101680008181B0F5106F7FF440AF013C0E2C00F269
:101690006281DFE814F065016001600160016001B2
:1016A0006001600160017501520152015C0160013D
:1016B00060015E01B0F5406F00F0EB81B0F5486F5E
:1016C00000F03182B0F5286F7FF41FAF112C00F0CD
:1016D0004A82152C00F049824FF41161A14801F0B3
:1016E000C8FB0022A049D1F8703223F00303134352
:1016F000C1F870322EE0002504264FF48037012116
:10170000022000F03DFA01F0C5FB01F0D1FB974B40
:10171000954A1F67136F23F0070333431367FEF7E0
:1017200083FF0646FEF7F8FFC0F10201304601F0E4
:10173000B9FB0121002000F077FAFFF7C5FEFFF7A3
:10174000F5FB3DB9032C05D1894B8A4A9F62936D05
:101750005800FCD4F8BD4FF48012844B0E465A66F4
:101760004FF48032834B9D6A03F58053C5F30065C7
:101770009A62C2E700250126BFE7002540F23161E9
:10178000784801F076FB2E46B7E700250226B4E73D
:10179000072C12D0102C12D0022C05D040F27A6106
:1017A000704801F066FB00246F4AD2F8803123F0C4
:1017B00003032343C2F88031CCE70324F4E7012478
:1017C000F2E7013C062C17D8DFE804F01B101D14CB
:1017D00004120E0001236449D1F8202122F00702EF
:1017E0001343C1F82031B5E70423F4E70323F2E7FC
:1017F0000523F0E70623EEE740F2B961594801F00E
:1018000038FB0023E7E70223E5E7A1F10904082CF0
:1018100033D8DFE804F0050532051C32323205000A
:101820004FF48032504B5449586E03F580535A663A
:101830004B6A43F001034B62C1035CBF4F4B5A66D6
:101840004FF0E022136923F00403136182E74FF4A1
:101850008032454B4849586E03F580535A664B6AAF
:1018600023F001034B62C3035CBF444B5A664FF045
:10187000E022136943F00403E7E740F2E161BDE8C9
:10188000F840384801F0F5BA01223749D1F8403123
:1018900023F003031343C1F840315BE70322F4E76D
:1018A00040F201712F4801F0E4FA0022EDE7022234
:1018B000EBE7013C0B2C13D8DFE804F017121212EF
:1018C000121212121906061001222749D1F86031AE
:1018D00023F003031343C1F860313BE70322F4E72D
:1018E00040F223711F4801F0C4FA0022EDE7022202
:1018F000EBE7013C0E2C17D8DFE804F01B16161698
:10190000161616161D08081216161400012216497E
:10191000D1F8003223F007031343C1F8003219E76E
:101920000322F4E70422F2E74FF4EE610D4801F0E0
:10193000A0FA0022EBE70222E9E701220A49D1F8E6
:10194000083223F007031343C1F8083202E70322E9
:10195000F4E70422F2E740F29471024801F089FAB8
:101960000022EBE7D02F00080080005000900050CC
:101970000060005A0040005A00C0075000A000500C
:101980000222DBE74C1E082C12D8DFE804F0161107
:1019900005111111110F180001227549D1F80031FC
:1019A00023F003031343C1F80031D3E60322F4E725
:1019B0004FF4F6616F4801F05CFA0022EDE7022275
:1019C000EBE76D4A6A4BD2F8FC5015F080750AD1EE
:1019D000072929D1D3F8802022F0030242F0020225
:1019E000C3F88020B6E6D2F8FC10072C21F08071F5
:1019F000C2F8FC100FD1D3F8802022F0030242F08D
:101A00000202C3F880205C4AD2F8FC3043F08073B5
:101A1000C2F8FC309EE60E2C0FD1D3F8802022F0C5
:101A2000030242F00102ECE70E2906D1D3F8802030
:101A300022F0030242F00102D2E7062C10D040F25D
:101A4000E1714C4801F015FA0021494AD2F8803082
:101A500023F003030B43C2F88030002DD3D179E685
:101A60000321F2E701224249D1F8203223F0070393
:101A70001343C1F820326DE60322F4E70422F2E7B3
:101A800040F63D013B4801F0F4F90022EBE7022269
:101A9000E9E7023C052C0AD8384B195D344AD2F8E4
:101AA000283123F007030B43C2F8283152E640F6F1
:101AB0006E01304801F0DDF90021EFE701222C49E9
:101AC000D1F8403223F003031343C1F8403241E61A
:101AD0000322F4E740F6AC01264801F0CAF90022DF
:101AE000EDE70222EBE7102C17D012D8022C16D00B
:101AF000072C16D040F6E2011E4801F0BAF9002288
:101B00001B49D1F8603223F007031343C1F8603258
:101B100020E6112CEED10222F2E70122F0E70322A7
:101B2000EEE70422ECE7102C17D012D8022C16D0C6
:101B3000072C16D040F6FA010E4801F09AF900225F
:101B40000B49D1F8943223F007031343C1F89432C0
:101B500000E6112CEED10222F2E70122F0E7032287
:101B6000EEE70422ECE70122BCE50222BAE500BF61
:101B700000800050D02F000800ED00E00B3000087E
:101B8000F8B50446244BD3F88420D006FBD4D3F810
:101B90008430C3F381139C423CD0FEF72BFD012C13
:101BA00005460BD11D4B984204D940F292711C4856
:101BB00001F05FF90121284601F074F901F07DF987
:101BC0004FF00072174B07465A66204601F07CF929
:101BD0004FF48063104E621E93403367736E9A0118
:101BE00003D4D6F884309B060AD5384601F069F94B
:101BF000022C0FD12846BDE8F840002101F052B96F
:101C0000D6F884309906E9D54FF4F461044801F020
:101C100030F9E3E7F8BD00BF00400050005A62020F
:101C2000113000080060005010B50C4608B9FEF7EE
:101C3000E1FC074B21461B783BB1064B984204D888
:101C40000120BDE81040FFF79BBF0220F9E700BF6D
:101C500045100020005A620238B5032804460D469C
:101C600005D8094B33F81030CB40DB0704D440F2E1
:101C70002D41064801F0FDF8302301225C43044B5E
:101C8000AA401A5138BD00BFC43000084C300008CB
:101C900040D0035038B5032804460D4605D8094BFB
:101CA00033F81030CB40DB0704D440F2FE31064855
:101CB00001F0DFF8302301225C43044BAA401A51A3
:101CC00038BD00BFC43000084C30000840E003506D
:101CD0002DE9F041032804460D461746984605D8DD
:101CE0001D4B33F81030CB40DB0704D44FF4B071F8
:101CF0001A4801F0BEF837B129462046B8F1000F66
:101D000020D0FFF7A9FF0F21072D04EB440688BF61
:101D1000A5F108034FEA0616114895BFAB009B00DA
:101D200004360C3607FA03F29940304401F0CDF83E
:101D30007FB929462046B8F1000F06D0BDE8F04132
:101D4000FFF78ABFFFF7A6FFDDE7BDE8F041FFF729
:101D5000A1BFBDE8F08100BFC43000088830000892
:101D600030C003504369DA01FCD4012300F5005070
:101D7000024A436053689B07FCD4704700400059F7
:101D800070B5344B044698420D46164604D040F2D6
:101D90001721314801F06DF82046FFF7E3FF2B785B
:101DA0006A7803F0070343EAC203EA7843EA0223AE
:101DB000AA78120102F070021343C4F880306B79E4
:101DC000E26A1B0122F0170203F0100313432A7981
:101DD00002F007021343E3621E4B32469C4225D0B9
:101DE000012104F5805359601A4B00229C422AD0ED
:101DF000AB79A26153BB70BD12F8023C12F8041C0F
:101E00005B0443EA012312F8051C0B4312F8031C80
:101E1000090401F480310B4300F1280144F821301A
:101E20000130102802F10502E6D1D9E70020F8E7D9
:101E300003EB8300305C10B101FA03F0024301337D
:101E4000102BF5D1D4E713460436F9E70823E360F5
:101E5000D1E700BF00400059CC30000810B5144B4A
:101E60000C46984204D040F26F31124801F001F85C
:101E700074B92A20FEF758FF0446B0B10E4B9842C1
:101E800006D90B4B9B68C3F302730133B0FBF3F429
:101E90000A4B04F5742404F23F24B4FBF3F4601EEF
:101EA0007F2828BF7F20C0B210BD0124F0E700BF0B
:101EB00000400059CC300008005A620240420F0036
:101EC00038B5154B0D469842144604D040F2AA315D
:101ED000124800F0CEFF35B940F2AB310F4800F0A8
:101EE000C8FFB4B1FFDE0E4B9D4228BF1D461CB992
:101EF0002A20FEF719FF04462C44013CB4FBF5F000
:101F0000AC4228BF00F1FF30032828BF0320C0B235
:101F100038BD2546ECE700BF00400059CC30000832
:101F2000005A6202F8B51F46194B0E4698421446F5
:101F300004D04FF47971174800F09BFF26B940F2A6
:101F4000E531144800F095FFFFB1134D134B012FFD
:101F500008BF1D46B54228BF35461CB92A20FEF7EA
:101F6000E3FE04469DF8183040F2FF300133B4FB25
:101F7000F3F46B1E1C44B4FBF5F3AC4228BF03F131
:101F8000FF33984228BF1846F8BD054DE2E700BF71
:101F900000400059CC300008404B4C00002D31016E
:101FA0008096980013B5044601A800F0A3FA042C0B
:101FB00004D8064B33F8140002B010BD044840F2B8
:101FC000914100F056FF0020F6E700BF08310008FD
:101FD000CC3000082DE9F04F2DED048B8DB0064676
:101FE000DFF83CC306AF0C461546BCE80F000FC730
:101FF0009CE80300BE4B87E803009E4203D0F1211A
:10200000BC4800F036FFBC4F002239463046FFF78F
:1020100057FF94F80580804538BF80463046FFF76B
:10202000A1FE20795FFA88F850B92A20FEF77CFEDD
:10203000B842014628BFB0FBF8F13046FFF70EFF6B
:10204000E3784FEA08721B0102F0E04203F030032C
:1020500013430004227800F4FE0003430AB143F066
:10206000020362780AB143F00403A2780AB143F094
:102070000803B360E38822893361638943EA02433A
:1020800033629B4B9E4200F01F82012306F580566F
:1020900073600DB0BDEC048BBDE8F08F9749C5E0CF
:1020A000D1F88041012B4FEA14442CD9022B00F0C7
:1020B000748140F2F1118F4800F0DBFE9DE0D1F811
:1020C0008441012BA4B2F1D8002B40F00881D1F853
:1020D0008C11091449001CE0D1F88441012B4FEA0E
:1020E0001444E3D8002B40F0FD80D1F88C11091482
:1020F00001EB41010DE0D1F88041012BA4B2D5D80C
:10210000DFED7F7A09E0002B40F0E680D1F88C11FA
:10211000091407EE901AF8EEE77A22040BF1B242A6
:1021200002F58042926C24F4C041C2F3820C4FF05D
:1021300001020CF1010E02FA0EF209EE102A4FEA2A
:102140008141B8EEC99AF6EE008A6E4A48BF41F066
:102150000041BCF1000F40F0E580002B40F0C5804D
:10216000D2F88C311BB207EE103AB8EEC77A37EED0
:10217000878A002840F0F98005A8039100F0BAF999
:10218000DFED617A68EE277A0399DFED606A86EE0B
:10219000897ADFED5F6A27EE267AF1EE006AB1F107
:1021A000004F07EEA67A0BD0DFED5A7A06EE104A02
:1021B00077EE276ABAEEE86A56EE267AB0EE677ACC
:1021C000B5EEC07AF1EE10FACBBFB1EE477A78EEF9
:1021D000C78A37EE687AFDEEE87AC8BFFDEEC77AA7
:1021E00017EE903AB3F5003FC0F2CE806FEA51414E
:1021F0006FEA41413E4A3B01D1503F0107F1B247EE
:10220000C9F3090307F580477B600AF1010A143519
:10221000BAF1020F3FF439AF2B78AF68002B3FF4CF
:102220003DAF3D493D4A012B18BF1146304C0022BD
:102230002046CDF800800393FFF774FE04EB0A14E8
:10224000A16C039B21F0435121F41D1121F4435152
:102250001FFA87F921F03F0103F003070F43697864
:1022600081454FEA810101F01C0147EA0107A97885
:1022700038BF81464901C9B20F43E978287909037B
:1022800001F4E0413943070407F4E02739432F7C88
:102290004FEA0A1B7F0507F4600739436F793F0750
:1022A00007F040573943A164A46C1649C4F30234C3
:1022B000013C0AF10507042C3FF61DAF0FF2040C98
:1022C0005CF824F0F7200008F7200008A12000089F
:1022D000BF200008D9200008D1F8941118E7D1F8E0
:1022E0009411F6E6D1F8941101E7D2F8943139E768
:1022F00000400059CC300008005A620280969800D5
:10230000000000000080E00F3D3B843F0000804360
:102310000000204400000049002D3101404B4C00DA
:1023200014310008ABB9D2F890311BB207EE103A65
:10233000B8EEC77A77EE677A69EE286A644B87EE63
:10234000A67AD3F888311BB207EE903AF8EEE77A16
:102350000DE7D2F898311BB207EE103AB8EEC77A03
:1023600037EE677A77EE877AE6E7D5ED037ADFED29
:10237000596AF8EE677A87EEA67AF7EE046AC6EE37
:10238000877A67EE887A00E713F5003FAABFC3F3A8
:10239000110341F4003119432CE7FFF703FE07EE68
:1023A000900A9FED4C7AF8EE677A0BF1B24303F591
:1023B00080439B6C0CAAC3F3421302EB830387EEAA
:1023C000875A13ED067AFCEEC77A17EE903AF7EECD
:1023D000006A5C2B1CBF77EE267A87EE276A07EE31
:1023E000904ADFED3D5AF8EE677A08BF9FED3B6AF1
:1023F00067EEA57A67EE867A9FED396A67EE867A90
:10240000F5EEC07AB6EE006AF1EE10FA4CBF77EE48
:10241000C67A77EE867A0BF1B24202F58042136DEE
:10242000FDEEE77A0023136517EE903A17EE900A57
:1024300013F4004F136DDFED2B4A18BF43F0004338
:102440001365294B116D03EA80430B431365204B41
:102450009FED264AD3F88811D3F88831116D1BB24D
:1024600007EE903AF8EEE77A77EEA47AC4EE074AE0
:1024700037EE267AC4EE876AF7EE044A84EE857A50
:1024800067EE277AB1EE007A47EE876A07EE104AC8
:10249000DFED177AB8EEC77A76EEA76A65EEC75A0F
:1024A00046EEA57AF5EEC07AF1EE10FA4CBF77EE63
:1024B000C67A77EE867AFDEEE77A17EE903AC3F3A6
:1024C00011030B43136598E64FF0000AA0E600BF26
:1024D0000080E00F00007A4400000038E71B753FE1
:1024E00000000047000000000000FC7F0000804862
:1024F000000000494FF48032064B5A6603F5E6238C
:102500009B69C3F38512827003F03F021B0B42707C
:10251000037070470090005081F0004102E000BF5E
:1025200083F0004330B54FEA41044FEA430594EA93
:10253000050F08BF90EA020F1FBF54EA000C55EACE
:10254000020C7FEA645C7FEA655C00F0E2804FEA9F
:102550005454D4EB5555B8BF6D420CDD2C4480EA81
:10256000020281EA030382EA000083EA010180EAB1
:10257000020281EA0303362D88BF30BD11F0004FFF
:102580004FEA01314FF4801C4CEA113102D0404235
:1025900061EB410113F0004F4FEA03334CEA133370
:1025A00002D0524263EB430394EA050F00F0A78088
:1025B000A4F10104D5F1200E0DDB02FA0EFC22FA83
:1025C00005F2801841F1000103FA0EF2801843FA77
:1025D00005F359410EE0A5F120050EF1200E012A68
:1025E00003FA0EFC28BF4CF0020C43FA05F3C018A6
:1025F00051EBE37101F0004507D54FF0000EDCF11F
:10260000000C7EEB00006EEB0101B1F5801F1BD3C7
:10261000B1F5001F0CD349085FEA30004FEA3C0CCB
:1026200004F101044FEA445212F5800F80F09A80C1
:10263000BCF1004F08BF5FEA500C50F1000041EBC5
:10264000045141EA050130BD5FEA4C0C404141EBC9
:102650000101013C28BFB1F5801FE9D291F0000FC4
:1026600004BF01460020B1FA81F308BF2033A3F173
:102670000B03B3F120020CDA0C3208DD02F1140C6A
:10268000C2F10C0201FA0CF021FA02F10CE002F1A5
:102690001402D8BFC2F1200C01FA02F120FA0CFC9E
:1026A000DCBF41EA0C019040E41AA2BF01EB0451E7
:1026B000294330BD6FEA04041F3C1CDA0C340EDCE5
:1026C00004F11404C4F1200220FA04F001FA02F328
:1026D00040EA030021FA04F345EA030130BDC4F1E6
:1026E0000C04C4F1200220FA02F001FA04F340EADB
:1026F0000300294630BD21FA04F0294630BD94F08C
:10270000000F83F4801306BF81F480110134013D72
:102710004EE77FEA645C18BF7FEA655C29D094EAE3
:10272000050F08BF90EA020F05D054EA000C04BF61
:102730001946104630BD91EA030F1EBF002100204C
:1027400030BD5FEA545C05D14000494128BF41F0EB
:10275000004130BD14F580043CBF01F5801130BD4F
:1027600001F0004545F0FE4141F470014FF00000DA
:1027700030BD7FEA645C1ABF194610467FEA655C8B
:102780001CBF0B46024650EA013406BF52EA03352D
:1027900091EA030F41F4002130BD00BF90F0000F1B
:1027A00004BF0021704730B54FF4806404F1320457
:1027B0004FF000054FF0000150E700BF90F0000F10
:1027C00004BF0021704730B54FF4806404F1320437
:1027D00010F0004548BF40424FF000013EE700BF07
:1027E00042004FEAE2014FEA31014FEA02701FBF97
:1027F00012F07F4393F07F4F81F06051704732F0C9
:102800007F4208BF704793F07F4F04BF41F400211F
:10281000704730B54FF4607401F0004521F000417D
:102820001CE700BF50EA010208BF704730B54FF007
:1028300000050AE050EA010208BF704730B511F008
:10284000004502D5404261EB41014FF4806404F140
:1028500032045FEA915C3FF4D8AE4FF003025FEAC6
:10286000DC0C18BF03325FEADC0C18BF033202EB4A
:10287000DC02C2F1200300FA03FC20FA02F001FAA4
:1028800003FE40EA0E0021FA02F11444BDE600BF47
:1028900070B54FF0FF0C4CF4E06C1CEA11541DBFF6
:1028A0001CEA135594EA0C0F95EA0C0F00F0DEF8C1
:1028B0002C4481EA030621EA4C5123EA4C5350EAA6
:1028C000013518BF52EA033541F4801143F48013F7
:1028D00038D0A0FB02CE4FF00005E1FB02E506F088
:1028E0000042E0FB03E54FF00006E1FB03569CF0DD
:1028F000000F18BF4EF0010EA4F1FF04B6F5007FE3
:1029000064F5407404D25FEA4E0E6D4146EB060654
:1029100042EAC62141EA55514FEAC52040EA5E50DD
:102920004FEACE2EB4F1FD0C88BFBCF5E06F1ED887
:10293000BEF1004F08BF5FEA500E50F1000041EBBE
:10294000045170BD06F0004646EA010140EA02006B
:1029500081EA0301B4EB5C04C2BFD4EB0C0541EA8D
:10296000045170BD41F480114FF0000E013C00F3A2
:10297000AB8014F1360FDEBF002001F0004170BDC6
:10298000C4F10004203C35DA0C341BDC04F11404DF
:10299000C4F1200500FA05F320FA04F001FA05F26B
:1029A00040EA020001F0004221F0004110EBD37038
:1029B00021FA04F642EB06015EEA430E08BF20EA64
:1029C000D37070BDC4F10C04C4F1200500FA04F307
:1029D00020FA05F001FA04F240EA020001F0004199
:1029E00010EBD37041F100015EEA430E08BF20EA0C
:1029F000D37070BDC4F1200500FA05F24EEA020E54
:102A000020FA04F301FA05F243EA020321FA04F082
:102A100001F0004121FA04F220EA020000EBD37039
:102A20005EEA430E08BF20EAD37070BD94F0000F39
:102A30000FD101F00046400041EB010111F4801F6D
:102A400008BF013CF7D041EA060195F0000F18BF1E
:102A5000704703F00046520043EB030313F4801F5A
:102A600008BF013DF7D043EA0603704794EA0C0F14
:102A70000CEA135518BF95EA0C0F0CD050EA41062A
:102A800018BF52EA4306D1D181EA030101F00041A7
:102A90004FF0000070BD50EA410606BF10461946CF
:102AA00052EA430619D094EA0C0F02D150EA0136DB
:102AB00013D195EA0C0F05D152EA03361CBF10461C
:102AC00019460AD181EA030101F0004141F0FE41BB
:102AD00041F470014FF0000070BD41F0FE4141F43F
:102AE000780170BD70B54FF0FF0C4CF4E06C1CEA3F
:102AF00011541DBF1CEA135594EA0C0F95EA0C0FF4
:102B000000F0A7F8A4EB050481EA030E52EA0335AE
:102B10004FEA013100F088804FEA03334FF08055CF
:102B200045EA131343EA12634FEA022245EA1115FC
:102B300045EA10654FEA00260EF000419D4208BFAD
:102B4000964244F1FD0404F5407402D25B084FEA5A
:102B50003202B61A65EB03055B084FEA32024FF406
:102B600080104FF4002CB6EB020E75EB030E22BF63
:102B7000B61A754640EA0C005B084FEA3202B6EB23
:102B8000020E75EB030E22BFB61A754640EA5C00D2
:102B90005B084FEA3202B6EB020E75EB030E22BF62
:102BA000B61A754640EA9C005B084FEA3202B6EB63
:102BB000020E75EB030E22BFB61A754640EADC0022
:102BC00055EA060E18D04FEA051545EA16754FEA84
:102BD00006164FEAC30343EA52734FEAC2025FEAA2
:102BE0001C1CC0D111F4801F0BD141EA00014FF031
:102BF00000004FF0004CB6E711F4801F04BF014302
:102C00000020B4F1FD0C88BFBCF5E06F3FF6AFAE1D
:102C1000B5EB030C04BFB6EB020C5FEA500C50F1AD
:102C2000000041EB045170BD0EF0004E4EEA113130
:102C300014EB5C04C2BFD4EB0C0541EA045170BD37
:102C400041F480114FF0000E013C90E645EA060E7B
:102C50008DE60CEA135594EA0C0F08BF95EA0C0FA9
:102C60003FF43BAF94EA0C0F0AD150EA01347FF4F1
:102C700034AF95EA0C0F7FF425AF104619462CE7C8
:102C800095EA0C0F06D152EA03353FF4FDAE10462B
:102C9000194622E750EA410618BF52EA43067FF47C
:102CA000C5AE50EA41047FF40DAF52EA43057FF40C
:102CB000EBAE12E74FF0FF3C06E000BF4FF0010C17
:102CC00002E000BF4FF0010C4DF804CD4FEA410C7B
:102CD0007FEA6C5C4FEA430C18BF7FEA6C5C1BD048
:102CE00001B050EA410C0CBF52EA430C91EA030FC9
:102CF00002BF90EA020F0020704710F1000F91EA26
:102D0000030F58BF994208BF90422CBFD8176FEAF3
:102D1000E37040F0010070474FEA410C7FEA6C5CC1
:102D200002D150EA013C07D14FEA430C7FEA6C5CC8
:102D3000D6D152EA033CD3D05DF8040B704700BFF4
:102D40008446104662468C461946634600E000BF42
:102D500001B5FFF7B7FF002848BF10F1000F01BD14
:102D60004DF808EDFFF7F4FF0CBF012000205DF8DF
:102D700008FB00BF4DF808EDFFF7EAFF34BF012064
:102D800000205DF808FB00BF4DF808EDFFF7E0FFFD
:102D900094BF012000205DF808FB00BF4DF808ED4E
:102DA000FFF7CEFF94BF012000205DF808FB00BFB5
:102DB0004DF808EDFFF7C4FF34BF012000205DF897
:102DC00008FB00BF08B5064B044613B10021AFF362
:102DD0000080044B1B6803B19847204600F04AF876
:102DE000000000004010002070B50D4D00260D4C75
:102DF000641BA410A64209D10B4D00260B4C00F019
:102E00009FF8641BA410A64205D170BD55F8043B81
:102E100001369847EEE755F8043B01369847F2E74C
:102E2000101000201010002010100020141000209E
:102E300010B501213A20FDF74FFFBDE810400023F7
:102E4000042218461146FEF743BFFEE710B53AB11B
:102E5000002350F8234041F8234001339A42F8D12F
:102E600010BD002070474FF4004070474FF47A7057
:102E70007047FEE7FEE770B5054614460E4600F0C3
:102E80001CF82B685C4034405C402C60BDE870400E
:102E900000F017B808B5FDF7D9FBBDE808400021E0
:102EA000FDF7EEBE0029CCBF01210021FDF7E8BEF1
:102EB00002214FF42070FEF771BAEFF3108072B662
:102EC000704700B962B67047704770B50546144642
:102ED0000E46FFF7F2FF2B685C4034405C402C60EC
:102EE000BDE87040FFF7EDBF10B5022A4FF00004B7
:102EF00005D9033A022A0CD90360047110BD11F4FC
:102F0000000218BF4FF07F4221F07F4313430C0EA5
:102F1000F2E721F0FF03CCB2EEE708B5D1F880204C
:102F2000D1F8841002F00702FFF7DEFF08BD02446B
:102F30000346934200D1704703F8011BF9E70000F4
:102F4000F8B500BFF8BC08BC9E467047F8B500BF96
:102F5000F8BC08BC9E46704700000000000000005E
:102F60000000000000000000000000000000000061
:102F70000000000000000000000000000000000051
:102F80000B0000000C0000000300000000002020E7
:102F900000000000030000003C3C3C00000000007A
:102FA000000000000000000000000302000000001C
:102FB00000000000BA04000000000000000003024E
:102FC0000000000000000000BA0400000000000043
:102FD000453A2F53696C69636F6E4C6162732F536E
:102FE000444B73322F6765636B6F5F73646B2F7035
:102FF0006C6174666F726D2F656D6C69622F737290
:10300000632F656D5F636D752E6300030206010516
:1030100004453A2F53696C69636F6E4C6162732F7C
:1030200053444B73322F6765636B6F5F73646B2F11
:10303000706C6174666F726D2F656D6C69622F7351
:1030400072632F656D5F656D752E6300653A5C7305
:10305000696C69636F6E6C6162735C73646B73320D
:103060005C6765636B6F5F73646B5C706C617466E7
:103070006F726D5C656D6C69625C696E635C656DD9
:103080005F6770696F2E6800453A2F53696C6963FA
:103090006F6E4C6162732F53444B73322F676563BD
:1030A0006B6F5F73646B2F706C6174666F726D2FE2
:1030B000656D6C69622F7372632F656D5F677069F0
:1030C0006F2E6300FF033F00FF033F00453A2F537D
:1030D000696C69636F6E4C6162732F53444B73323A
:1030E0002F6765636B6F5F73646B2F706C617466C1
:1030F0006F726D2F656D6C69622F7372632F656DD2
:103100005F696164632E6300BA04E204C409B80B0A
:103110006009000000008041000000420000804281
:0C3120000000B8420000004300008043A3
:08312C0048D1FF7F0100000003
:0C313400403100080010002006000000E0
:10314000C0EA2101C0EA210100800000C01753023B
:083150005102000829020008E9
:040000050800051DCD
:00000001FF
